{
  "transactions": [
    {
      "hash": "0xa2cf22d950f2d68ea1b3c78a6147aa7d004cb5731cc9ffeac74e7452ff0d8978",
      "transactionType": "CALL",
      "contractName": null,
      "contractAddress": "0x0569c08917cdd73934399fc5270b4610210cd936",
      "function": "mint(address)",
      "arguments": [
        "0xB133a194893434107925682789F16662FB9DB062"
      ],
      "transaction": {
        "from": "0xb133a194893434107925682789f16662fb9db062",
        "to": "0x0569c08917cdd73934399fc5270b4610210cd936",
        "gas": "0x1313d",
        "value": "0x0",
        "input": "0x6a627842000000000000000000000000b133a194893434107925682789f16662fb9db062",
        "nonce": "0x5d",
        "chainId": "0xaa36a7"
      },
      "additionalContracts": [],
      "isFixedGasLimit": false
    },
    {
      "hash": "0x16adffc728f20d324235d92ce30a567568c017b633d329947a2b2cfb42e05bab",
      "transactionType": "CALL",
      "contractName": null,
      "contractAddress": "0x0569c08917cdd73934399fc5270b4610210cd936",
      "function": "mint(address)",
      "arguments": [
        "0xB133a194893434107925682789F16662FB9DB062"
      ],
      "transaction": {
        "from": "0xb133a194893434107925682789f16662fb9db062",
        "to": "0x0569c08917cdd73934399fc5270b4610210cd936",
        "gas": "0x1313d",
        "value": "0x0",
        "input": "0x6a627842000000000000000000000000b133a194893434107925682789f16662fb9db062",
        "nonce": "0x5e",
        "chainId": "0xaa36a7"
      },
      "additionalContracts": [],
      "isFixedGasLimit": false
    },
    {
      "hash": "0xe0e7315100129f1aa1f406054e3826ddaea49ea95a97155c0cd0f45976206ea6",
      "transactionType": "CALL",
      "contractName": null,
      "contractAddress": "0x0569c08917cdd73934399fc5270b4610210cd936",
      "function": "approve(address,uint256)",
      "arguments": [
        "0x7aDDB28ab0e9AcBDcC49122D87c056Dd2ecD4E45",
        "5"
      ],
      "transaction": {
        "from": "0xb133a194893434107925682789f16662fb9db062",
        "to": "0x0569c08917cdd73934399fc5270b4610210cd936",
        "gas": "0x115b5",
        "value": "0x0",
        "input": "0x095ea7b30000000000000000000000007addb28ab0e9acbdcc49122d87c056dd2ecd4e450000000000000000000000000000000000000000000000000000000000000005",
        "nonce": "0x5f",
        "chainId": "0xaa36a7"
      },
      "additionalContracts": [],
      "isFixedGasLimit": false
    },
    {
      "hash": "0x471ebfa3b5af314d94399ce7a0c63222e4bcc4ecaf61d22944016c5306cd83cf",
      "transactionType": "CALL",
      "contractName": null,
      "contractAddress": "0x0569c08917cdd73934399fc5270b4610210cd936",
      "function": "approve(address,uint256)",
      "arguments": [
        "0x7aDDB28ab0e9AcBDcC49122D87c056Dd2ecD4E45",
        "6"
      ],
      "transaction": {
        "from": "0xb133a194893434107925682789f16662fb9db062",
        "to": "0x0569c08917cdd73934399fc5270b4610210cd936",
        "gas": "0x115b5",
        "value": "0x0",
        "input": "0x095ea7b30000000000000000000000007addb28ab0e9acbdcc49122d87c056dd2ecd4e450000000000000000000000000000000000000000000000000000000000000006",
        "nonce": "0x60",
        "chainId": "0xaa36a7"
      },
      "additionalContracts": [],
      "isFixedGasLimit": false
    },
    {
      "hash": "0x972fccaba9160c8018d3945103585f5dcf41cf3f6825318b40f148ef49293e2c",
      "transactionType": "CALL",
      "contractName": null,
      "contractAddress": "0x7addb28ab0e9acbdcc49122d87c056dd2ecd4e45",
      "function": "createOrder(address,address,uint8,uint8,uint256,uint256,uint256,uint256,uint256,uint256,bool,uint256)",
      "arguments": [
        "0x0569C08917cDd73934399fC5270B4610210Cd936",
        "0x0569C08917cDd73934399fC5270B4610210Cd936",
        "1",
        "1",
        "5",
        "6",
        "1",
        "1",
        "100",
        "86400",
        "false",
        "0"
      ],
      "transaction": {
        "from": "0xb133a194893434107925682789f16662fb9db062",
        "to": "0x7addb28ab0e9acbdcc49122d87c056dd2ecd4e45",
        "gas": "0xf5a53",
        "value": "0x5af3107a4000",
        "input": "0x4077b1fd0000000000000000000000000569c08917cdd73934399fc5270b4610210cd9360000000000000000000000000569c08917cdd73934399fc5270b4610210cd9360000000000000000000000000000000000000000000000000000000000000001000000000000000000000000000000000000000000000000000000000000000100000000000000000000000000000000000000000000000000000000000000050000000000000000000000000000000000000000000000000000000000000006000000000000000000000000000000000000000000000000000000000000000100000000000000000000000000000000000000000000000000000000000000010000000000000000000000000000000000000000000000000000000000000064000000000000000000000000000000000000000000000000000000000001518000000000000000000000000000000000000000000000000000000000000000000000000000000000000000000000000000000000000000000000000000000000",
        "nonce": "0x61",
        "chainId": "0xaa36a7"
      },
      "additionalContracts": [],
      "isFixedGasLimit": false
    },
    {
      "hash": "0xf9c1fedd2c7b376888586153c354edf7e6f0a71e76c4c5a7d3f3aad1fd4c4171",
      "transactionType": "CALL",
      "contractName": null,
      "contractAddress": "0x7addb28ab0e9acbdcc49122d87c056dd2ecd4e45",
      "function": "createOrder(address,address,uint8,uint8,uint256,uint256,uint256,uint256,uint256,uint256,bool,uint256)",
      "arguments": [
        "0x0569C08917cDd73934399fC5270B4610210Cd936",
        "0x0569C08917cDd73934399fC5270B4610210Cd936",
        "1",
        "1",
        "6",
        "5",
        "1",
        "1",
        "100",
        "86400",
        "false",
        "0"
      ],
      "transaction": {
        "from": "0xb133a194893434107925682789f16662fb9db062",
        "to": "0x7addb28ab0e9acbdcc49122d87c056dd2ecd4e45",
        "gas": "0xdb4b3",
        "value": "0x5af3107a4000",
        "input": "0x4077b1fd0000000000000000000000000569c08917cdd73934399fc5270b4610210cd9360000000000000000000000000569c08917cdd73934399fc5270b4610210cd9360000000000000000000000000000000000000000000000000000000000000001000000000000000000000000000000000000000000000000000000000000000100000000000000000000000000000000000000000000000000000000000000060000000000000000000000000000000000000000000000000000000000000005000000000000000000000000000000000000000000000000000000000000000100000000000000000000000000000000000000000000000000000000000000010000000000000000000000000000000000000000000000000000000000000064000000000000000000000000000000000000000000000000000000000001518000000000000000000000000000000000000000000000000000000000000000000000000000000000000000000000000000000000000000000000000000000000",
        "nonce": "0x62",
        "chainId": "0xaa36a7"
      },
      "additionalContracts": [],
      "isFixedGasLimit": false
    },
    {
      "hash": "0xa668ff0573a95454b632094f1c7cafa8ab554b70a3d15979dbf9ae11eeade032",
      "transactionType": "CALL",
      "contractName": null,
      "contractAddress": "0x7addb28ab0e9acbdcc49122d87c056dd2ecd4e45",
      "function": "matchOrders(bytes32,bytes32)",
      "arguments": [
        "0xb7fd9c307df68327721ed4fe9c8c95538c4959bee6253d6ca26a0bd8bc5829ee",
        "0x2ec417d463e3680998af55506d4c848f9435b060dedf568d286dd0065bde525c"
      ],
      "transaction": {
        "from": "0xb133a194893434107925682789f16662fb9db062",
        "to": "0x7addb28ab0e9acbdcc49122d87c056dd2ecd4e45",
        "gas": "0x66e86",
        "value": "0x0",
        "input": "0x7fe3826eb7fd9c307df68327721ed4fe9c8c95538c4959bee6253d6ca26a0bd8bc5829ee2ec417d463e3680998af55506d4c848f9435b060dedf568d286dd0065bde525c",
        "nonce": "0x63",
        "chainId": "0xaa36a7"
      },
      "additionalContracts": [],
      "isFixedGasLimit": false
    }
  ],
  "receipts": [
    {
      "status": "0x1",
      "cumulativeGasUsed": "0x1f860ca",
      "logs": [
        {
          "address": "0x0569c08917cdd73934399fc5270b4610210cd936",
          "topics": [
            "0xddf252ad1be2c89b69c2b068fc378daa952ba7f163c4a11628f55a4df523b3ef",
            "0x0000000000000000000000000000000000000000000000000000000000000000",
            "0x000000000000000000000000b133a194893434107925682789f16662fb9db062",
            "0x0000000000000000000000000000000000000000000000000000000000000005"
          ],
          "data": "0x",
          "blockHash": "0xa95f2d96b4794fa83b4e520963e38f722b915f0943afa8390c5e3ea568829b0b",
          "blockNumber": "0x98eead",
          "blockTimestamp": "0x6963c2e8",
          "transactionHash": "0xa668ff0573a95454b632094f1c7cafa8ab554b70a3d15979dbf9ae11eeade032",
          "transactionIndex": "0xa2",
          "logIndex": "0x3e2",
          "removed": false
        }
      ],
      "logsBloom": "0x00000000000000000000000000000000000000000000000000000000000000000000800000000000000000040000000000000000000000000000000000000000000010000000000000000008000000000000000000000000000000000000000000000000020000010000000000000800000000000000000000000010000000000000000000000008000000000000001000000800000000000000000000000000000000000000000000000000000000000000000000000000008200000000000000000002000000000000000000000000000000000000000000000000000020000000000000000000000000000000000000000000000000000000000000000000",
      "type": "0x2",
      "transactionHash": "0xa668ff0573a95454b632094f1c7cafa8ab554b70a3d15979dbf9ae11eeade032",
      "transactionIndex": "0xa2",
      "blockHash": "0xa95f2d96b4794fa83b4e520963e38f722b915f0943afa8390c5e3ea568829b0b",
      "blockNumber": "0x98eead",
      "gasUsed": "0xdcfe",
      "effectiveGasPrice": "0x1307c6",
      "from": "0xb133a194893434107925682789f16662fb9db062",
      "to": "0x0569c08917cdd73934399fc5270b4610210cd936",
      "contractAddress": null
    },
    {
      "status": "0x1",
      "cumulativeGasUsed": "0x1f93dc8",
      "logs": [
        {
          "address": "0x0569c08917cdd73934399fc5270b4610210cd936",
          "topics": [
            "0xddf252ad1be2c89b69c2b068fc378daa952ba7f163c4a11628f55a4df523b3ef",
            "0x0000000000000000000000000000000000000000000000000000000000000000",
            "0x000000000000000000000000b133a194893434107925682789f16662fb9db062",
            "0x0000000000000000000000000000000000000000000000000000000000000006"
          ],
          "data": "0x",
          "blockHash": "0xa95f2d96b4794fa83b4e520963e38f722b915f0943afa8390c5e3ea568829b0b",
          "blockNumber": "0x98eead",
          "blockTimestamp": "0x6963c2e8",
          "transactionHash": "0xa2cf22d950f2d68ea1b3c78a6147aa7d004cb5731cc9ffeac74e7452ff0d8978",
          "transactionIndex": "0xa3",
          "logIndex": "0x3e3",
          "removed": false
        }
      ],
      "logsBloom": "0x00000000000000000000000000000000000000000000000000000000000000000000800000000000000000040000000000000000000400000000000000000000000000000000000000000008000000000000000000000000000000000000000000000000020000010000000000000800000000000000000000000010000000000000000400000008000000000000000000000000000000000000000000000000000000000000000000000000000000000000000000000000008200080000000000000002000000000000000000000000000000000000000000000000000020000000000000000000000000000000000000000000000000000000000000000000",
      "type": "0x2",
      "transactionHash": "0xa2cf22d950f2d68ea1b3c78a6147aa7d004cb5731cc9ffeac74e7452ff0d8978",
      "transactionIndex": "0xa3",
      "blockHash": "0xa95f2d96b4794fa83b4e520963e38f722b915f0943afa8390c5e3ea568829b0b",
      "blockNumber": "0x98eead",
      "gasUsed": "0xdcfe",
      "effectiveGasPrice": "0x1307c6",
      "from": "0xb133a194893434107925682789f16662fb9db062",
      "to": "0x0569c08917cdd73934399fc5270b4610210cd936",
      "contractAddress": null
    },
    {
      "status": "0x1",
      "cumulativeGasUsed": "0x1f9fbab",
      "logs": [
        {
          "address": "0x0569c08917cdd73934399fc5270b4610210cd936",
          "topics": [
            "0x8c5be1e5ebec7d5bd14f71427d1e84f3dd0314c0f7b2291e5b200ac8c7c3b925",
            "0x000000000000000000000000b133a194893434107925682789f16662fb9db062",
            "0x0000000000000000000000007addb28ab0e9acbdcc49122d87c056dd2ecd4e45",
            "0x0000000000000000000000000000000000000000000000000000000000000005"
          ],
          "data": "0x",
          "blockHash": "0xa95f2d96b4794fa83b4e520963e38f722b915f0943afa8390c5e3ea568829b0b",
          "blockNumber": "0x98eead",
          "blockTimestamp": "0x6963c2e8",
          "transactionHash": "0xe0e7315100129f1aa1f406054e3826ddaea49ea95a97155c0cd0f45976206ea6",
          "transactionIndex": "0xa4",
          "logIndex": "0x3e4",
          "removed": false
        }
      ],
      "logsBloom": "0x00000000000000000000000000000000000000000000000000000000000000000000800000000000000000040080000000000000000000000000000000200000000010000000000000000000000000000000000000000000000000000000000000000000000000010000000000000000000000000000000000000000000000000000000000000008020000000000001000000800000000000000000000000000020000000000000000000000000000000000000000000000008200000000000000400000000000000000000000000000000000000000000000000000000000000010000000000000000000000000000000000000000000000000000000000000",
      "type": "0x2",
      "transactionHash": "0xe0e7315100129f1aa1f406054e3826ddaea49ea95a97155c0cd0f45976206ea6",
      "transactionIndex": "0xa4",
      "blockHash": "0xa95f2d96b4794fa83b4e520963e38f722b915f0943afa8390c5e3ea568829b0b",
      "blockNumber": "0x98eead",
      "gasUsed": "0xbde3",
      "effectiveGasPrice": "0x1307c6",
      "from": "0xb133a194893434107925682789f16662fb9db062",
      "to": "0x0569c08917cdd73934399fc5270b4610210cd936",
      "contractAddress": null
    },
    {
      "status": "0x1",
      "cumulativeGasUsed": "0x1fab98e",
      "logs": [
        {
          "address": "0x0569c08917cdd73934399fc5270b4610210cd936",
          "topics": [
            "0x8c5be1e5ebec7d5bd14f71427d1e84f3dd0314c0f7b2291e5b200ac8c7c3b925",
            "0x000000000000000000000000b133a194893434107925682789f16662fb9db062",
            "0x0000000000000000000000007addb28ab0e9acbdcc49122d87c056dd2ecd4e45",
            "0x0000000000000000000000000000000000000000000000000000000000000006"
          ],
          "data": "0x",
          "blockHash": "0xa95f2d96b4794fa83b4e520963e38f722b915f0943afa8390c5e3ea568829b0b",
          "blockNumber": "0x98eead",
          "blockTimestamp": "0x6963c2e8",
          "transactionHash": "0x16adffc728f20d324235d92ce30a567568c017b633d329947a2b2cfb42e05bab",
          "transactionIndex": "0xa5",
          "logIndex": "0x3e5",
          "removed": false
        }
      ],
      "logsBloom": "0x00000000000000000000000000000000000000000000000000000000000000000000800000000000000000040080000000000000000400000000000000200000000000000000000000000000000000000000000000000000000000000000000000000000000000010000000000000000000000000000000000000000000000000000000400000008020000000000000000000000000000000000000000000000020000000000000000000000000000000000000000000000008200080000000000400000000000000000000000000000000000000000000000000000000000000010000000000000000000000000000000000000000000000000000000000000",
      "type": "0x2",
      "transactionHash": "0x16adffc728f20d324235d92ce30a567568c017b633d329947a2b2cfb42e05bab",
      "transactionIndex": "0xa5",
      "blockHash": "0xa95f2d96b4794fa83b4e520963e38f722b915f0943afa8390c5e3ea568829b0b",
      "blockNumber": "0x98eead",
      "gasUsed": "0xbde3",
      "effectiveGasPrice": "0x1307c6",
      "from": "0xb133a194893434107925682789f16662fb9db062",
      "to": "0x0569c08917cdd73934399fc5270b4610210cd936",
      "contractAddress": null
    },
    {
      "status": "0x1",
      "cumulativeGasUsed": "0x205d70b",
      "logs": [
        {
          "address": "0xc807dcad315fe0f47bcacfe87722c8bbba872434",
          "topics": [
            "0x79c83391cfccac95f733ad7950aee12248ec67f64a653a4a9fce9d0e2d2aab31",
            "0x6c8c3c2fa55903f125fa1df8a5d79c3a1140dc816012dca9e818b1c29c4dbdd9",
            "0x0000000000000000000000000569c08917cdd73934399fc5270b4610210cd936",
            "0x000000000000000000000000b133a194893434107925682789f16662fb9db062"
          ],
          "data": "0x00000000000000000000000000000000000000000000000000000000000000000000000000000000000000000000000000000000000000000000000000000001",
          "blockHash": "0xa95f2d96b4794fa83b4e520963e38f722b915f0943afa8390c5e3ea568829b0b",
          "blockNumber": "0x98eead",
          "blockTimestamp": "0x6963c2e8",
          "transactionHash": "0x972fccaba9160c8018d3945103585f5dcf41cf3f6825318b40f148ef49293e2c",
          "transactionIndex": "0xa6",
          "logIndex": "0x3e6",
          "removed": false
        },
        {
          "address": "0xb851437f508f2b37f840aefc2bff945c6f453f33",
          "topics": [
            "0x9bf2168d383c9f4e4f2477bcc00eb29f933d24976d3b7208d85a5941d93bd842",
            "0x0000000000000000000000000569c08917cdd73934399fc5270b4610210cd936",
            "0x0000000000000000000000000569c08917cdd73934399fc5270b4610210cd936"
          ],
          "data": "0x0000000000000000000000000000000000000000000000000000000000000001000000000000000000000000000000000000000000000000000000006963c2e8",
          "blockHash": "0xa95f2d96b4794fa83b4e520963e38f722b915f0943afa8390c5e3ea568829b0b",
          "blockNumber": "0x98eead",
          "blockTimestamp": "0x6963c2e8",
          "transactionHash": "0x972fccaba9160c8018d3945103585f5dcf41cf3f6825318b40f148ef49293e2c",
          "transactionIndex": "0xa6",
          "logIndex": "0x3e7",
          "removed": false
        },
        {
          "address": "0xdc857b163aef8c79f25a07df905b74c5bf0a09ed",
          "topics": [
            "0xff3b90bd96f52c8b55369feccd230679a844f1ef26a3c3d8e47269f9aaf492f0",
            "0x02668a210303802217ca8175706a2ed3b46e906b75698522f53b512b83c8e88b",
            "0x000000000000000000000000b133a194893434107925682789f16662fb9db062",
            "0x0000000000000000000000000569c08917cdd73934399fc5270b4610210cd936"
          ],
          "data": "0x0000000000000000000000000569c08917cdd73934399fc5270b4610210cd9360000000000000000000000000000000000000000000000000000000000000001000000000000000000000000000000000000000000000000000000000000000100000000000000000000000000000000000000000000000000000000000000050000000000000000000000000000000000000000000000000000000000000001000000000000000000000000000000000000000000000000000000006963c2e8",
          "blockHash": "0xa95f2d96b4794fa83b4e520963e38f722b915f0943afa8390c5e3ea568829b0b",
          "blockNumber": "0x98eead",
          "blockTimestamp": "0x6963c2e8",
          "transactionHash": "0x972fccaba9160c8018d3945103585f5dcf41cf3f6825318b40f148ef49293e2c",
          "transactionIndex": "0xa6",
          "logIndex": "0x3e8",
          "removed": false
        },
        {
          "address": "0x7addb28ab0e9acbdcc49122d87c056dd2ecd4e45",
          "topics": [
            "0xe9dbf214fbca4dcf24d246154a363e5fb1f2adde8f1f7cce7bd19f220adcafd4",
            "0x02668a210303802217ca8175706a2ed3b46e906b75698522f53b512b83c8e88b",
            "0x000000000000000000000000b133a194893434107925682789f16662fb9db062"
          ],
          "data": "0x0000000000000000000000000569c08917cdd73934399fc5270b4610210cd9360000000000000000000000000569c08917cdd73934399fc5270b4610210cd936000000000000000000000000000000000000000000000000000000000000000100000000000000000000000000000000000000000000000000000000000000010000000000000000000000000000000000000000000000000000000000000005000000000000000000000000000000000000000000000000000000006963c2e8",
          "blockHash": "0xa95f2d96b4794fa83b4e520963e38f722b915f0943afa8390c5e3ea568829b0b",
          "blockNumber": "0x98eead",
          "blockTimestamp": "0x6963c2e8",
          "transactionHash": "0x972fccaba9160c8018d3945103585f5dcf41cf3f6825318b40f148ef49293e2c",
          "transactionIndex": "0xa6",
          "logIndex": "0x3e9",
          "removed": false
        }
      ],
      "logsBloom": "0x08000000000000008000008000000000000808000000000000000000000000004000000000000000020000002000000000000000808000000000000000000000000000000000000000000000000000000000002024000000000000000001000000000000000000010200002200000000000000000000000000000000000000000000000000000008000400000000000000000000000000000000000000000000000001000000000800000000001000004000000100000000008000000040020000000000200000000000080000000400000000000000000000001000000000008000000000000000000000000000008000004000000000000000000000000002",
      "type": "0x2",
      "transactionHash": "0x972fccaba9160c8018d3945103585f5dcf41cf3f6825318b40f148ef49293e2c",
      "transactionIndex": "0xa6",
      "blockHash": "0xa95f2d96b4794fa83b4e520963e38f722b915f0943afa8390c5e3ea568829b0b",
      "blockNumber": "0x98eead",
      "gasUsed": "0xb1d7d",
      "effectiveGasPrice": "0x1307c6",
      "from": "0xb133a194893434107925682789f16662fb9db062",
      "to": "0x7addb28ab0e9acbdcc49122d87c056dd2ecd4e45",
      "contractAddress": null
    },
    {
      "status": "0x1",
      "cumulativeGasUsed": "0x20fc348",
      "logs": [
        {
          "address": "0xc807dcad315fe0f47bcacfe87722c8bbba872434",
          "topics": [
            "0x79c83391cfccac95f733ad7950aee12248ec67f64a653a4a9fce9d0e2d2aab31",
            "0xc694a4466bbfc6f2f18e36751dc010212a1cda264dcf3f8bb3d61aee9e58dedf",
            "0x0000000000000000000000000569c08917cdd73934399fc5270b4610210cd936",
            "0x000000000000000000000000b133a194893434107925682789f16662fb9db062"
          ],
          "data": "0x00000000000000000000000000000000000000000000000000000000000000000000000000000000000000000000000000000000000000000000000000000001",
          "blockHash": "0xa95f2d96b4794fa83b4e520963e38f722b915f0943afa8390c5e3ea568829b0b",
          "blockNumber": "0x98eead",
          "blockTimestamp": "0x6963c2e8",
          "transactionHash": "0xf9c1fedd2c7b376888586153c354edf7e6f0a71e76c4c5a7d3f3aad1fd4c4171",
          "transactionIndex": "0xa7",
          "logIndex": "0x3ea",
          "removed": false
        },
        {
          "address": "0xb851437f508f2b37f840aefc2bff945c6f453f33",
          "topics": [
            "0x9bf2168d383c9f4e4f2477bcc00eb29f933d24976d3b7208d85a5941d93bd842",
            "0x0000000000000000000000000569c08917cdd73934399fc5270b4610210cd936",
            "0x0000000000000000000000000569c08917cdd73934399fc5270b4610210cd936"
          ],
          "data": "0x0000000000000000000000000000000000000000000000000000000000000002000000000000000000000000000000000000000000000000000000006963c2e8",
          "blockHash": "0xa95f2d96b4794fa83b4e520963e38f722b915f0943afa8390c5e3ea568829b0b",
          "blockNumber": "0x98eead",
          "blockTimestamp": "0x6963c2e8",
          "transactionHash": "0xf9c1fedd2c7b376888586153c354edf7e6f0a71e76c4c5a7d3f3aad1fd4c4171",
          "transactionIndex": "0xa7",
          "logIndex": "0x3eb",
          "removed": false
        },
        {
          "address": "0xdc857b163aef8c79f25a07df905b74c5bf0a09ed",
          "topics": [
            "0xff3b90bd96f52c8b55369feccd230679a844f1ef26a3c3d8e47269f9aaf492f0",
            "0x87f7d644839e467609e574e47a509b86ca5d10f5c22ccc3d28487bdf60cadbf0",
            "0x000000000000000000000000b133a194893434107925682789f16662fb9db062",
            "0x0000000000000000000000000569c08917cdd73934399fc5270b4610210cd936"
          ],
          "data": "0x0000000000000000000000000569c08917cdd73934399fc5270b4610210cd9360000000000000000000000000000000000000000000000000000000000000001000000000000000000000000000000000000000000000000000000000000000100000000000000000000000000000000000000000000000000000000000000060000000000000000000000000000000000000000000000000000000000000001000000000000000000000000000000000000000000000000000000006963c2e8",
          "blockHash": "0xa95f2d96b4794fa83b4e520963e38f722b915f0943afa8390c5e3ea568829b0b",
          "blockNumber": "0x98eead",
          "blockTimestamp": "0x6963c2e8",
          "transactionHash": "0xf9c1fedd2c7b376888586153c354edf7e6f0a71e76c4c5a7d3f3aad1fd4c4171",
          "transactionIndex": "0xa7",
          "logIndex": "0x3ec",
          "removed": false
        },
        {
          "address": "0x7addb28ab0e9acbdcc49122d87c056dd2ecd4e45",
          "topics": [
            "0xe9dbf214fbca4dcf24d246154a363e5fb1f2adde8f1f7cce7bd19f220adcafd4",
            "0x87f7d644839e467609e574e47a509b86ca5d10f5c22ccc3d28487bdf60cadbf0",
            "0x000000000000000000000000b133a194893434107925682789f16662fb9db062"
          ],
          "data": "0x0000000000000000000000000569c08917cdd73934399fc5270b4610210cd9360000000000000000000000000569c08917cdd73934399fc5270b4610210cd936000000000000000000000000000000000000000000000000000000000000000100000000000000000000000000000000000000000000000000000000000000010000000000000000000000000000000000000000000000000000000000000006000000000000000000000000000000000000000000000000000000006963c2e8",
          "blockHash": "0xa95f2d96b4794fa83b4e520963e38f722b915f0943afa8390c5e3ea568829b0b",
          "blockNumber": "0x98eead",
          "blockTimestamp": "0x6963c2e8",
          "transactionHash": "0xf9c1fedd2c7b376888586153c354edf7e6f0a71e76c4c5a7d3f3aad1fd4c4171",
          "transactionIndex": "0xa7",
          "logIndex": "0x3ed",
          "removed": false
        }
      ],
      "logsBloom": "0x08000008000000008000008000000000000008000000000000001000100000004000000000000000020000002000000000000001808000000000000000000000000000000000000000000000000000000000000024000000000000000001000000000000000000010200002200000000000000000000000000000000000000000000000000000008000000000010000000000000000000000000000000000000000000000000000000000000001000004000000100000000008000000040020000000000200000000000080000000408000000000000000000001000000000008000000000000000000000000000000000004000000000000000000000000002",
      "type": "0x2",
      "transactionHash": "0xf9c1fedd2c7b376888586153c354edf7e6f0a71e76c4c5a7d3f3aad1fd4c4171",
      "transactionIndex": "0xa7",
      "blockHash": "0xa95f2d96b4794fa83b4e520963e38f722b915f0943afa8390c5e3ea568829b0b",
      "blockNumber": "0x98eead",
      "gasUsed": "0x9ec3d",
      "effectiveGasPrice": "0x1307c6",
      "from": "0xb133a194893434107925682789f16662fb9db062",
      "to": "0x7addb28ab0e9acbdcc49122d87c056dd2ecd4e45",
      "contractAddress": null
    }
  ],
  "libraries": [],
  "pending": [],
  "returns": {},
  "timestamp": 1768149479026,
  "chain": 11155111,
  "commit": null
}