{
  "transactions": [
    {
      "hash": "0x729a8bfce29393679b94f220d25b73a863ac04db51222d2141e10874e4ffc811",
      "transactionType": "CALL",
      "contractName": null,
      "contractAddress": "0x5b5eabf48591e87ff83df2099826c09931ce55ef",
      "function": "mint(address,uint256)",
      "arguments": [
        "0xB133a194893434107925682789F16662FB9DB062",
        "1000000000000000000000000"
      ],
      "transaction": {
        "from": "0xb133a194893434107925682789f16662fb9db062",
        "to": "0x5b5eabf48591e87ff83df2099826c09931ce55ef",
        "value": "0x0",
        "input": "0x40c10f19000000000000000000000000b133a194893434107925682789f16662fb9db06200000000000000000000000000000000000000000000d3c21bcecceda1000000",
        "nonce": "0x4f",
        "chainId": "0x3909"
      },
      "additionalContracts": [],
      "isFixedGasLimit": false
    },
    {
      "hash": "0xa5000d2b6787f155245f0f1e61d9979b1cdf879dc0b8d23eb11bc4ec3fbb5c88",
      "transactionType": "CALL",
      "contractName": null,
      "contractAddress": "0x4e063fd125d32b79f2563bc70e73d2975e2aacd8",
      "function": "mint(address,uint256)",
      "arguments": [
        "0xB133a194893434107925682789F16662FB9DB062",
        "1000000000000"
      ],
      "transaction": {
        "from": "0xb133a194893434107925682789f16662fb9db062",
        "to": "0x4e063fd125d32b79f2563bc70e73d2975e2aacd8",
        "value": "0x0",
        "input": "0x40c10f19000000000000000000000000b133a194893434107925682789f16662fb9db062000000000000000000000000000000000000000000000000000000e8d4a51000",
        "nonce": "0x50",
        "chainId": "0x3909"
      },
      "additionalContracts": [],
      "isFixedGasLimit": false
    },
    {
      "hash": "0xadb77be83b90ba4a2356f61b79eebf211c61e01fd03f3cd4eca0e598ba5fb90c",
      "transactionType": "CALL",
      "contractName": null,
      "contractAddress": "0xb31f4cafa2947e1f7f2d735a93401ab8ffcb4265",
      "function": "mint(address,uint256)",
      "arguments": [
        "0xB133a194893434107925682789F16662FB9DB062",
        "1000000000000"
      ],
      "transaction": {
        "from": "0xb133a194893434107925682789f16662fb9db062",
        "to": "0xb31f4cafa2947e1f7f2d735a93401ab8ffcb4265",
        "value": "0x0",
        "input": "0x40c10f19000000000000000000000000b133a194893434107925682789f16662fb9db062000000000000000000000000000000000000000000000000000000e8d4a51000",
        "nonce": "0x51",
        "chainId": "0x3909"
      },
      "additionalContracts": [],
      "isFixedGasLimit": false
    },
    {
      "hash": "0x91fc7d74ef5dac86f85e2fd5a75812b25b407b392ed85e57ca7474194f545164",
      "transactionType": "CALL",
      "contractName": null,
      "contractAddress": "0x27060b7b093211fae9edff834e23e6136cd6e10d",
      "function": "mint(address)",
      "arguments": [
        "0xB133a194893434107925682789F16662FB9DB062"
      ],
      "transaction": {
        "from": "0xb133a194893434107925682789f16662fb9db062",
        "to": "0x27060b7b093211fae9edff834e23e6136cd6e10d",
        "value": "0x0",
        "input": "0x6a627842000000000000000000000000b133a194893434107925682789f16662fb9db062",
        "nonce": "0x52",
        "chainId": "0x3909"
      },
      "additionalContracts": [],
      "isFixedGasLimit": false
    },
    {
      "hash": "0x4e97dc916a42d8223b062e86db740c8dd416a5a51b7fb1cb4738347d504a30e8",
      "transactionType": "CALL",
      "contractName": null,
      "contractAddress": "0xb851437f508f2b37f840aefc2bff945c6f453f33",
      "function": "mint(address)",
      "arguments": [
        "0xB133a194893434107925682789F16662FB9DB062"
      ],
      "transaction": {
        "from": "0xb133a194893434107925682789f16662fb9db062",
        "to": "0xb851437f508f2b37f840aefc2bff945c6f453f33",
        "value": "0x0",
        "input": "0x6a627842000000000000000000000000b133a194893434107925682789f16662fb9db062",
        "nonce": "0x53",
        "chainId": "0x3909"
      },
      "additionalContracts": [],
      "isFixedGasLimit": false
    },
    {
      "hash": "0x620210442abede5f7da9f792f0b0ac5121c41d80b5b30daee049a029aafef9d6",
      "transactionType": "CALL",
      "contractName": null,
      "contractAddress": "0xc807dcad315fe0f47bcacfe87722c8bbba872434",
      "function": "mint(address)",
      "arguments": [
        "0xB133a194893434107925682789F16662FB9DB062"
      ],
      "transaction": {
        "from": "0xb133a194893434107925682789f16662fb9db062",
        "to": "0xc807dcad315fe0f47bcacfe87722c8bbba872434",
        "value": "0x0",
        "input": "0x6a627842000000000000000000000000b133a194893434107925682789f16662fb9db062",
        "nonce": "0x54",
        "chainId": "0x3909"
      },
      "additionalContracts": [],
      "isFixedGasLimit": false
    },
    {
      "hash": "0x1228a49585cf27f7ad75dca743ceffb49d0e4650bb3a89d962487ae8f3b61b94",
      "transactionType": "CALL",
      "contractName": null,
      "contractAddress": "0x27060b7b093211fae9edff834e23e6136cd6e10d",
      "function": "mint(address)",
      "arguments": [
        "0xB133a194893434107925682789F16662FB9DB062"
      ],
      "transaction": {
        "from": "0xb133a194893434107925682789f16662fb9db062",
        "to": "0x27060b7b093211fae9edff834e23e6136cd6e10d",
        "value": "0x0",
        "input": "0x6a627842000000000000000000000000b133a194893434107925682789f16662fb9db062",
        "nonce": "0x55",
        "chainId": "0x3909"
      },
      "additionalContracts": [],
      "isFixedGasLimit": false
    },
    {
      "hash": "0xef8fb522ecfad38758266623944851403968948307c0ea14a8812afa662a8471",
      "transactionType": "CALL",
      "contractName": null,
      "contractAddress": "0xb851437f508f2b37f840aefc2bff945c6f453f33",
      "function": "mint(address)",
      "arguments": [
        "0xB133a194893434107925682789F16662FB9DB062"
      ],
      "transaction": {
        "from": "0xb133a194893434107925682789f16662fb9db062",
        "to": "0xb851437f508f2b37f840aefc2bff945c6f453f33",
        "value": "0x0",
        "input": "0x6a627842000000000000000000000000b133a194893434107925682789f16662fb9db062",
        "nonce": "0x56",
        "chainId": "0x3909"
      },
      "additionalContracts": [],
      "isFixedGasLimit": false
    },
    {
      "hash": "0xe2aecec106370e8a9a3632f1e4ca722d09ad3323869462b958a26dfaa180f13a",
      "transactionType": "CALL",
      "contractName": null,
      "contractAddress": "0xc807dcad315fe0f47bcacfe87722c8bbba872434",
      "function": "mint(address)",
      "arguments": [
        "0xB133a194893434107925682789F16662FB9DB062"
      ],
      "transaction": {
        "from": "0xb133a194893434107925682789f16662fb9db062",
        "to": "0xc807dcad315fe0f47bcacfe87722c8bbba872434",
        "value": "0x0",
        "input": "0x6a627842000000000000000000000000b133a194893434107925682789f16662fb9db062",
        "nonce": "0x57",
        "chainId": "0x3909"
      },
      "additionalContracts": [],
      "isFixedGasLimit": false
    },
    {
      "hash": "0x120621288048e7a04640dd0342dca42d8ec83df0615b7e77ad60df28fc9656ed",
      "transactionType": "CALL",
      "contractName": null,
      "contractAddress": "0x27060b7b093211fae9edff834e23e6136cd6e10d",
      "function": "mint(address)",
      "arguments": [
        "0xB133a194893434107925682789F16662FB9DB062"
      ],
      "transaction": {
        "from": "0xb133a194893434107925682789f16662fb9db062",
        "to": "0x27060b7b093211fae9edff834e23e6136cd6e10d",
        "value": "0x0",
        "input": "0x6a627842000000000000000000000000b133a194893434107925682789f16662fb9db062",
        "nonce": "0x58",
        "chainId": "0x3909"
      },
      "additionalContracts": [],
      "isFixedGasLimit": false
    },
    {
      "hash": "0xdbaa662a8a3bdec3e9b5e6c019c5f3d9d0971dae62bbf000004fc33653904e8c",
      "transactionType": "CALL",
      "contractName": null,
      "contractAddress": "0xb851437f508f2b37f840aefc2bff945c6f453f33",
      "function": "mint(address)",
      "arguments": [
        "0xB133a194893434107925682789F16662FB9DB062"
      ],
      "transaction": {
        "from": "0xb133a194893434107925682789f16662fb9db062",
        "to": "0xb851437f508f2b37f840aefc2bff945c6f453f33",
        "value": "0x0",
        "input": "0x6a627842000000000000000000000000b133a194893434107925682789f16662fb9db062",
        "nonce": "0x59",
        "chainId": "0x3909"
      },
      "additionalContracts": [],
      "isFixedGasLimit": false
    },
    {
      "hash": "0xd5cd0ed65df8528c71ea4f377cee667161fdf029b30861e5ff2c6e7af96baba7",
      "transactionType": "CALL",
      "contractName": null,
      "contractAddress": "0xc807dcad315fe0f47bcacfe87722c8bbba872434",
      "function": "mint(address)",
      "arguments": [
        "0xB133a194893434107925682789F16662FB9DB062"
      ],
      "transaction": {
        "from": "0xb133a194893434107925682789f16662fb9db062",
        "to": "0xc807dcad315fe0f47bcacfe87722c8bbba872434",
        "value": "0x0",
        "input": "0x6a627842000000000000000000000000b133a194893434107925682789f16662fb9db062",
        "nonce": "0x5a",
        "chainId": "0x3909"
      },
      "additionalContracts": [],
      "isFixedGasLimit": false
    },
    {
      "hash": "0xf0d6b965df70e8846cfcec0ec1c60099035c9b4ff9a0228e3785361440612cd3",
      "transactionType": "CALL",
      "contractName": null,
      "contractAddress": "0x27060b7b093211fae9edff834e23e6136cd6e10d",
      "function": "mint(address)",
      "arguments": [
        "0xB133a194893434107925682789F16662FB9DB062"
      ],
      "transaction": {
        "from": "0xb133a194893434107925682789f16662fb9db062",
        "to": "0x27060b7b093211fae9edff834e23e6136cd6e10d",
        "value": "0x0",
        "input": "0x6a627842000000000000000000000000b133a194893434107925682789f16662fb9db062",
        "nonce": "0x5b",
        "chainId": "0x3909"
      },
      "additionalContracts": [],
      "isFixedGasLimit": false
    },
    {
      "hash": "0xde5ba269c856e87f4b38b3de82792d63f80b1b59c4bd1ca1170330b95eaa4466",
      "transactionType": "CALL",
      "contractName": null,
      "contractAddress": "0xb851437f508f2b37f840aefc2bff945c6f453f33",
      "function": "mint(address)",
      "arguments": [
        "0xB133a194893434107925682789F16662FB9DB062"
      ],
      "transaction": {
        "from": "0xb133a194893434107925682789f16662fb9db062",
        "to": "0xb851437f508f2b37f840aefc2bff945c6f453f33",
        "value": "0x0",
        "input": "0x6a627842000000000000000000000000b133a194893434107925682789f16662fb9db062",
        "nonce": "0x5c",
        "chainId": "0x3909"
      },
      "additionalContracts": [],
      "isFixedGasLimit": false
    },
    {
      "hash": "0x3b0e50c6c4ce15dbc22b6880e4128b3e16b261a6a2936c46a4f42cf55d6e35a8",
      "transactionType": "CALL",
      "contractName": null,
      "contractAddress": "0xc807dcad315fe0f47bcacfe87722c8bbba872434",
      "function": "mint(address)",
      "arguments": [
        "0xB133a194893434107925682789F16662FB9DB062"
      ],
      "transaction": {
        "from": "0xb133a194893434107925682789f16662fb9db062",
        "to": "0xc807dcad315fe0f47bcacfe87722c8bbba872434",
        "value": "0x0",
        "input": "0x6a627842000000000000000000000000b133a194893434107925682789f16662fb9db062",
        "nonce": "0x5d",
        "chainId": "0x3909"
      },
      "additionalContracts": [],
      "isFixedGasLimit": false
    },
    {
      "hash": "0xb0e53a3845e0ef99423eba1af11c81c0b1e85c3872768cb2862b2ea8fe4619c1",
      "transactionType": "CALL",
      "contractName": null,
      "contractAddress": "0x27060b7b093211fae9edff834e23e6136cd6e10d",
      "function": "mint(address)",
      "arguments": [
        "0xB133a194893434107925682789F16662FB9DB062"
      ],
      "transaction": {
        "from": "0xb133a194893434107925682789f16662fb9db062",
        "to": "0x27060b7b093211fae9edff834e23e6136cd6e10d",
        "value": "0x0",
        "input": "0x6a627842000000000000000000000000b133a194893434107925682789f16662fb9db062",
        "nonce": "0x5e",
        "chainId": "0x3909"
      },
      "additionalContracts": [],
      "isFixedGasLimit": false
    },
    {
      "hash": "0x2af7094b82ce859ea28f67b2923022dbc5a73e8d928f4d81d3a7523d79e396a0",
      "transactionType": "CALL",
      "contractName": null,
      "contractAddress": "0xb851437f508f2b37f840aefc2bff945c6f453f33",
      "function": "mint(address)",
      "arguments": [
        "0xB133a194893434107925682789F16662FB9DB062"
      ],
      "transaction": {
        "from": "0xb133a194893434107925682789f16662fb9db062",
        "to": "0xb851437f508f2b37f840aefc2bff945c6f453f33",
        "value": "0x0",
        "input": "0x6a627842000000000000000000000000b133a194893434107925682789f16662fb9db062",
        "nonce": "0x5f",
        "chainId": "0x3909"
      },
      "additionalContracts": [],
      "isFixedGasLimit": false
    },
    {
      "hash": "0x7ef431703d0b7496fc34089eda4e23d97547181eed20c766b89a20ee1def763c",
      "transactionType": "CALL",
      "contractName": null,
      "contractAddress": "0xc807dcad315fe0f47bcacfe87722c8bbba872434",
      "function": "mint(address)",
      "arguments": [
        "0xB133a194893434107925682789F16662FB9DB062"
      ],
      "transaction": {
        "from": "0xb133a194893434107925682789f16662fb9db062",
        "to": "0xc807dcad315fe0f47bcacfe87722c8bbba872434",
        "value": "0x0",
        "input": "0x6a627842000000000000000000000000b133a194893434107925682789f16662fb9db062",
        "nonce": "0x60",
        "chainId": "0x3909"
      },
      "additionalContracts": [],
      "isFixedGasLimit": false
    }
  ],
  "receipts": [
    {
      "status": "0x1",
      "cumulativeGasUsed": "0x11af3",
      "logs": [
        {
          "address": "0x5b5eabf48591e87ff83df2099826c09931ce55ef",
          "topics": [
            "0xddf252ad1be2c89b69c2b068fc378daa952ba7f163c4a11628f55a4df523b3ef",
            "0x0000000000000000000000000000000000000000000000000000000000000000",
            "0x000000000000000000000000b133a194893434107925682789f16662fb9db062"
          ],
          "data": "0x00000000000000000000000000000000000000000000d3c21bcecceda1000000",
          "blockHash": "0x09b59f4e93a0642fa7422408b80aac8c66892aee176fad660de1ca1360f46e46",
          "blockNumber": "0xc9356f",
          "blockTimestamp": "0x69bdad3d",
          "transactionHash": "0x729a8bfce29393679b94f220d25b73a863ac04db51222d2141e10874e4ffc811",
          "transactionIndex": "0x0",
          "logIndex": "0x0",
          "removed": false
        }
      ],
      "logsBloom": "0x00000000000000000000000000000000000000000020000000000000000000000000000000000000000000000000000000000000000000000000000000000000000000000000000000000008000000000000000000000000000000000000000000000000020000010000000000000800000000000000000000000010000000000000000000000008000000000000000000000000000000000000000000000040000000000000000000000000020000000000000000000000008000000000000000000002000000000000000000000000000000000000000000000000000020000000000000000000000000000000000000000000000000000000000000000000",
      "type": "0x0",
      "transactionHash": "0x729a8bfce29393679b94f220d25b73a863ac04db51222d2141e10874e4ffc811",
      "transactionIndex": "0x0",
      "blockHash": "0x09b59f4e93a0642fa7422408b80aac8c66892aee176fad660de1ca1360f46e46",
      "blockNumber": "0xc9356f",
      "gasUsed": "0x11af3",
      "effectiveGasPrice": "0x4190ab00",
      "from": "0xb133a194893434107925682789f16662fb9db062",
      "to": "0x5b5eabf48591e87ff83df2099826c09931ce55ef",
      "contractAddress": null
    },
    {
      "status": "0x1",
      "cumulativeGasUsed": "0x56cad",
      "logs": [
        {
          "address": "0x4e063fd125d32b79f2563bc70e73d2975e2aacd8",
          "topics": [
            "0xddf252ad1be2c89b69c2b068fc378daa952ba7f163c4a11628f55a4df523b3ef",
            "0x0000000000000000000000000000000000000000000000000000000000000000",
            "0x000000000000000000000000b133a194893434107925682789f16662fb9db062"
          ],
          "data": "0x000000000000000000000000000000000000000000000000000000e8d4a51000",
          "blockHash": "0xb9e5a30a3eff67d6665ff90bd6cb9fc3328d21d39e146bf1e4ee42b88272bb9b",
          "blockNumber": "0xc93571",
          "blockTimestamp": "0x69bdad41",
          "transactionHash": "0xa5000d2b6787f155245f0f1e61d9979b1cdf879dc0b8d23eb11bc4ec3fbb5c88",
          "transactionIndex": "0x1",
          "logIndex": "0x3",
          "removed": false
        }
      ],
      "logsBloom": "0x00000000000000000000000000000000000000200000000000000000000000000000000000000000000000000000000000000000000000000000000000000000000000000000000000000008000000000000000000000000000000000000008000000000020000010000000000000800000000000000000000000010000000000000000000000008000000000000000000000000000000000000000000000000000000000000000000000000000000000000000000000000008080000000000000000002000000000000000000000000000000000000000000000000000020000000000000000000000000000000000000000000000000000000000000000000",
      "type": "0x0",
      "transactionHash": "0xa5000d2b6787f155245f0f1e61d9979b1cdf879dc0b8d23eb11bc4ec3fbb5c88",
      "transactionIndex": "0x1",
      "blockHash": "0xb9e5a30a3eff67d6665ff90bd6cb9fc3328d21d39e146bf1e4ee42b88272bb9b",
      "blockNumber": "0xc93571",
      "gasUsed": "0x11ace",
      "effectiveGasPrice": "0x4190ab00",
      "from": "0xb133a194893434107925682789f16662fb9db062",
      "to": "0x4e063fd125d32b79f2563bc70e73d2975e2aacd8",
      "contractAddress": null
    },
    {
      "status": "0x1",
      "cumulativeGasUsed": "0x11ace",
      "logs": [
        {
          "address": "0xb31f4cafa2947e1f7f2d735a93401ab8ffcb4265",
          "topics": [
            "0xddf252ad1be2c89b69c2b068fc378daa952ba7f163c4a11628f55a4df523b3ef",
            "0x0000000000000000000000000000000000000000000000000000000000000000",
            "0x000000000000000000000000b133a194893434107925682789f16662fb9db062"
          ],
          "data": "0x000000000000000000000000000000000000000000000000000000e8d4a51000",
          "blockHash": "0xbc324dbe79f200acf4ba8f8eed1d0055c650292b26eb049a105bad529852ae53",
          "blockNumber": "0xc93573",
          "blockTimestamp": "0x69bdad45",
          "transactionHash": "0xadb77be83b90ba4a2356f61b79eebf211c61e01fd03f3cd4eca0e598ba5fb90c",
          "transactionIndex": "0x0",
          "logIndex": "0x0",
          "removed": false
        }
      ],
      "logsBloom": "0x00000000000000000000000000000000000000000000000000000000000000000000000000000000000000000000000000000000000000000000000000000000000000000000000000000008000000000000000000000000000000000000000000000000020000010000000000000800800000000000000000000010000000000000000000000008000000000000000000000002000000000000000000000000000000000000000000000000000000000000000000000000008000000000000000000002000000000000000000000000000000000000000000000000000028000000000000000000000000000000000000000000000000000000000000000000",
      "type": "0x0",
      "transactionHash": "0xadb77be83b90ba4a2356f61b79eebf211c61e01fd03f3cd4eca0e598ba5fb90c",
      "transactionIndex": "0x0",
      "blockHash": "0xbc324dbe79f200acf4ba8f8eed1d0055c650292b26eb049a105bad529852ae53",
      "blockNumber": "0xc93573",
      "gasUsed": "0x11ace",
      "effectiveGasPrice": "0x4190ab00",
      "from": "0xb133a194893434107925682789f16662fb9db062",
      "to": "0xb31f4cafa2947e1f7f2d735a93401ab8ffcb4265",
      "contractAddress": null
    },
    {
      "status": "0x1",
      "cumulativeGasUsed": "0x175dc",
      "logs": [
        {
          "address": "0x27060b7b093211fae9edff834e23e6136cd6e10d",
          "topics": [
            "0xddf252ad1be2c89b69c2b068fc378daa952ba7f163c4a11628f55a4df523b3ef",
            "0x0000000000000000000000000000000000000000000000000000000000000000",
            "0x000000000000000000000000b133a194893434107925682789f16662fb9db062",
            "0x0000000000000000000000000000000000000000000000000000000000000001"
          ],
          "data": "0x",
          "blockHash": "0x985cb85fbbe8d32bde2e236f2e9736c51d07ca629201465974384365d50d43ba",
          "blockNumber": "0xc93576",
          "blockTimestamp": "0x69bdad48",
          "transactionHash": "0x91fc7d74ef5dac86f85e2fd5a75812b25b407b392ed85e57ca7474194f545164",
          "transactionIndex": "0x0",
          "logIndex": "0x0",
          "removed": false
        }
      ],
      "logsBloom": "0x00000000000000000000000000000000000000000000000000000000000000000000000000001000000000000000000000000000000000000000000000040000000000000000000000000008000000000000000000040000000000000000000000000000020200010000000000000800000000000000000000000010000000000000000000000008000000000000000000000000000000000000000000000000000000000000000000000000000000000000000000000000008000000000000000000002000000000000000000000040000000000000000000000000000060000000000000000000000000000000000000000000000000000000000000000000",
      "type": "0x0",
      "transactionHash": "0x91fc7d74ef5dac86f85e2fd5a75812b25b407b392ed85e57ca7474194f545164",
      "transactionIndex": "0x0",
      "blockHash": "0x985cb85fbbe8d32bde2e236f2e9736c51d07ca629201465974384365d50d43ba",
      "blockNumber": "0xc93576",
      "gasUsed": "0x175dc",
      "effectiveGasPrice": "0x4190ab00",
      "from": "0xb133a194893434107925682789f16662fb9db062",
      "to": "0x27060b7b093211fae9edff834e23e6136cd6e10d",
      "contractAddress": null
    },
    {
      "status": "0x1",
      "cumulativeGasUsed": "0x175dc",
      "logs": [
        {
          "address": "0xb851437f508f2b37f840aefc2bff945c6f453f33",
          "topics": [
            "0xddf252ad1be2c89b69c2b068fc378daa952ba7f163c4a11628f55a4df523b3ef",
            "0x0000000000000000000000000000000000000000000000000000000000000000",
            "0x000000000000000000000000b133a194893434107925682789f16662fb9db062",
            "0x0000000000000000000000000000000000000000000000000000000000000001"
          ],
          "data": "0x",
          "blockHash": "0xc9d7123d7ddb6701e00c6b2b8eb8387b655e1ed2f7d1be5c01494874487944f2",
          "blockNumber": "0xc93578",
          "blockTimestamp": "0x69bdad4c",
          "transactionHash": "0x4e97dc916a42d8223b062e86db740c8dd416a5a51b7fb1cb4738347d504a30e8",
          "transactionIndex": "0x0",
          "logIndex": "0x0",
          "removed": false
        }
      ],
      "logsBloom": "0x00000000000000000000000000000000000000000000000000000000000000000000000000000000020000002000000000000000000000000000000000040000000000000000000000000008000000000000000000040000000000000000000000000000020000010000000000000800000000000000000000000010000000000000000000000008000000000000000000000000000000000000000000000000000000000000000000000000000000000000000100000000008000000000000000000002000000000000000000000000000000000000000000000000000060000000000000000000000000000000000000000000000000000000000000000000",
      "type": "0x0",
      "transactionHash": "0x4e97dc916a42d8223b062e86db740c8dd416a5a51b7fb1cb4738347d504a30e8",
      "transactionIndex": "0x0",
      "blockHash": "0xc9d7123d7ddb6701e00c6b2b8eb8387b655e1ed2f7d1be5c01494874487944f2",
      "blockNumber": "0xc93578",
      "gasUsed": "0x175dc",
      "effectiveGasPrice": "0x4190ab00",
      "from": "0xb133a194893434107925682789f16662fb9db062",
      "to": "0xb851437f508f2b37f840aefc2bff945c6f453f33",
      "contractAddress": null
    },
    {
      "status": "0x1",
      "cumulativeGasUsed": "0x6a9d1",
      "logs": [
        {
          "address": "0xc807dcad315fe0f47bcacfe87722c8bbba872434",
          "topics": [
            "0xddf252ad1be2c89b69c2b068fc378daa952ba7f163c4a11628f55a4df523b3ef",
            "0x0000000000000000000000000000000000000000000000000000000000000000",
            "0x000000000000000000000000b133a194893434107925682789f16662fb9db062",
            "0x0000000000000000000000000000000000000000000000000000000000000001"
          ],
          "data": "0x",
          "blockHash": "0xc854228cf68056c9482d0246562d93adf0ae592a4e1d32a1a72be7b9f96db157",
          "blockNumber": "0xc9357b",
          "blockTimestamp": "0x69bdad50",
          "transactionHash": "0x620210442abede5f7da9f792f0b0ac5121c41d80b5b30daee049a029aafef9d6",
          "transactionIndex": "0x3",
          "logIndex": "0x3",
          "removed": false
        }
      ],
      "logsBloom": "0x00000000000000000000000000000000000000000000000000000000000000000000000000000000000000000000000000000000000000000000000000040000000000000000000000000008000000000000000020040000000000000000000000000000020000010000000200000800000000000000000000000010000000000000000000000008000000000000000000000000000000000000000000000000000000000000000000000000000000000000000000000000008000000000020000000002000000000000000000000000000000000000000000000000000060000000000000000000000000000000000000000000000000000000000000000000",
      "type": "0x0",
      "transactionHash": "0x620210442abede5f7da9f792f0b0ac5121c41d80b5b30daee049a029aafef9d6",
      "transactionIndex": "0x3",
      "blockHash": "0xc854228cf68056c9482d0246562d93adf0ae592a4e1d32a1a72be7b9f96db157",
      "blockNumber": "0xc9357b",
      "gasUsed": "0x175dc",
      "effectiveGasPrice": "0x4190ab00",
      "from": "0xb133a194893434107925682789f16662fb9db062",
      "to": "0xc807dcad315fe0f47bcacfe87722c8bbba872434",
      "contractAddress": null
    },
    {
      "status": "0x1",
      "cumulativeGasUsed": "0xec42",
      "logs": [
        {
          "address": "0x27060b7b093211fae9edff834e23e6136cd6e10d",
          "topics": [
            "0xddf252ad1be2c89b69c2b068fc378daa952ba7f163c4a11628f55a4df523b3ef",
            "0x0000000000000000000000000000000000000000000000000000000000000000",
            "0x000000000000000000000000b133a194893434107925682789f16662fb9db062",
            "0x0000000000000000000000000000000000000000000000000000000000000002"
          ],
          "data": "0x",
          "blockHash": "0x40909e3904925262b106fe4d746dd548ba14c8cb3d6ff8803aaecda73c32615b",
          "blockNumber": "0xc9357d",
          "blockTimestamp": "0x69bdad53",
          "transactionHash": "0x1228a49585cf27f7ad75dca743ceffb49d0e4650bb3a89d962487ae8f3b61b94",
          "transactionIndex": "0x0",
          "logIndex": "0x0",
          "removed": false
        }
      ],
      "logsBloom": "0x04000000000000000000000000000000000000000000000000000000000000000000000000001000000000000000000000000000000000000000000000000000000000000000000000000008000000000000000000000000000000000000000000000000020200010000000000000800000000000000000000000010000000000000000000000008000000000000000000000000000000000000000000000000000000000000000000000100000000000000000000000000008000000000000000000002000000000000000000000040000000000000000000000000000020000000000000000000000000000000000000000000008000000000000000000000",
      "type": "0x0",
      "transactionHash": "0x1228a49585cf27f7ad75dca743ceffb49d0e4650bb3a89d962487ae8f3b61b94",
      "transactionIndex": "0x0",
      "blockHash": "0x40909e3904925262b106fe4d746dd548ba14c8cb3d6ff8803aaecda73c32615b",
      "blockNumber": "0xc9357d",
      "gasUsed": "0xec42",
      "effectiveGasPrice": "0x4190ab00",
      "from": "0xb133a194893434107925682789f16662fb9db062",
      "to": "0x27060b7b093211fae9edff834e23e6136cd6e10d",
      "contractAddress": null
    },
    {
      "status": "0x1",
      "cumulativeGasUsed": "0x8ccfa",
      "logs": [
        {
          "address": "0xb851437f508f2b37f840aefc2bff945c6f453f33",
          "topics": [
            "0xddf252ad1be2c89b69c2b068fc378daa952ba7f163c4a11628f55a4df523b3ef",
            "0x0000000000000000000000000000000000000000000000000000000000000000",
            "0x000000000000000000000000b133a194893434107925682789f16662fb9db062",
            "0x0000000000000000000000000000000000000000000000000000000000000002"
          ],
          "data": "0x",
          "blockHash": "0xd38b721c73f30981c74a3ba609cebbadbbcb483ea91fa61ed40c1019bbfa1df3",
          "blockNumber": "0xc9357e",
          "blockTimestamp": "0x69bdad57",
          "transactionHash": "0xef8fb522ecfad38758266623944851403968948307c0ea14a8812afa662a8471",
          "transactionIndex": "0x2",
          "logIndex": "0x8",
          "removed": false
        }
      ],
      "logsBloom": "0x04000000000000000000000000000000000000000000000000000000000000000000000000000000020000002000000000000000000000000000000000000000000000000000000000000008000000000000000000000000000000000000000000000000020000010000000000000800000000000000000000000010000000000000000000000008000000000000000000000000000000000000000000000000000000000000000000000100000000000000000100000000008000000000000000000002000000000000000000000000000000000000000000000000000020000000000000000000000000000000000000000000008000000000000000000000",
      "type": "0x0",
      "transactionHash": "0xef8fb522ecfad38758266623944851403968948307c0ea14a8812afa662a8471",
      "transactionIndex": "0x2",
      "blockHash": "0xd38b721c73f30981c74a3ba609cebbadbbcb483ea91fa61ed40c1019bbfa1df3",
      "blockNumber": "0xc9357e",
      "gasUsed": "0xec42",
      "effectiveGasPrice": "0x4190ab00",
      "from": "0xb133a194893434107925682789f16662fb9db062",
      "to": "0xb851437f508f2b37f840aefc2bff945c6f453f33",
      "contractAddress": null
    },
    {
      "status": "0x1",
      "cumulativeGasUsed": "0xec42",
      "logs": [
        {
          "address": "0xc807dcad315fe0f47bcacfe87722c8bbba872434",
          "topics": [
            "0xddf252ad1be2c89b69c2b068fc378daa952ba7f163c4a11628f55a4df523b3ef",
            "0x0000000000000000000000000000000000000000000000000000000000000000",
            "0x000000000000000000000000b133a194893434107925682789f16662fb9db062",
            "0x0000000000000000000000000000000000000000000000000000000000000002"
          ],
          "data": "0x",
          "blockHash": "0x9ca8e1b0b4693d36ec10ca46517445f6cb0fa311a810202d545db66e6684f723",
          "blockNumber": "0xc93581",
          "blockTimestamp": "0x69bdad5b",
          "transactionHash": "0xe2aecec106370e8a9a3632f1e4ca722d09ad3323869462b958a26dfaa180f13a",
          "transactionIndex": "0x0",
          "logIndex": "0x0",
          "removed": false
        }
      ],
      "logsBloom": "0x04000000000000000000000000000000000000000000000000000000000000000000000000000000000000000000000000000000000000000000000000000000000000000000000000000008000000000000000020000000000000000000000000000000020000010000000200000800000000000000000000000010000000000000000000000008000000000000000000000000000000000000000000000000000000000000000000000100000000000000000000000000008000000000020000000002000000000000000000000000000000000000000000000000000020000000000000000000000000000000000000000000008000000000000000000000",
      "type": "0x0",
      "transactionHash": "0xe2aecec106370e8a9a3632f1e4ca722d09ad3323869462b958a26dfaa180f13a",
      "transactionIndex": "0x0",
      "blockHash": "0x9ca8e1b0b4693d36ec10ca46517445f6cb0fa311a810202d545db66e6684f723",
      "blockNumber": "0xc93581",
      "gasUsed": "0xec42",
      "effectiveGasPrice": "0x4190ab00",
      "from": "0xb133a194893434107925682789f16662fb9db062",
      "to": "0xc807dcad315fe0f47bcacfe87722c8bbba872434",
      "contractAddress": null
    },
    {
      "status": "0x1",
      "cumulativeGasUsed": "0xec42",
      "logs": [
        {
          "address": "0x27060b7b093211fae9edff834e23e6136cd6e10d",
          "topics": [
            "0xddf252ad1be2c89b69c2b068fc378daa952ba7f163c4a11628f55a4df523b3ef",
            "0x0000000000000000000000000000000000000000000000000000000000000000",
            "0x000000000000000000000000b133a194893434107925682789f16662fb9db062",
            "0x0000000000000000000000000000000000000000000000000000000000000003"
          ],
          "data": "0x",
          "blockHash": "0x4a0e165cbb42095e557292eb115a006ffee9caa36058d1232f50adc7597fca47",
          "blockNumber": "0xc93583",
          "blockTimestamp": "0x69bdad5f",
          "transactionHash": "0x120621288048e7a04640dd0342dca42d8ec83df0615b7e77ad60df28fc9656ed",
          "transactionIndex": "0x0",
          "logIndex": "0x0",
          "removed": false
        }
      ],
      "logsBloom": "0x00000000000000000000000000000000000000000000000000000000000000000000000000001000000000000000000000000000020000000000000000000000000000000000000000000008000000000000000000000000000000000000000000000000020200010000000000000800000000000000000000000010000000000000000000000008000000000000000000000000000000000000000000000000000000000000000000000000000000000000000000800000008000000000400000000002000000000000000000000040000000000000000000000000000020000000000000000000000000000000000000000000000000000000000000000000",
      "type": "0x0",
      "transactionHash": "0x120621288048e7a04640dd0342dca42d8ec83df0615b7e77ad60df28fc9656ed",
      "transactionIndex": "0x0",
      "blockHash": "0x4a0e165cbb42095e557292eb115a006ffee9caa36058d1232f50adc7597fca47",
      "blockNumber": "0xc93583",
      "gasUsed": "0xec42",
      "effectiveGasPrice": "0x4190ab00",
      "from": "0xb133a194893434107925682789f16662fb9db062",
      "to": "0x27060b7b093211fae9edff834e23e6136cd6e10d",
      "contractAddress": null
    },
    {
      "status": "0x1",
      "cumulativeGasUsed": "0x1d782",
      "logs": [
        {
          "address": "0xb851437f508f2b37f840aefc2bff945c6f453f33",
          "topics": [
            "0xddf252ad1be2c89b69c2b068fc378daa952ba7f163c4a11628f55a4df523b3ef",
            "0x0000000000000000000000000000000000000000000000000000000000000000",
            "0x000000000000000000000000b133a194893434107925682789f16662fb9db062",
            "0x0000000000000000000000000000000000000000000000000000000000000003"
          ],
          "data": "0x",
          "blockHash": "0xa486f59b3d49c12a381f1488db3b8b25d0bfeeaa147407a23186f042a2601d26",
          "blockNumber": "0xc93585",
          "blockTimestamp": "0x69bdad63",
          "transactionHash": "0xdbaa662a8a3bdec3e9b5e6c019c5f3d9d0971dae62bbf000004fc33653904e8c",
          "transactionIndex": "0x2",
          "logIndex": "0x0",
          "removed": false
        }
      ],
      "logsBloom": "0x00000000000000000000000000000000000000000000000000000000000000000000000000000000020000002000000000000000020000000000000000000000000000000000000000000008000000000000000000000000000000000000000000000000020000010000000000000800000000000000000000000010000000000000000000000008000000000000000000000000000000000000000000000000000000000000000000000000000000000000000100800000008000000000400000000002000000000000000000000000000000000000000000000000000020000000000000000000000000000000000000000000000000000000000000000000",
      "type": "0x0",
      "transactionHash": "0xdbaa662a8a3bdec3e9b5e6c019c5f3d9d0971dae62bbf000004fc33653904e8c",
      "transactionIndex": "0x2",
      "blockHash": "0xa486f59b3d49c12a381f1488db3b8b25d0bfeeaa147407a23186f042a2601d26",
      "blockNumber": "0xc93585",
      "gasUsed": "0xec42",
      "effectiveGasPrice": "0x4190ab00",
      "from": "0xb133a194893434107925682789f16662fb9db062",
      "to": "0xb851437f508f2b37f840aefc2bff945c6f453f33",
      "contractAddress": null
    },
    {
      "status": "0x1",
      "cumulativeGasUsed": "0xec42",
      "logs": [
        {
          "address": "0xc807dcad315fe0f47bcacfe87722c8bbba872434",
          "topics": [
            "0xddf252ad1be2c89b69c2b068fc378daa952ba7f163c4a11628f55a4df523b3ef",
            "0x0000000000000000000000000000000000000000000000000000000000000000",
            "0x000000000000000000000000b133a194893434107925682789f16662fb9db062",
            "0x0000000000000000000000000000000000000000000000000000000000000003"
          ],
          "data": "0x",
          "blockHash": "0x513ffb207b40fe53e0744ee8c0c5a00ac895987d781622f27c0fdd3be054db0c",
          "blockNumber": "0xc93588",
          "blockTimestamp": "0x69bdad66",
          "transactionHash": "0xd5cd0ed65df8528c71ea4f377cee667161fdf029b30861e5ff2c6e7af96baba7",
          "transactionIndex": "0x0",
          "logIndex": "0x0",
          "removed": false
        }
      ],
      "logsBloom": "0x00000000000000000000000000000000000000000000000000000000000000000000000000000000000000000000000000000000020000000000000000000000000000000000000000000008000000000000000020000000000000000000000000000000020000010000000200000800000000000000000000000010000000000000000000000008000000000000000000000000000000000000000000000000000000000000000000000000000000000000000000800000008000000000420000000002000000000000000000000000000000000000000000000000000020000000000000000000000000000000000000000000000000000000000000000000",
      "type": "0x0",
      "transactionHash": "0xd5cd0ed65df8528c71ea4f377cee667161fdf029b30861e5ff2c6e7af96baba7",
      "transactionIndex": "0x0",
      "blockHash": "0x513ffb207b40fe53e0744ee8c0c5a00ac895987d781622f27c0fdd3be054db0c",
      "blockNumber": "0xc93588",
      "gasUsed": "0xec42",
      "effectiveGasPrice": "0x4190ab00",
      "from": "0xb133a194893434107925682789f16662fb9db062",
      "to": "0xc807dcad315fe0f47bcacfe87722c8bbba872434",
      "contractAddress": null
    },
    {
      "status": "0x1",
      "cumulativeGasUsed": "0x13e4a",
      "logs": [
        {
          "address": "0x27060b7b093211fae9edff834e23e6136cd6e10d",
          "topics": [
            "0xddf252ad1be2c89b69c2b068fc378daa952ba7f163c4a11628f55a4df523b3ef",
            "0x0000000000000000000000000000000000000000000000000000000000000000",
            "0x000000000000000000000000b133a194893434107925682789f16662fb9db062",
            "0x0000000000000000000000000000000000000000000000000000000000000004"
          ],
          "data": "0x",
          "blockHash": "0xbea61c1b6b7b3da9d5d350cd0f495e176b917e4a43daeab718f8ff86bb61ce84",
          "blockNumber": "0xc9358a",
          "blockTimestamp": "0x69bdad6a",
          "transactionHash": "0xf0d6b965df70e8846cfcec0ec1c60099035c9b4ff9a0228e3785361440612cd3",
          "transactionIndex": "0x1",
          "logIndex": "0x0",
          "removed": false
        }
      ],
      "logsBloom": "0x0000000000000000000000000000000000000000000000000000000000000000000000000000100000000000000000000000000000000000000000000000000000000000000000000000000800000000000000000000000000000000000000000800000002020001000000000000080000000000000000000000001000000000000000000000000800000000000000000000000000000000000000000000000000000000000000000000000000000000000000000000000000a000000000000000000002000000000000000000000040000000008000000000000000000020000000000000000000000000000000000000000000000000000000000000000000",
      "type": "0x0",
      "transactionHash": "0xf0d6b965df70e8846cfcec0ec1c60099035c9b4ff9a0228e3785361440612cd3",
      "transactionIndex": "0x1",
      "blockHash": "0xbea61c1b6b7b3da9d5d350cd0f495e176b917e4a43daeab718f8ff86bb61ce84",
      "blockNumber": "0xc9358a",
      "gasUsed": "0xec42",
      "effectiveGasPrice": "0x4190ab00",
      "from": "0xb133a194893434107925682789f16662fb9db062",
      "to": "0x27060b7b093211fae9edff834e23e6136cd6e10d",
      "contractAddress": null
    },
    {
      "status": "0x1",
      "cumulativeGasUsed": "0x89d5f",
      "logs": [
        {
          "address": "0xb851437f508f2b37f840aefc2bff945c6f453f33",
          "topics": [
            "0xddf252ad1be2c89b69c2b068fc378daa952ba7f163c4a11628f55a4df523b3ef",
            "0x0000000000000000000000000000000000000000000000000000000000000000",
            "0x000000000000000000000000b133a194893434107925682789f16662fb9db062",
            "0x0000000000000000000000000000000000000000000000000000000000000004"
          ],
          "data": "0x",
          "blockHash": "0xd74e632415c85bdae3791305329aa31f8019a5ff65caf8a151e288eaf4483ffd",
          "blockNumber": "0xc9358c",
          "blockTimestamp": "0x69bdad6f",
          "transactionHash": "0xde5ba269c856e87f4b38b3de82792d63f80b1b59c4bd1ca1170330b95eaa4466",
          "transactionIndex": "0x2",
          "logIndex": "0x7",
          "removed": false
        }
      ],
      "logsBloom": "0x0000000000000000000000000000000000000000000000000000000000000000000000000000000002000000200000000000000000000000000000000000000000000000000000000000000800000000000000000000000000000000000000000800000002000001000000000000080000000000000000000000001000000000000000000000000800000000000000000000000000000000000000000000000000000000000000000000000000000000000000010000000000a000000000000000000002000000000000000000000000000000008000000000000000000020000000000000000000000000000000000000000000000000000000000000000000",
      "type": "0x0",
      "transactionHash": "0xde5ba269c856e87f4b38b3de82792d63f80b1b59c4bd1ca1170330b95eaa4466",
      "transactionIndex": "0x2",
      "blockHash": "0xd74e632415c85bdae3791305329aa31f8019a5ff65caf8a151e288eaf4483ffd",
      "blockNumber": "0xc9358c",
      "gasUsed": "0xec42",
      "effectiveGasPrice": "0x4190ab00",
      "from": "0xb133a194893434107925682789f16662fb9db062",
      "to": "0xb851437f508f2b37f840aefc2bff945c6f453f33",
      "contractAddress": null
    },
    {
      "status": "0x1",
      "cumulativeGasUsed": "0xec42",
      "logs": [
        {
          "address": "0xc807dcad315fe0f47bcacfe87722c8bbba872434",
          "topics": [
            "0xddf252ad1be2c89b69c2b068fc378daa952ba7f163c4a11628f55a4df523b3ef",
            "0x0000000000000000000000000000000000000000000000000000000000000000",
            "0x000000000000000000000000b133a194893434107925682789f16662fb9db062",
            "0x0000000000000000000000000000000000000000000000000000000000000004"
          ],
          "data": "0x",
          "blockHash": "0x4389c8611becf1c37aa74c53063296355917fa45cc3ba150ec1e1a97561d97f1",
          "blockNumber": "0xc9358f",
          "blockTimestamp": "0x69bdad73",
          "transactionHash": "0x3b0e50c6c4ce15dbc22b6880e4128b3e16b261a6a2936c46a4f42cf55d6e35a8",
          "transactionIndex": "0x0",
          "logIndex": "0x0",
          "removed": false
        }
      ],
      "logsBloom": "0x0000000000000000000000000000000000000000000000000000000000000000000000000000000000000000000000000000000000000000000000000000000000000000000000000000000800000000000000002000000000000000000000000800000002000001000000020000080000000000000000000000001000000000000000000000000800000000000000000000000000000000000000000000000000000000000000000000000000000000000000000000000000a000000000020000000002000000000000000000000000000000008000000000000000000020000000000000000000000000000000000000000000000000000000000000000000",
      "type": "0x0",
      "transactionHash": "0x3b0e50c6c4ce15dbc22b6880e4128b3e16b261a6a2936c46a4f42cf55d6e35a8",
      "transactionIndex": "0x0",
      "blockHash": "0x4389c8611becf1c37aa74c53063296355917fa45cc3ba150ec1e1a97561d97f1",
      "blockNumber": "0xc9358f",
      "gasUsed": "0xec42",
      "effectiveGasPrice": "0x4190ab00",
      "from": "0xb133a194893434107925682789f16662fb9db062",
      "to": "0xc807dcad315fe0f47bcacfe87722c8bbba872434",
      "contractAddress": null
    },
    {
      "status": "0x1",
      "cumulativeGasUsed": "0xec42",
      "logs": [
        {
          "address": "0x27060b7b093211fae9edff834e23e6136cd6e10d",
          "topics": [
            "0xddf252ad1be2c89b69c2b068fc378daa952ba7f163c4a11628f55a4df523b3ef",
            "0x0000000000000000000000000000000000000000000000000000000000000000",
            "0x000000000000000000000000b133a194893434107925682789f16662fb9db062",
            "0x0000000000000000000000000000000000000000000000000000000000000005"
          ],
          "data": "0x",
          "blockHash": "0x0bbf3edcf95ee351db8fca339bb524cebb39736fb6c5eb7656630c3b91e187e8",
          "blockNumber": "0xc93591",
          "blockTimestamp": "0x69bdad76",
          "transactionHash": "0xb0e53a3845e0ef99423eba1af11c81c0b1e85c3872768cb2862b2ea8fe4619c1",
          "transactionIndex": "0x0",
          "logIndex": "0x0",
          "removed": false
        }
      ],
      "logsBloom": "0x00000000000000000000000000000000000000000000000000000000000000000000000000001000000000000000000000000000000000000000000000000000000010000000000000000008000000000000000000000000000000000000000000000000020200010000000000000800000000000000000000000010000000000000000000000008000000000000001000000800000000000000000000000000000000000000000000000000000000000000000000000000008000000000000000000002000000000000000000000040000000000000000000000000000020000000000000000000000000000000000000000000000000000000000000000000",
      "type": "0x0",
      "transactionHash": "0xb0e53a3845e0ef99423eba1af11c81c0b1e85c3872768cb2862b2ea8fe4619c1",
      "transactionIndex": "0x0",
      "blockHash": "0x0bbf3edcf95ee351db8fca339bb524cebb39736fb6c5eb7656630c3b91e187e8",
      "blockNumber": "0xc93591",
      "gasUsed": "0xec42",
      "effectiveGasPrice": "0x4190ab00",
      "from": "0xb133a194893434107925682789f16662fb9db062",
      "to": "0x27060b7b093211fae9edff834e23e6136cd6e10d",
      "contractAddress": null
    },
    {
      "status": "0x1",
      "cumulativeGasUsed": "0xec42",
      "logs": [
        {
          "address": "0xb851437f508f2b37f840aefc2bff945c6f453f33",
          "topics": [
            "0xddf252ad1be2c89b69c2b068fc378daa952ba7f163c4a11628f55a4df523b3ef",
            "0x0000000000000000000000000000000000000000000000000000000000000000",
            "0x000000000000000000000000b133a194893434107925682789f16662fb9db062",
            "0x0000000000000000000000000000000000000000000000000000000000000005"
          ],
          "data": "0x",
          "blockHash": "0xeac682d89471ef2104eb45000c38da2a3a893eb9d3044e1e2b53df1134a8a687",
          "blockNumber": "0xc93594",
          "blockTimestamp": "0x69bdad7a",
          "transactionHash": "0x2af7094b82ce859ea28f67b2923022dbc5a73e8d928f4d81d3a7523d79e396a0",
          "transactionIndex": "0x0",
          "logIndex": "0x0",
          "removed": false
        }
      ],
      "logsBloom": "0x00000000000000000000000000000000000000000000000000000000000000000000000000000000020000002000000000000000000000000000000000000000000010000000000000000008000000000000000000000000000000000000000000000000020000010000000000000800000000000000000000000010000000000000000000000008000000000000001000000800000000000000000000000000000000000000000000000000000000000000000100000000008000000000000000000002000000000000000000000000000000000000000000000000000020000000000000000000000000000000000000000000000000000000000000000000",
      "type": "0x0",
      "transactionHash": "0x2af7094b82ce859ea28f67b2923022dbc5a73e8d928f4d81d3a7523d79e396a0",
      "transactionIndex": "0x0",
      "blockHash": "0xeac682d89471ef2104eb45000c38da2a3a893eb9d3044e1e2b53df1134a8a687",
      "blockNumber": "0xc93594",
      "gasUsed": "0xec42",
      "effectiveGasPrice": "0x4190ab00",
      "from": "0xb133a194893434107925682789f16662fb9db062",
      "to": "0xb851437f508f2b37f840aefc2bff945c6f453f33",
      "contractAddress": null
    },
    {
      "status": "0x1",
      "cumulativeGasUsed": "0xec42",
      "logs": [
        {
          "address": "0xc807dcad315fe0f47bcacfe87722c8bbba872434",
          "topics": [
            "0xddf252ad1be2c89b69c2b068fc378daa952ba7f163c4a11628f55a4df523b3ef",
            "0x0000000000000000000000000000000000000000000000000000000000000000",
            "0x000000000000000000000000b133a194893434107925682789f16662fb9db062",
            "0x0000000000000000000000000000000000000000000000000000000000000005"
          ],
          "data": "0x",
          "blockHash": "0x122254c919dd7eae32bfc51e400e8d968a6159b0bb4c65c8f34c937d100eb127",
          "blockNumber": "0xc93597",
          "blockTimestamp": "0x69bdad7f",
          "transactionHash": "0x7ef431703d0b7496fc34089eda4e23d97547181eed20c766b89a20ee1def763c",
          "transactionIndex": "0x0",
          "logIndex": "0x0",
          "removed": false
        }
      ],
      "logsBloom": "0x00000000000000000000000000000000000000000000000000000000000000000000000000000000000000000000000000000000000000000000000000000000000010000000000000000008000000000000000020000000000000000000000000000000020000010000000200000800000000000000000000000010000000000000000000000008000000000000001000000800000000000000000000000000000000000000000000000000000000000000000000000000008000000000020000000002000000000000000000000000000000000000000000000000000020000000000000000000000000000000000000000000000000000000000000000000",
      "type": "0x0",
      "transactionHash": "0x7ef431703d0b7496fc34089eda4e23d97547181eed20c766b89a20ee1def763c",
      "transactionIndex": "0x0",
      "blockHash": "0x122254c919dd7eae32bfc51e400e8d968a6159b0bb4c65c8f34c937d100eb127",
      "blockNumber": "0xc93597",
      "gasUsed": "0xec42",
      "effectiveGasPrice": "0x4190ab00",
      "from": "0xb133a194893434107925682789f16662fb9db062",
      "to": "0xc807dcad315fe0f47bcacfe87722c8bbba872434",
      "contractAddress": null
    }
  ],
  "libraries": [],
  "pending": [],
  "returns": {},
  "timestamp": 1774042225272,
  "chain": 14601,
  "commit": "f05ef33"
}