{
  "transactions": [
    {
      "hash": "0xc0de955b6049973e90bffb0dcdc7795ad0804d2c9ea0396118b3802f919cd809",
      "transactionType": "CALL",
      "contractName": null,
      "contractAddress": "0x12d3f50694e8b5a0549f3f8b7bba78011feaffd7",
      "function": "registerReactiveContract(address)",
      "arguments": [
        "0x6eb88ac084a0643BC20acad7C09170445D3ce535"
      ],
      "transaction": {
        "from": "0xb133a194893434107925682789f16662fb9db062",
        "to": "0x12d3f50694e8b5a0549f3f8b7bba78011feaffd7",
        "value": "0x0",
        "input": "0xec3647550000000000000000000000006eb88ac084a0643bc20acad7c09170445d3ce535",
        "nonce": "0xe6",
        "chainId": "0x512577"
      },
      "additionalContracts": [],
      "isFixedGasLimit": false
    }
  ],
  "receipts": [
    {
      "status": "0x1",
      "cumulativeGasUsed": "0x1e103",
      "logs": [
        {
          "address": "0x12d3f50694e8b5a0549f3f8b7bba78011feaffd7",
          "topics": [
            "0x6899f537de8826f5e893752eade33397c7be98b908e5858a18ba25da7a2c622b",
            "0x0000000000000000000000006eb88ac084a0643bc20acad7c09170445d3ce535"
          ],
          "data": "0x0000000000000000000000000000000000000000000000000000000000000001",
          "blockHash": "0x502702119e0d899d1d7fde4000e69c52cd905762a43219a14d3bc3c3c90eebb7",
          "blockNumber": "0x1fb0ed",
          "blockTimestamp": "0x696e7372",
          "transactionHash": "0xc0de955b6049973e90bffb0dcdc7795ad0804d2c9ea0396118b3802f919cd809",
          "transactionIndex": "0x1",
          "logIndex": "0x1",
          "removed": false
        }
      ],
      "logsBloom": "0x00000800000000000000000000000000000000000010000000000000000000000000000000000000000000000000000000000000000000000000000000000000000000000000000000000002000000000000000000000000000000000000000004000000000010000000000000000000000000000000000080100000000000000000000000000000000000000000000000000000000000000000000000000000000000000000000000000000000400000000000000000000000000000000000000000000000000000000000000000000000000000000000000000000000000000000000000000000000000000000000000000000020000000000000000000000",
      "type": "0x0",
      "transactionHash": "0xc0de955b6049973e90bffb0dcdc7795ad0804d2c9ea0396118b3802f919cd809",
      "transactionIndex": "0x1",
      "blockHash": "0x502702119e0d899d1d7fde4000e69c52cd905762a43219a14d3bc3c3c90eebb7",
      "blockNumber": "0x1fb0ed",
      "gasUsed": "0x16a55",
      "effectiveGasPrice": "0x1a13b86000",
      "from": "0xb133a194893434107925682789f16662fb9db062",
      "to": "0x12d3f50694e8b5a0549f3f8b7bba78011feaffd7",
      "contractAddress": null
    }
  ],
  "libraries": [],
  "pending": [],
  "returns": {},
  "timestamp": 1768850032341,
  "chain": 5318007,
  "commit": null
}