{
  "transactions": [
    {
      "hash": "0x9c96bb972604c7ac5b41800ab1574919ed5fe6943d4a94db9e5a4ffa156220c8",
      "transactionType": "CALL",
      "contractName": null,
      "contractAddress": "0xa4c6b4119c06f511734af81ba18251acfed7e5ce",
      "function": "setAuthorizedReactiveVM(address)",
      "arguments": [
        "0xb0d37e218c1c61Bc7f1E325A0AEe25693D77677E"
      ],
      "transaction": {
        "from": "0xb133a194893434107925682789f16662fb9db062",
        "to": "0xa4c6b4119c06f511734af81ba18251acfed7e5ce",
        "gas": "0xf9b3",
        "value": "0x0",
        "input": "0x873d6562000000000000000000000000b0d37e218c1c61bc7f1e325a0aee25693d77677e",
        "nonce": "0x125",
        "chainId": "0xaa36a7"
      },
      "additionalContracts": [],
      "isFixedGasLimit": false
    },
    {
      "hash": "0x824860b52bc7e60fa56470f122e5050cc62311550e07d6973693dedf1f341b12",
      "transactionType": "CALL",
      "contractName": null,
      "contractAddress": "0xa4c6b4119c06f511734af81ba18251acfed7e5ce",
      "function": "setCallbackProxy(address)",
      "arguments": [
        "0xc9f36411C9897e7F959D99ffca2a0Ba7ee0D7bDA"
      ],
      "transaction": {
        "from": "0xb133a194893434107925682789f16662fb9db062",
        "to": "0xa4c6b4119c06f511734af81ba18251acfed7e5ce",
        "gas": "0xf865",
        "value": "0x0",
        "input": "0x37559f1e000000000000000000000000c9f36411c9897e7f959d99ffca2a0ba7ee0d7bda",
        "nonce": "0x126",
        "chainId": "0xaa36a7"
      },
      "additionalContracts": [],
      "isFixedGasLimit": false
    }
  ],
  "receipts": [
    {
      "status": "0x1",
      "cumulativeGasUsed": "0x305bb5",
      "logs": [],
      "logsBloom": "0x00000000000000000000000000000000000000000000000000000000000000000000000000000000000000000000000000000000000000000000000000000000000000000000000000000000000000000000000000000000000000000000000000000000000000000000000000000000000000000000000000000000000000000000000000000000000000000000000000000000000000000000000000000000000000000000000000000000000000000000000000000000000000000000000000000000000000000000000000000000000000000000000000000000000000000000000000000000000000000000000000000000000000000000000000000000",
      "type": "0x0",
      "transactionHash": "0x824860b52bc7e60fa56470f122e5050cc62311550e07d6973693dedf1f341b12",
      "transactionIndex": "0x1a",
      "blockHash": "0x81def02298c0f3cb7c18e93c83aeb6db5640ab5488425bf527a3797634f2199c",
      "blockNumber": "0x9a0af9",
      "gasUsed": "0xb4c8",
      "effectiveGasPrice": "0x3c6b2a37",
      "from": "0xb133a194893434107925682789f16662fb9db062",
      "to": "0xa4c6b4119c06f511734af81ba18251acfed7e5ce",
      "contractAddress": null
    },
    {
      "status": "0x1",
      "cumulativeGasUsed": "0x310f8b",
      "logs": [],
      "logsBloom": "0x00000000000000000000000000000000000000000000000000000000000000000000000000000000000000000000000000000000000000000000000000000000000000000000000000000000000000000000000000000000000000000000000000000000000000000000000000000000000000000000000000000000000000000000000000000000000000000000000000000000000000000000000000000000000000000000000000000000000000000000000000000000000000000000000000000000000000000000000000000000000000000000000000000000000000000000000000000000000000000000000000000000000000000000000000000000",
      "type": "0x0",
      "transactionHash": "0x9c96bb972604c7ac5b41800ab1574919ed5fe6943d4a94db9e5a4ffa156220c8",
      "transactionIndex": "0x1b",
      "blockHash": "0x81def02298c0f3cb7c18e93c83aeb6db5640ab5488425bf527a3797634f2199c",
      "blockNumber": "0x9a0af9",
      "gasUsed": "0xb3d6",
      "effectiveGasPrice": "0x3c6b2a37",
      "from": "0xb133a194893434107925682789f16662fb9db062",
      "to": "0xa4c6b4119c06f511734af81ba18251acfed7e5ce",
      "contractAddress": null
    }
  ],
  "libraries": [],
  "pending": [],
  "returns": {},
  "timestamp": 1769047495823,
  "chain": 11155111,
  "commit": null
}