{
  "transactions": [
    {
      "hash": "0xba101f9459d8ed36aada6a962cdd01d03c51bd2c95fc0fb4e9037417c91ca64b",
      "transactionType": "CALL",
      "contractName": null,
      "contractAddress": "0x06d1599888b9e14aaad35e9654e000f51fb462d6",
      "function": "mint(address,uint256)",
      "arguments": [
        "0xB133a194893434107925682789F16662FB9DB062",
        "1000000000000000000000000"
      ],
      "transaction": {
        "from": "0xb133a194893434107925682789f16662fb9db062",
        "to": "0x06d1599888b9e14aaad35e9654e000f51fb462d6",
        "value": "0x0",
        "input": "0x40c10f19000000000000000000000000b133a194893434107925682789f16662fb9db06200000000000000000000000000000000000000000000d3c21bcecceda1000000",
        "nonce": "0x3b9",
        "chainId": "0x512577"
      },
      "additionalContracts": [],
      "isFixedGasLimit": false
    },
    {
      "hash": "0x080dd992e301d1ec57489b05feee7d8cc88169ff09f3fa4690d92301fe1a50ec",
      "transactionType": "CALL",
      "contractName": null,
      "contractAddress": "0x30e032bf9c0556815e1bb081b34362fc28d4d924",
      "function": "mint(address,uint256)",
      "arguments": [
        "0xB133a194893434107925682789F16662FB9DB062",
        "1000000000000"
      ],
      "transaction": {
        "from": "0xb133a194893434107925682789f16662fb9db062",
        "to": "0x30e032bf9c0556815e1bb081b34362fc28d4d924",
        "value": "0x0",
        "input": "0x40c10f19000000000000000000000000b133a194893434107925682789f16662fb9db062000000000000000000000000000000000000000000000000000000e8d4a51000",
        "nonce": "0x3ba",
        "chainId": "0x512577"
      },
      "additionalContracts": [],
      "isFixedGasLimit": false
    },
    {
      "hash": "0x1118a2c68338e9cbfbb543e0c556e1290997520ad56203b3caa639fe89ed6bce",
      "transactionType": "CALL",
      "contractName": null,
      "contractAddress": "0x68b5cec135ac643e6d10ebd1530be66d74a22160",
      "function": "mint(address,uint256)",
      "arguments": [
        "0xB133a194893434107925682789F16662FB9DB062",
        "1000000000000"
      ],
      "transaction": {
        "from": "0xb133a194893434107925682789f16662fb9db062",
        "to": "0x68b5cec135ac643e6d10ebd1530be66d74a22160",
        "value": "0x0",
        "input": "0x40c10f19000000000000000000000000b133a194893434107925682789f16662fb9db062000000000000000000000000000000000000000000000000000000e8d4a51000",
        "nonce": "0x3bb",
        "chainId": "0x512577"
      },
      "additionalContracts": [],
      "isFixedGasLimit": false
    },
    {
      "hash": "0xfb090f22d2d264ecf68275b30916fc44fc2149c8a0057d92128fb1314e1414af",
      "transactionType": "CALL",
      "contractName": null,
      "contractAddress": "0x34bba6e8c727e87f9d720c7ba6525482914f1be5",
      "function": "mint(address)",
      "arguments": [
        "0xB133a194893434107925682789F16662FB9DB062"
      ],
      "transaction": {
        "from": "0xb133a194893434107925682789f16662fb9db062",
        "to": "0x34bba6e8c727e87f9d720c7ba6525482914f1be5",
        "value": "0x0",
        "input": "0x6a627842000000000000000000000000b133a194893434107925682789f16662fb9db062",
        "nonce": "0x3bc",
        "chainId": "0x512577"
      },
      "additionalContracts": [],
      "isFixedGasLimit": false
    },
    {
      "hash": "0x6d222dc3ddcefe79731f38a806482dff15d9fafb1ce9b77a5a3203df7ee7e78e",
      "transactionType": "CALL",
      "contractName": null,
      "contractAddress": "0x233f833388ac52fbde7f01f4890189fae0f364bc",
      "function": "mint(address)",
      "arguments": [
        "0xB133a194893434107925682789F16662FB9DB062"
      ],
      "transaction": {
        "from": "0xb133a194893434107925682789f16662fb9db062",
        "to": "0x233f833388ac52fbde7f01f4890189fae0f364bc",
        "value": "0x0",
        "input": "0x6a627842000000000000000000000000b133a194893434107925682789f16662fb9db062",
        "nonce": "0x3bd",
        "chainId": "0x512577"
      },
      "additionalContracts": [],
      "isFixedGasLimit": false
    },
    {
      "hash": "0xc9df5851c1b18462f2b8451d40f0775a54120459582f5623733c20b365544192",
      "transactionType": "CALL",
      "contractName": null,
      "contractAddress": "0xc1fe74c64a9612336f0431db77234c705da8fce0",
      "function": "mint(address)",
      "arguments": [
        "0xB133a194893434107925682789F16662FB9DB062"
      ],
      "transaction": {
        "from": "0xb133a194893434107925682789f16662fb9db062",
        "to": "0xc1fe74c64a9612336f0431db77234c705da8fce0",
        "value": "0x0",
        "input": "0x6a627842000000000000000000000000b133a194893434107925682789f16662fb9db062",
        "nonce": "0x3be",
        "chainId": "0x512577"
      },
      "additionalContracts": [],
      "isFixedGasLimit": false
    },
    {
      "hash": "0xa63c82cc68840c8a3c02e910f1681e8cead6f1dd59bddfbd5d741cc72ccfd9e3",
      "transactionType": "CALL",
      "contractName": null,
      "contractAddress": "0x34bba6e8c727e87f9d720c7ba6525482914f1be5",
      "function": "mint(address)",
      "arguments": [
        "0xB133a194893434107925682789F16662FB9DB062"
      ],
      "transaction": {
        "from": "0xb133a194893434107925682789f16662fb9db062",
        "to": "0x34bba6e8c727e87f9d720c7ba6525482914f1be5",
        "value": "0x0",
        "input": "0x6a627842000000000000000000000000b133a194893434107925682789f16662fb9db062",
        "nonce": "0x3bf",
        "chainId": "0x512577"
      },
      "additionalContracts": [],
      "isFixedGasLimit": false
    },
    {
      "hash": "0xe575ba1262227d46ed2ca562ab8558bfc05e6dbb3156dd91b91dfc97b3575201",
      "transactionType": "CALL",
      "contractName": null,
      "contractAddress": "0x233f833388ac52fbde7f01f4890189fae0f364bc",
      "function": "mint(address)",
      "arguments": [
        "0xB133a194893434107925682789F16662FB9DB062"
      ],
      "transaction": {
        "from": "0xb133a194893434107925682789f16662fb9db062",
        "to": "0x233f833388ac52fbde7f01f4890189fae0f364bc",
        "value": "0x0",
        "input": "0x6a627842000000000000000000000000b133a194893434107925682789f16662fb9db062",
        "nonce": "0x3c0",
        "chainId": "0x512577"
      },
      "additionalContracts": [],
      "isFixedGasLimit": false
    },
    {
      "hash": "0x546bc8aef3425ec61721a2e8318380e85f7d2467c93d7d069c943e14935839e3",
      "transactionType": "CALL",
      "contractName": null,
      "contractAddress": "0xc1fe74c64a9612336f0431db77234c705da8fce0",
      "function": "mint(address)",
      "arguments": [
        "0xB133a194893434107925682789F16662FB9DB062"
      ],
      "transaction": {
        "from": "0xb133a194893434107925682789f16662fb9db062",
        "to": "0xc1fe74c64a9612336f0431db77234c705da8fce0",
        "value": "0x0",
        "input": "0x6a627842000000000000000000000000b133a194893434107925682789f16662fb9db062",
        "nonce": "0x3c1",
        "chainId": "0x512577"
      },
      "additionalContracts": [],
      "isFixedGasLimit": false
    },
    {
      "hash": "0x72e1dee2a8c16aed41329829f44bcd698c4931fea6b5825e24737cfa9be08687",
      "transactionType": "CALL",
      "contractName": null,
      "contractAddress": "0x34bba6e8c727e87f9d720c7ba6525482914f1be5",
      "function": "mint(address)",
      "arguments": [
        "0xB133a194893434107925682789F16662FB9DB062"
      ],
      "transaction": {
        "from": "0xb133a194893434107925682789f16662fb9db062",
        "to": "0x34bba6e8c727e87f9d720c7ba6525482914f1be5",
        "value": "0x0",
        "input": "0x6a627842000000000000000000000000b133a194893434107925682789f16662fb9db062",
        "nonce": "0x3c2",
        "chainId": "0x512577"
      },
      "additionalContracts": [],
      "isFixedGasLimit": false
    },
    {
      "hash": "0xb8eb75004932a7bbf7c39ba490495c71fdf03443f6a74e850aea040b66980fd0",
      "transactionType": "CALL",
      "contractName": null,
      "contractAddress": "0x233f833388ac52fbde7f01f4890189fae0f364bc",
      "function": "mint(address)",
      "arguments": [
        "0xB133a194893434107925682789F16662FB9DB062"
      ],
      "transaction": {
        "from": "0xb133a194893434107925682789f16662fb9db062",
        "to": "0x233f833388ac52fbde7f01f4890189fae0f364bc",
        "value": "0x0",
        "input": "0x6a627842000000000000000000000000b133a194893434107925682789f16662fb9db062",
        "nonce": "0x3c3",
        "chainId": "0x512577"
      },
      "additionalContracts": [],
      "isFixedGasLimit": false
    },
    {
      "hash": "0xcd4aa6b8eca073d1062c30e2930cec3656c62a7e4645bce10131e08af288fc96",
      "transactionType": "CALL",
      "contractName": null,
      "contractAddress": "0xc1fe74c64a9612336f0431db77234c705da8fce0",
      "function": "mint(address)",
      "arguments": [
        "0xB133a194893434107925682789F16662FB9DB062"
      ],
      "transaction": {
        "from": "0xb133a194893434107925682789f16662fb9db062",
        "to": "0xc1fe74c64a9612336f0431db77234c705da8fce0",
        "value": "0x0",
        "input": "0x6a627842000000000000000000000000b133a194893434107925682789f16662fb9db062",
        "nonce": "0x3c4",
        "chainId": "0x512577"
      },
      "additionalContracts": [],
      "isFixedGasLimit": false
    },
    {
      "hash": "0x9adac337b0d79aecbcaa4da18b3047d799da88a84185d6dc2bd908341a6aeb61",
      "transactionType": "CALL",
      "contractName": null,
      "contractAddress": "0x34bba6e8c727e87f9d720c7ba6525482914f1be5",
      "function": "mint(address)",
      "arguments": [
        "0xB133a194893434107925682789F16662FB9DB062"
      ],
      "transaction": {
        "from": "0xb133a194893434107925682789f16662fb9db062",
        "to": "0x34bba6e8c727e87f9d720c7ba6525482914f1be5",
        "value": "0x0",
        "input": "0x6a627842000000000000000000000000b133a194893434107925682789f16662fb9db062",
        "nonce": "0x3c5",
        "chainId": "0x512577"
      },
      "additionalContracts": [],
      "isFixedGasLimit": false
    },
    {
      "hash": "0x311d827628d16d06169839adadc26bdf394a60cf09149b6165dba1cde2d87bdb",
      "transactionType": "CALL",
      "contractName": null,
      "contractAddress": "0x233f833388ac52fbde7f01f4890189fae0f364bc",
      "function": "mint(address)",
      "arguments": [
        "0xB133a194893434107925682789F16662FB9DB062"
      ],
      "transaction": {
        "from": "0xb133a194893434107925682789f16662fb9db062",
        "to": "0x233f833388ac52fbde7f01f4890189fae0f364bc",
        "value": "0x0",
        "input": "0x6a627842000000000000000000000000b133a194893434107925682789f16662fb9db062",
        "nonce": "0x3c6",
        "chainId": "0x512577"
      },
      "additionalContracts": [],
      "isFixedGasLimit": false
    },
    {
      "hash": "0xbc549a29f61ed02dcc1adf22c43f1c3a6ee5522721f16c8740a222c40559d9e8",
      "transactionType": "CALL",
      "contractName": null,
      "contractAddress": "0xc1fe74c64a9612336f0431db77234c705da8fce0",
      "function": "mint(address)",
      "arguments": [
        "0xB133a194893434107925682789F16662FB9DB062"
      ],
      "transaction": {
        "from": "0xb133a194893434107925682789f16662fb9db062",
        "to": "0xc1fe74c64a9612336f0431db77234c705da8fce0",
        "value": "0x0",
        "input": "0x6a627842000000000000000000000000b133a194893434107925682789f16662fb9db062",
        "nonce": "0x3c7",
        "chainId": "0x512577"
      },
      "additionalContracts": [],
      "isFixedGasLimit": false
    },
    {
      "hash": "0x20919e035f61a89ac5c674bec913f7a14f4e59e07170f9e4e37ab2e66ea303e5",
      "transactionType": "CALL",
      "contractName": null,
      "contractAddress": "0x34bba6e8c727e87f9d720c7ba6525482914f1be5",
      "function": "mint(address)",
      "arguments": [
        "0xB133a194893434107925682789F16662FB9DB062"
      ],
      "transaction": {
        "from": "0xb133a194893434107925682789f16662fb9db062",
        "to": "0x34bba6e8c727e87f9d720c7ba6525482914f1be5",
        "value": "0x0",
        "input": "0x6a627842000000000000000000000000b133a194893434107925682789f16662fb9db062",
        "nonce": "0x3c8",
        "chainId": "0x512577"
      },
      "additionalContracts": [],
      "isFixedGasLimit": false
    },
    {
      "hash": "0x0f1673c86e17737fbe4d09847066622b93ca0994b99ed040fe68b3ecdc4c2c4f",
      "transactionType": "CALL",
      "contractName": null,
      "contractAddress": "0x233f833388ac52fbde7f01f4890189fae0f364bc",
      "function": "mint(address)",
      "arguments": [
        "0xB133a194893434107925682789F16662FB9DB062"
      ],
      "transaction": {
        "from": "0xb133a194893434107925682789f16662fb9db062",
        "to": "0x233f833388ac52fbde7f01f4890189fae0f364bc",
        "value": "0x0",
        "input": "0x6a627842000000000000000000000000b133a194893434107925682789f16662fb9db062",
        "nonce": "0x3c9",
        "chainId": "0x512577"
      },
      "additionalContracts": [],
      "isFixedGasLimit": false
    },
    {
      "hash": "0x7abeeaaf002247363c61458e354d8e606578911186cac07d86cafcb0b4ba2cca",
      "transactionType": "CALL",
      "contractName": null,
      "contractAddress": "0xc1fe74c64a9612336f0431db77234c705da8fce0",
      "function": "mint(address)",
      "arguments": [
        "0xB133a194893434107925682789F16662FB9DB062"
      ],
      "transaction": {
        "from": "0xb133a194893434107925682789f16662fb9db062",
        "to": "0xc1fe74c64a9612336f0431db77234c705da8fce0",
        "value": "0x0",
        "input": "0x6a627842000000000000000000000000b133a194893434107925682789f16662fb9db062",
        "nonce": "0x3ca",
        "chainId": "0x512577"
      },
      "additionalContracts": [],
      "isFixedGasLimit": false
    }
  ],
  "receipts": [
    {
      "status": "0x1",
      "cumulativeGasUsed": "0x18964",
      "logs": [
        {
          "address": "0x06d1599888b9e14aaad35e9654e000f51fb462d6",
          "topics": [
            "0xddf252ad1be2c89b69c2b068fc378daa952ba7f163c4a11628f55a4df523b3ef",
            "0x0000000000000000000000000000000000000000000000000000000000000000",
            "0x000000000000000000000000b133a194893434107925682789f16662fb9db062"
          ],
          "data": "0x00000000000000000000000000000000000000000000d3c21bcecceda1000000",
          "blockHash": "0xfcd266706027abd9ed00f418bbcb3b61d4d7440c5b4554f004c985ea413c4fbf",
          "blockNumber": "0x2adf8f",
          "blockTimestamp": "0x69bdac6a",
          "transactionHash": "0xba101f9459d8ed36aada6a962cdd01d03c51bd2c95fc0fb4e9037417c91ca64b",
          "transactionIndex": "0x1",
          "logIndex": "0x1",
          "removed": false
        }
      ],
      "logsBloom": "0x00000000000000000000000000000000000000000000000000000000000000000000000000000000000000000000000000000000000000000000000000000000000000000000000000000008000000000000000000000800000000000000000000000000020000010000000000000800000000000000000000000010000000000000000000000008000000000000000000000000000000000000000000000000000000000000000000000000000000000000000000000000008000000000100000000002000000000000000000000000000000000000000100000000000020000000000000000000000000000000000000000000000000000000000000000000",
      "type": "0x0",
      "transactionHash": "0xba101f9459d8ed36aada6a962cdd01d03c51bd2c95fc0fb4e9037417c91ca64b",
      "transactionIndex": "0x1",
      "blockHash": "0xfcd266706027abd9ed00f418bbcb3b61d4d7440c5b4554f004c985ea413c4fbf",
      "blockNumber": "0x2adf8f",
      "gasUsed": "0x112b6",
      "effectiveGasPrice": "0x1a13b86000",
      "from": "0xb133a194893434107925682789f16662fb9db062",
      "to": "0x06d1599888b9e14aaad35e9654e000f51fb462d6",
      "contractAddress": null
    },
    {
      "status": "0x1",
      "cumulativeGasUsed": "0x18940",
      "logs": [
        {
          "address": "0x30e032bf9c0556815e1bb081b34362fc28d4d924",
          "topics": [
            "0xddf252ad1be2c89b69c2b068fc378daa952ba7f163c4a11628f55a4df523b3ef",
            "0x0000000000000000000000000000000000000000000000000000000000000000",
            "0x000000000000000000000000b133a194893434107925682789f16662fb9db062"
          ],
          "data": "0x000000000000000000000000000000000000000000000000000000e8d4a51000",
          "blockHash": "0x48be51ede9333117a609c7fcfbf32d47217b7362f8c4f37fe11e4390122bea3d",
          "blockNumber": "0x2adf90",
          "blockTimestamp": "0x69bdac71",
          "transactionHash": "0x080dd992e301d1ec57489b05feee7d8cc88169ff09f3fa4690d92301fe1a50ec",
          "transactionIndex": "0x1",
          "logIndex": "0x1",
          "removed": false
        }
      ],
      "logsBloom": "0x00000000000000000000000000000000000000000000000000000000000000000000000000000000000000000000000000000000000000000000000000000000000000000000000000000008000000000000000000000000000000000000000000000000020000010000000000000800000000000000000000000010000000000000000000000008000000010000000000000000000000000000000040000000000000000000000000000000000000000000000000000000008000000000000000000002000000000000000000000000000000000000000000000000000020000000000000000000000000000000000000000000080000000000000000000000",
      "type": "0x0",
      "transactionHash": "0x080dd992e301d1ec57489b05feee7d8cc88169ff09f3fa4690d92301fe1a50ec",
      "transactionIndex": "0x1",
      "blockHash": "0x48be51ede9333117a609c7fcfbf32d47217b7362f8c4f37fe11e4390122bea3d",
      "blockNumber": "0x2adf90",
      "gasUsed": "0x11292",
      "effectiveGasPrice": "0x1a13b86000",
      "from": "0xb133a194893434107925682789f16662fb9db062",
      "to": "0x30e032bf9c0556815e1bb081b34362fc28d4d924",
      "contractAddress": null
    },
    {
      "status": "0x1",
      "cumulativeGasUsed": "0x2709e",
      "logs": [
        {
          "address": "0x68b5cec135ac643e6d10ebd1530be66d74a22160",
          "topics": [
            "0xddf252ad1be2c89b69c2b068fc378daa952ba7f163c4a11628f55a4df523b3ef",
            "0x0000000000000000000000000000000000000000000000000000000000000000",
            "0x000000000000000000000000b133a194893434107925682789f16662fb9db062"
          ],
          "data": "0x000000000000000000000000000000000000000000000000000000e8d4a51000",
          "blockHash": "0xda04454385476614c6d07df219acaf9dfc20ec6bcc65fe3c9f8aca7b2ef93ebc",
          "blockNumber": "0x2adf91",
          "blockTimestamp": "0x69bdac78",
          "transactionHash": "0x1118a2c68338e9cbfbb543e0c556e1290997520ad56203b3caa639fe89ed6bce",
          "transactionIndex": "0x2",
          "logIndex": "0x2",
          "removed": false
        }
      ],
      "logsBloom": "0x00000000000000000000000000000000000000000000000000000000000000000000000000000000000000000000000000000000000000000000000000000000000002000000000000000008000000000000000001000000000000000000000000000000020000010000000000000800000000000000000000000010000000000000000000000008000000000000000000000000000000000000000000000000000000000000000000000000000000000000000000000008008000000000000000000002000000000000000000000000000000000000000000000000000020000000000000000000000000000000000000000000000000000000000000000000",
      "type": "0x0",
      "transactionHash": "0x1118a2c68338e9cbfbb543e0c556e1290997520ad56203b3caa639fe89ed6bce",
      "transactionIndex": "0x2",
      "blockHash": "0xda04454385476614c6d07df219acaf9dfc20ec6bcc65fe3c9f8aca7b2ef93ebc",
      "blockNumber": "0x2adf91",
      "gasUsed": "0x11292",
      "effectiveGasPrice": "0x1a13b86000",
      "from": "0xb133a194893434107925682789f16662fb9db062",
      "to": "0x68b5cec135ac643e6d10ebd1530be66d74a22160",
      "contractAddress": null
    },
    {
      "status": "0x1",
      "cumulativeGasUsed": "0x1e1a7",
      "logs": [
        {
          "address": "0x34bba6e8c727e87f9d720c7ba6525482914f1be5",
          "topics": [
            "0xddf252ad1be2c89b69c2b068fc378daa952ba7f163c4a11628f55a4df523b3ef",
            "0x0000000000000000000000000000000000000000000000000000000000000000",
            "0x000000000000000000000000b133a194893434107925682789f16662fb9db062",
            "0x0000000000000000000000000000000000000000000000000000000000000001"
          ],
          "data": "0x",
          "blockHash": "0x0bcdfa4090a9c80d51d371b6317fc908572871f96f9b9647c25640a963a33853",
          "blockNumber": "0x2adf92",
          "blockTimestamp": "0x69bdac7f",
          "transactionHash": "0xfb090f22d2d264ecf68275b30916fc44fc2149c8a0057d92128fb1314e1414af",
          "transactionIndex": "0x1",
          "logIndex": "0x1",
          "removed": false
        }
      ],
      "logsBloom": "0x00000000000000000000000000000000000000000000000000000000000000000000000000000000000000000000000000000000000000000000000000040000000000000000000000000008000000000000000000040000000000000000000000000000020000010000000000000800000000000000000000000010000000000000000000000008000000000000000000000000000000000000000000000000000000000000000000000000000000080000000000000000008000000000000000000002000000000000000000000000000000000000000000002000000060000000000000000000000000000000000000000000000000000100000000000000",
      "type": "0x0",
      "transactionHash": "0xfb090f22d2d264ecf68275b30916fc44fc2149c8a0057d92128fb1314e1414af",
      "transactionIndex": "0x1",
      "blockHash": "0x0bcdfa4090a9c80d51d371b6317fc908572871f96f9b9647c25640a963a33853",
      "blockNumber": "0x2adf92",
      "gasUsed": "0x16af9",
      "effectiveGasPrice": "0x1a13b86000",
      "from": "0xb133a194893434107925682789f16662fb9db062",
      "to": "0x34bba6e8c727e87f9d720c7ba6525482914f1be5",
      "contractAddress": null
    },
    {
      "status": "0x1",
      "cumulativeGasUsed": "0x1e1a7",
      "logs": [
        {
          "address": "0x233f833388ac52fbde7f01f4890189fae0f364bc",
          "topics": [
            "0xddf252ad1be2c89b69c2b068fc378daa952ba7f163c4a11628f55a4df523b3ef",
            "0x0000000000000000000000000000000000000000000000000000000000000000",
            "0x000000000000000000000000b133a194893434107925682789f16662fb9db062",
            "0x0000000000000000000000000000000000000000000000000000000000000001"
          ],
          "data": "0x",
          "blockHash": "0x651df0c03d49b1176903a1a4491dba47f3b7fea12e710e704ec321b53b5a2e5c",
          "blockNumber": "0x2adf93",
          "blockTimestamp": "0x69bdac86",
          "transactionHash": "0x6d222dc3ddcefe79731f38a806482dff15d9fafb1ce9b77a5a3203df7ee7e78e",
          "transactionIndex": "0x1",
          "logIndex": "0x1",
          "removed": false
        }
      ],
      "logsBloom": "0x00000000000000000000000000000000000000000000000000000000000000000000000000000000000000000000000000000000000000000000000000040000000000000000000000000008000000000000000000040000000000000000000000000000020000010000000008000800000000000000000400000010000000000000000000000008000000000000000000000000000000000000000000000000000000000000000000000000000000000000000000000000008000000000000000000002000000000000000000000000000000000000000000000000000060000000000000000000000000000000000000000000000040000000000000000000",
      "type": "0x0",
      "transactionHash": "0x6d222dc3ddcefe79731f38a806482dff15d9fafb1ce9b77a5a3203df7ee7e78e",
      "transactionIndex": "0x1",
      "blockHash": "0x651df0c03d49b1176903a1a4491dba47f3b7fea12e710e704ec321b53b5a2e5c",
      "blockNumber": "0x2adf93",
      "gasUsed": "0x16af9",
      "effectiveGasPrice": "0x1a13b86000",
      "from": "0xb133a194893434107925682789f16662fb9db062",
      "to": "0x233f833388ac52fbde7f01f4890189fae0f364bc",
      "contractAddress": null
    },
    {
      "status": "0x1",
      "cumulativeGasUsed": "0x1e1a7",
      "logs": [
        {
          "address": "0xc1fe74c64a9612336f0431db77234c705da8fce0",
          "topics": [
            "0xddf252ad1be2c89b69c2b068fc378daa952ba7f163c4a11628f55a4df523b3ef",
            "0x0000000000000000000000000000000000000000000000000000000000000000",
            "0x000000000000000000000000b133a194893434107925682789f16662fb9db062",
            "0x0000000000000000000000000000000000000000000000000000000000000001"
          ],
          "data": "0x",
          "blockHash": "0x39deb4d7894703c438a3dddddc99df057306c45b9624807f413be585fab08510",
          "blockNumber": "0x2adf94",
          "blockTimestamp": "0x69bdac8d",
          "transactionHash": "0xc9df5851c1b18462f2b8451d40f0775a54120459582f5623733c20b365544192",
          "transactionIndex": "0x1",
          "logIndex": "0x1",
          "removed": false
        }
      ],
      "logsBloom": "0x00000000000000000000000000000000000000000000000000000000000000000000000000000000000000000000000000000000000000000000000000040000000000000000000000000008000000000000000000040000000000000000000000000000020000010000000000000800000000000000000000000010000000000000000000000008000000000000000000000000000002000000000000000000000000000000000000000000000000100000000000000000008000000000000000000002000000000000000000000000000000000000000000000000000060000000000001000000000000000000000000000000000000000000000000000000",
      "type": "0x0",
      "transactionHash": "0xc9df5851c1b18462f2b8451d40f0775a54120459582f5623733c20b365544192",
      "transactionIndex": "0x1",
      "blockHash": "0x39deb4d7894703c438a3dddddc99df057306c45b9624807f413be585fab08510",
      "blockNumber": "0x2adf94",
      "gasUsed": "0x16af9",
      "effectiveGasPrice": "0x1a13b86000",
      "from": "0xb133a194893434107925682789f16662fb9db062",
      "to": "0xc1fe74c64a9612336f0431db77234c705da8fce0",
      "contractAddress": null
    },
    {
      "status": "0x1",
      "cumulativeGasUsed": "0x15c0f",
      "logs": [
        {
          "address": "0x34bba6e8c727e87f9d720c7ba6525482914f1be5",
          "topics": [
            "0xddf252ad1be2c89b69c2b068fc378daa952ba7f163c4a11628f55a4df523b3ef",
            "0x0000000000000000000000000000000000000000000000000000000000000000",
            "0x000000000000000000000000b133a194893434107925682789f16662fb9db062",
            "0x0000000000000000000000000000000000000000000000000000000000000002"
          ],
          "data": "0x",
          "blockHash": "0xb60d6852bde977669ba17c8670759393c35cdec72147bebdec9a4cb39f3de70a",
          "blockNumber": "0x2adf95",
          "blockTimestamp": "0x69bdac94",
          "transactionHash": "0xa63c82cc68840c8a3c02e910f1681e8cead6f1dd59bddfbd5d741cc72ccfd9e3",
          "transactionIndex": "0x1",
          "logIndex": "0x1",
          "removed": false
        }
      ],
      "logsBloom": "0x04000000000000000000000000000000000000000000000000000000000000000000000000000000000000000000000000000000000000000000000000000000000000000000000000000008000000000000000000000000000000000000000000000000020000010000000000000800000000000000000000000010000000000000000000000008000000000000000000000000000000000000000000000000000000000000000000000100000000080000000000000000008000000000000000000002000000000000000000000000000000000000000000002000000020000000000000000000000000000000000000000000008000000100000000000000",
      "type": "0x0",
      "transactionHash": "0xa63c82cc68840c8a3c02e910f1681e8cead6f1dd59bddfbd5d741cc72ccfd9e3",
      "transactionIndex": "0x1",
      "blockHash": "0xb60d6852bde977669ba17c8670759393c35cdec72147bebdec9a4cb39f3de70a",
      "blockNumber": "0x2adf95",
      "gasUsed": "0xe561",
      "effectiveGasPrice": "0x1a13b86000",
      "from": "0xb133a194893434107925682789f16662fb9db062",
      "to": "0x34bba6e8c727e87f9d720c7ba6525482914f1be5",
      "contractAddress": null
    },
    {
      "status": "0x1",
      "cumulativeGasUsed": "0x160db",
      "logs": [
        {
          "address": "0x233f833388ac52fbde7f01f4890189fae0f364bc",
          "topics": [
            "0xddf252ad1be2c89b69c2b068fc378daa952ba7f163c4a11628f55a4df523b3ef",
            "0x0000000000000000000000000000000000000000000000000000000000000000",
            "0x000000000000000000000000b133a194893434107925682789f16662fb9db062",
            "0x0000000000000000000000000000000000000000000000000000000000000002"
          ],
          "data": "0x",
          "blockHash": "0x080af39ec7e3269c9d273891a63ae3f9faaa00eab1580ebb981264f28efa708d",
          "blockNumber": "0x2adf96",
          "blockTimestamp": "0x69bdac9b",
          "transactionHash": "0xe575ba1262227d46ed2ca562ab8558bfc05e6dbb3156dd91b91dfc97b3575201",
          "transactionIndex": "0x1",
          "logIndex": "0x2",
          "removed": false
        }
      ],
      "logsBloom": "0x04000000000000000000000000000000000000000000000000000000000000000000000000000000000000000000000000000000000000000000000000000000000000000000000000000008000000000000000000000000000000000000000000000000020000010000000008000800000000000000000400000010000000000000000000000008000000000000000000000000000000000000000000000000000000000000000000000100000000000000000000000000008000000000000000000002000000000000000000000000000000000000000000000000000020000000000000000000000000000000000000000000008040000000000000000000",
      "type": "0x0",
      "transactionHash": "0xe575ba1262227d46ed2ca562ab8558bfc05e6dbb3156dd91b91dfc97b3575201",
      "transactionIndex": "0x1",
      "blockHash": "0x080af39ec7e3269c9d273891a63ae3f9faaa00eab1580ebb981264f28efa708d",
      "blockNumber": "0x2adf96",
      "gasUsed": "0xe561",
      "effectiveGasPrice": "0x1a13b86000",
      "from": "0xb133a194893434107925682789f16662fb9db062",
      "to": "0x233f833388ac52fbde7f01f4890189fae0f364bc",
      "contractAddress": null
    },
    {
      "status": "0x1",
      "cumulativeGasUsed": "0x15c0f",
      "logs": [
        {
          "address": "0xc1fe74c64a9612336f0431db77234c705da8fce0",
          "topics": [
            "0xddf252ad1be2c89b69c2b068fc378daa952ba7f163c4a11628f55a4df523b3ef",
            "0x0000000000000000000000000000000000000000000000000000000000000000",
            "0x000000000000000000000000b133a194893434107925682789f16662fb9db062",
            "0x0000000000000000000000000000000000000000000000000000000000000002"
          ],
          "data": "0x",
          "blockHash": "0x3a2570d9bd0a3ad26bd10ff9b9c74dd1baf24a8fe05dd4dc66f7c4e951d4d1bb",
          "blockNumber": "0x2adf97",
          "blockTimestamp": "0x69bdaca2",
          "transactionHash": "0x546bc8aef3425ec61721a2e8318380e85f7d2467c93d7d069c943e14935839e3",
          "transactionIndex": "0x1",
          "logIndex": "0x1",
          "removed": false
        }
      ],
      "logsBloom": "0x04000000000000000000000000000000000000000000000000000000000000000000000000000000000000000000000000000000000000000000000000000000000000000000000000000008000000000000000000000000000000000000000000000000020000010000000000000800000000000000000000000010000000000000000000000008000000000000000000000000000002000000000000000000000000000000000000000100000000100000000000000000008000000000000000000002000000000000000000000000000000000000000000000000000020000000000001000000000000000000000000000000008000000000000000000000",
      "type": "0x0",
      "transactionHash": "0x546bc8aef3425ec61721a2e8318380e85f7d2467c93d7d069c943e14935839e3",
      "transactionIndex": "0x1",
      "blockHash": "0x3a2570d9bd0a3ad26bd10ff9b9c74dd1baf24a8fe05dd4dc66f7c4e951d4d1bb",
      "blockNumber": "0x2adf97",
      "gasUsed": "0xe561",
      "effectiveGasPrice": "0x1a13b86000",
      "from": "0xb133a194893434107925682789f16662fb9db062",
      "to": "0xc1fe74c64a9612336f0431db77234c705da8fce0",
      "contractAddress": null
    },
    {
      "status": "0x1",
      "cumulativeGasUsed": "0x15c0f",
      "logs": [
        {
          "address": "0x34bba6e8c727e87f9d720c7ba6525482914f1be5",
          "topics": [
            "0xddf252ad1be2c89b69c2b068fc378daa952ba7f163c4a11628f55a4df523b3ef",
            "0x0000000000000000000000000000000000000000000000000000000000000000",
            "0x000000000000000000000000b133a194893434107925682789f16662fb9db062",
            "0x0000000000000000000000000000000000000000000000000000000000000003"
          ],
          "data": "0x",
          "blockHash": "0x253252f0665def19eaa39d6c2eac7799db71385920276b3e5ffe789c0d1cda5c",
          "blockNumber": "0x2adf98",
          "blockTimestamp": "0x69bdaca9",
          "transactionHash": "0x72e1dee2a8c16aed41329829f44bcd698c4931fea6b5825e24737cfa9be08687",
          "transactionIndex": "0x1",
          "logIndex": "0x1",
          "removed": false
        }
      ],
      "logsBloom": "0x00000000000000000000000000000000000000000000000000000000000000000000000000000000000000000000000000000000020000000000000000000000000000000000000000000008000000000000000000000000000000000000000000000000020000010000000000000800000000000000000000000010000000000000000000000008000000000000000000000000000000000000000000000000000000000000000000000000000000080000000000800000008000000000400000000002000000000000000000000000000000000000000000002000000020000000000000000000000000000000000000000000000000000100000000000000",
      "type": "0x0",
      "transactionHash": "0x72e1dee2a8c16aed41329829f44bcd698c4931fea6b5825e24737cfa9be08687",
      "transactionIndex": "0x1",
      "blockHash": "0x253252f0665def19eaa39d6c2eac7799db71385920276b3e5ffe789c0d1cda5c",
      "blockNumber": "0x2adf98",
      "gasUsed": "0xe561",
      "effectiveGasPrice": "0x1a13b86000",
      "from": "0xb133a194893434107925682789f16662fb9db062",
      "to": "0x34bba6e8c727e87f9d720c7ba6525482914f1be5",
      "contractAddress": null
    },
    {
      "status": "0x1",
      "cumulativeGasUsed": "0x15c0f",
      "logs": [
        {
          "address": "0x233f833388ac52fbde7f01f4890189fae0f364bc",
          "topics": [
            "0xddf252ad1be2c89b69c2b068fc378daa952ba7f163c4a11628f55a4df523b3ef",
            "0x0000000000000000000000000000000000000000000000000000000000000000",
            "0x000000000000000000000000b133a194893434107925682789f16662fb9db062",
            "0x0000000000000000000000000000000000000000000000000000000000000003"
          ],
          "data": "0x",
          "blockHash": "0xebf017746068b82983f6909a3f47353b763a8024f7114af27c0bab0aedb28bc1",
          "blockNumber": "0x2adf99",
          "blockTimestamp": "0x69bdacb0",
          "transactionHash": "0xb8eb75004932a7bbf7c39ba490495c71fdf03443f6a74e850aea040b66980fd0",
          "transactionIndex": "0x1",
          "logIndex": "0x1",
          "removed": false
        }
      ],
      "logsBloom": "0x00000000000000000000000000000000000000000000000000000000000000000000000000000000000000000000000000000000020000000000000000000000000000000000000000000008000000000000000000000000000000000000000000000000020000010000000008000800000000000000000400000010000000000000000000000008000000000000000000000000000000000000000000000000000000000000000000000000000000000000000000800000008000000000400000000002000000000000000000000000000000000000000000000000000020000000000000000000000000000000000000000000000040000000000000000000",
      "type": "0x0",
      "transactionHash": "0xb8eb75004932a7bbf7c39ba490495c71fdf03443f6a74e850aea040b66980fd0",
      "transactionIndex": "0x1",
      "blockHash": "0xebf017746068b82983f6909a3f47353b763a8024f7114af27c0bab0aedb28bc1",
      "blockNumber": "0x2adf99",
      "gasUsed": "0xe561",
      "effectiveGasPrice": "0x1a13b86000",
      "from": "0xb133a194893434107925682789f16662fb9db062",
      "to": "0x233f833388ac52fbde7f01f4890189fae0f364bc",
      "contractAddress": null
    },
    {
      "status": "0x1",
      "cumulativeGasUsed": "0x15c0f",
      "logs": [
        {
          "address": "0xc1fe74c64a9612336f0431db77234c705da8fce0",
          "topics": [
            "0xddf252ad1be2c89b69c2b068fc378daa952ba7f163c4a11628f55a4df523b3ef",
            "0x0000000000000000000000000000000000000000000000000000000000000000",
            "0x000000000000000000000000b133a194893434107925682789f16662fb9db062",
            "0x0000000000000000000000000000000000000000000000000000000000000003"
          ],
          "data": "0x",
          "blockHash": "0x7e243be16cea7bb86e6ee98d6c01c0ca795f135be95d533ac8a9d9afad44c69a",
          "blockNumber": "0x2adf9a",
          "blockTimestamp": "0x69bdacb7",
          "transactionHash": "0xcd4aa6b8eca073d1062c30e2930cec3656c62a7e4645bce10131e08af288fc96",
          "transactionIndex": "0x1",
          "logIndex": "0x1",
          "removed": false
        }
      ],
      "logsBloom": "0x00000000000000000000000000000000000000000000000000000000000000000000000000000000000000000000000000000000020000000000000000000000000000000000000000000008000000000000000000000000000000000000000000000000020000010000000000000800000000000000000000000010000000000000000000000008000000000000000000000000000002000000000000000000000000000000000000000000000000100000000000800000008000000000400000000002000000000000000000000000000000000000000000000000000020000000000001000000000000000000000000000000000000000000000000000000",
      "type": "0x0",
      "transactionHash": "0xcd4aa6b8eca073d1062c30e2930cec3656c62a7e4645bce10131e08af288fc96",
      "transactionIndex": "0x1",
      "blockHash": "0x7e243be16cea7bb86e6ee98d6c01c0ca795f135be95d533ac8a9d9afad44c69a",
      "blockNumber": "0x2adf9a",
      "gasUsed": "0xe561",
      "effectiveGasPrice": "0x1a13b86000",
      "from": "0xb133a194893434107925682789f16662fb9db062",
      "to": "0xc1fe74c64a9612336f0431db77234c705da8fce0",
      "contractAddress": null
    },
    {
      "status": "0x1",
      "cumulativeGasUsed": "0x15c0f",
      "logs": [
        {
          "address": "0x34bba6e8c727e87f9d720c7ba6525482914f1be5",
          "topics": [
            "0xddf252ad1be2c89b69c2b068fc378daa952ba7f163c4a11628f55a4df523b3ef",
            "0x0000000000000000000000000000000000000000000000000000000000000000",
            "0x000000000000000000000000b133a194893434107925682789f16662fb9db062",
            "0x0000000000000000000000000000000000000000000000000000000000000004"
          ],
          "data": "0x",
          "blockHash": "0xc1356141a4bdc6b4a9a58d2d7cc03ad78ea097c93e8b5be03224a9d8028bf57f",
          "blockNumber": "0x2adf9b",
          "blockTimestamp": "0x69bdacbe",
          "transactionHash": "0x9adac337b0d79aecbcaa4da18b3047d799da88a84185d6dc2bd908341a6aeb61",
          "transactionIndex": "0x1",
          "logIndex": "0x1",
          "removed": false
        }
      ],
      "logsBloom": "0x0000000000000000000000000000000000000000000000000000000000000000000000000000000000000000000000000000000000000000000000000000000000000000000000000000000800000000000000000000000000000000000000000800000002000001000000000000080000000000000000000000001000000000000000000000000800000000000000000000000000000000000000000000000000000000000000000000000000000008000000000000000000a000000000000000000002000000000000000000000000000000008000000000002000000020000000000000000000000000000000000000000000000000000100000000000000",
      "type": "0x0",
      "transactionHash": "0x9adac337b0d79aecbcaa4da18b3047d799da88a84185d6dc2bd908341a6aeb61",
      "transactionIndex": "0x1",
      "blockHash": "0xc1356141a4bdc6b4a9a58d2d7cc03ad78ea097c93e8b5be03224a9d8028bf57f",
      "blockNumber": "0x2adf9b",
      "gasUsed": "0xe561",
      "effectiveGasPrice": "0x1a13b86000",
      "from": "0xb133a194893434107925682789f16662fb9db062",
      "to": "0x34bba6e8c727e87f9d720c7ba6525482914f1be5",
      "contractAddress": null
    },
    {
      "status": "0x1",
      "cumulativeGasUsed": "0x24359",
      "logs": [
        {
          "address": "0x233f833388ac52fbde7f01f4890189fae0f364bc",
          "topics": [
            "0xddf252ad1be2c89b69c2b068fc378daa952ba7f163c4a11628f55a4df523b3ef",
            "0x0000000000000000000000000000000000000000000000000000000000000000",
            "0x000000000000000000000000b133a194893434107925682789f16662fb9db062",
            "0x0000000000000000000000000000000000000000000000000000000000000004"
          ],
          "data": "0x",
          "blockHash": "0x7e0e57f2fd22675022572551f28abde733a0d92b89097858b9d6695ffddd65a0",
          "blockNumber": "0x2adf9c",
          "blockTimestamp": "0x69bdacc5",
          "transactionHash": "0x311d827628d16d06169839adadc26bdf394a60cf09149b6165dba1cde2d87bdb",
          "transactionIndex": "0x2",
          "logIndex": "0x2",
          "removed": false
        }
      ],
      "logsBloom": "0x0000000000000000000000000000000000000000000000000000000000000000000000000000000000000000000000000000000000000000000000000000000000000000000000000000000800000000000000000000000000000000000000000800000002000001000000000800080000000000000000040000001000000000000000000000000800000000000000000000000000000000000000000000000000000000000000000000000000000000000000000000000000a000000000000000000002000000000000000000000000000000008000000000000000000020000000000000000000000000000000000000000000000040000000000000000000",
      "type": "0x0",
      "transactionHash": "0x311d827628d16d06169839adadc26bdf394a60cf09149b6165dba1cde2d87bdb",
      "transactionIndex": "0x2",
      "blockHash": "0x7e0e57f2fd22675022572551f28abde733a0d92b89097858b9d6695ffddd65a0",
      "blockNumber": "0x2adf9c",
      "gasUsed": "0xe561",
      "effectiveGasPrice": "0x1a13b86000",
      "from": "0xb133a194893434107925682789f16662fb9db062",
      "to": "0x233f833388ac52fbde7f01f4890189fae0f364bc",
      "contractAddress": null
    },
    {
      "status": "0x1",
      "cumulativeGasUsed": "0x15c0f",
      "logs": [
        {
          "address": "0xc1fe74c64a9612336f0431db77234c705da8fce0",
          "topics": [
            "0xddf252ad1be2c89b69c2b068fc378daa952ba7f163c4a11628f55a4df523b3ef",
            "0x0000000000000000000000000000000000000000000000000000000000000000",
            "0x000000000000000000000000b133a194893434107925682789f16662fb9db062",
            "0x0000000000000000000000000000000000000000000000000000000000000004"
          ],
          "data": "0x",
          "blockHash": "0x2dcd82f632bbed273318b444b9be69e0250d095ae98a9541f7f984bf8182b431",
          "blockNumber": "0x2adf9d",
          "blockTimestamp": "0x69bdaccc",
          "transactionHash": "0xbc549a29f61ed02dcc1adf22c43f1c3a6ee5522721f16c8740a222c40559d9e8",
          "transactionIndex": "0x1",
          "logIndex": "0x1",
          "removed": false
        }
      ],
      "logsBloom": "0x0000000000000000000000000000000000000000000000000000000000000000000000000000000000000000000000000000000000000000000000000000000000000000000000000000000800000000000000000000000000000000000000000800000002000001000000000000080000000000000000000000001000000000000000000000000800000000000000000000000000000200000000000000000000000000000000000000000000000010000000000000000000a000000000000000000002000000000000000000000000000000008000000000000000000020000000000001000000000000000000000000000000000000000000000000000000",
      "type": "0x0",
      "transactionHash": "0xbc549a29f61ed02dcc1adf22c43f1c3a6ee5522721f16c8740a222c40559d9e8",
      "transactionIndex": "0x1",
      "blockHash": "0x2dcd82f632bbed273318b444b9be69e0250d095ae98a9541f7f984bf8182b431",
      "blockNumber": "0x2adf9d",
      "gasUsed": "0xe561",
      "effectiveGasPrice": "0x1a13b86000",
      "from": "0xb133a194893434107925682789f16662fb9db062",
      "to": "0xc1fe74c64a9612336f0431db77234c705da8fce0",
      "contractAddress": null
    },
    {
      "status": "0x1",
      "cumulativeGasUsed": "0x15c0f",
      "logs": [
        {
          "address": "0x34bba6e8c727e87f9d720c7ba6525482914f1be5",
          "topics": [
            "0xddf252ad1be2c89b69c2b068fc378daa952ba7f163c4a11628f55a4df523b3ef",
            "0x0000000000000000000000000000000000000000000000000000000000000000",
            "0x000000000000000000000000b133a194893434107925682789f16662fb9db062",
            "0x0000000000000000000000000000000000000000000000000000000000000005"
          ],
          "data": "0x",
          "blockHash": "0x9566f45e9569702bf11138db45eca69b34f08f1c2746baf5594291053e45fb8a",
          "blockNumber": "0x2adf9e",
          "blockTimestamp": "0x69bdacd3",
          "transactionHash": "0x20919e035f61a89ac5c674bec913f7a14f4e59e07170f9e4e37ab2e66ea303e5",
          "transactionIndex": "0x1",
          "logIndex": "0x1",
          "removed": false
        }
      ],
      "logsBloom": "0x00000000000000000000000000000000000000000000000000000000000000000000000000000000000000000000000000000000000000000000000000000000000010000000000000000008000000000000000000000000000000000000000000000000020000010000000000000800000000000000000000000010000000000000000000000008000000000000001000000800000000000000000000000000000000000000000000000000000000080000000000000000008000000000000000000002000000000000000000000000000000000000000000002000000020000000000000000000000000000000000000000000000000000100000000000000",
      "type": "0x0",
      "transactionHash": "0x20919e035f61a89ac5c674bec913f7a14f4e59e07170f9e4e37ab2e66ea303e5",
      "transactionIndex": "0x1",
      "blockHash": "0x9566f45e9569702bf11138db45eca69b34f08f1c2746baf5594291053e45fb8a",
      "blockNumber": "0x2adf9e",
      "gasUsed": "0xe561",
      "effectiveGasPrice": "0x1a13b86000",
      "from": "0xb133a194893434107925682789f16662fb9db062",
      "to": "0x34bba6e8c727e87f9d720c7ba6525482914f1be5",
      "contractAddress": null
    },
    {
      "status": "0x1",
      "cumulativeGasUsed": "0x24359",
      "logs": [
        {
          "address": "0x233f833388ac52fbde7f01f4890189fae0f364bc",
          "topics": [
            "0xddf252ad1be2c89b69c2b068fc378daa952ba7f163c4a11628f55a4df523b3ef",
            "0x0000000000000000000000000000000000000000000000000000000000000000",
            "0x000000000000000000000000b133a194893434107925682789f16662fb9db062",
            "0x0000000000000000000000000000000000000000000000000000000000000005"
          ],
          "data": "0x",
          "blockHash": "0x1e375e6b048b65c23c8fadf20c7273003662c410a5e41a45e418b431588cf1e2",
          "blockNumber": "0x2adf9f",
          "blockTimestamp": "0x69bdacda",
          "transactionHash": "0x0f1673c86e17737fbe4d09847066622b93ca0994b99ed040fe68b3ecdc4c2c4f",
          "transactionIndex": "0x2",
          "logIndex": "0x2",
          "removed": false
        }
      ],
      "logsBloom": "0x00000000000000000000000000000000000000000000000000000000000000000000000000000000000000000000000000000000000000000000000000000000000010000000000000000008000000000000000000000000000000000000000000000000020000010000000008000800000000000000000400000010000000000000000000000008000000000000001000000800000000000000000000000000000000000000000000000000000000000000000000000000008000000000000000000002000000000000000000000000000000000000000000000000000020000000000000000000000000000000000000000000000040000000000000000000",
      "type": "0x0",
      "transactionHash": "0x0f1673c86e17737fbe4d09847066622b93ca0994b99ed040fe68b3ecdc4c2c4f",
      "transactionIndex": "0x2",
      "blockHash": "0x1e375e6b048b65c23c8fadf20c7273003662c410a5e41a45e418b431588cf1e2",
      "blockNumber": "0x2adf9f",
      "gasUsed": "0xe561",
      "effectiveGasPrice": "0x1a13b86000",
      "from": "0xb133a194893434107925682789f16662fb9db062",
      "to": "0x233f833388ac52fbde7f01f4890189fae0f364bc",
      "contractAddress": null
    },
    {
      "status": "0x1",
      "cumulativeGasUsed": "0x160db",
      "logs": [
        {
          "address": "0xc1fe74c64a9612336f0431db77234c705da8fce0",
          "topics": [
            "0xddf252ad1be2c89b69c2b068fc378daa952ba7f163c4a11628f55a4df523b3ef",
            "0x0000000000000000000000000000000000000000000000000000000000000000",
            "0x000000000000000000000000b133a194893434107925682789f16662fb9db062",
            "0x0000000000000000000000000000000000000000000000000000000000000005"
          ],
          "data": "0x",
          "blockHash": "0xa423c9a19102fd0ff119df661c0aa88a5538bcf2d3817d52f9b259a644433dba",
          "blockNumber": "0x2adfa0",
          "blockTimestamp": "0x69bdace1",
          "transactionHash": "0x7abeeaaf002247363c61458e354d8e606578911186cac07d86cafcb0b4ba2cca",
          "transactionIndex": "0x1",
          "logIndex": "0x2",
          "removed": false
        }
      ],
      "logsBloom": "0x00000000000000000000000000000000000000000000000000000000000000000000000000000000000000000000000000000000000000000000000000000000000010000000000000000008000000000000000000000000000000000000000000000000020000010000000000000800000000000000000000000010000000000000000000000008000000000000001000000800000002000000000000000000000000000000000000000000000000100000000000000000008000000000000000000002000000000000000000000000000000000000000000000000000020000000000001000000000000000000000000000000000000000000000000000000",
      "type": "0x0",
      "transactionHash": "0x7abeeaaf002247363c61458e354d8e606578911186cac07d86cafcb0b4ba2cca",
      "transactionIndex": "0x1",
      "blockHash": "0xa423c9a19102fd0ff119df661c0aa88a5538bcf2d3817d52f9b259a644433dba",
      "blockNumber": "0x2adfa0",
      "gasUsed": "0xe561",
      "effectiveGasPrice": "0x1a13b86000",
      "from": "0xb133a194893434107925682789f16662fb9db062",
      "to": "0xc1fe74c64a9612336f0431db77234c705da8fce0",
      "contractAddress": null
    }
  ],
  "libraries": [],
  "pending": [],
  "returns": {},
  "timestamp": 1774042065893,
  "chain": 5318007,
  "commit": "f05ef33"
}