{
  "transactions": [
    {
      "hash": "0xc1070c679352372bbff742e7de6d68615747a945f5c2af2755c7ed9adfc087d0",
      "transactionType": "CALL",
      "contractName": null,
      "contractAddress": "0x7693845a6bbdc17be0b2952b89f6e6e0ed60b6ff",
      "function": "cancelOrder(bytes32)",
      "arguments": [
        "0x3608ac6eabc44fd200f865334ef030a86bca96e7975fdbdd96055cec6b4add76"
      ],
      "transaction": {
        "from": "0xb133a194893434107925682789f16662fb9db062",
        "to": "0x7693845a6bbdc17be0b2952b89f6e6e0ed60b6ff",
        "gas": "0x29be5",
        "value": "0x0",
        "input": "0x7489ec233608ac6eabc44fd200f865334ef030a86bca96e7975fdbdd96055cec6b4add76",
        "nonce": "0xf1",
        "chainId": "0xaa36a7"
      },
      "additionalContracts": [],
      "isFixedGasLimit": false
    }
  ],
  "receipts": [
    {
      "status": "0x1",
      "cumulativeGasUsed": "0x124ff80",
      "logs": [
        {
          "address": "0xcc959a94cabadff06444afcab8949a66c8c3f508",
          "topics": [
            "0x9bf2168d383c9f4e4f2477bcc00eb29f933d24976d3b7208d85a5941d93bd842",
            "0x0000000000000000000000000000000000000000000000000000000000000000",
            "0x0000000000000000000000000000000000000000000000000000000000000000"
          ],
          "data": "0x000000000000000000000000000000000000000000000000000000000000000000000000000000000000000000000000000000000000000000000000696d4454",
          "blockHash": "0x426ca79dead0f17f6c273fbe3ff16ce7eeb745221b150eb3748bb433c239758c",
          "blockNumber": "0x99b3e7",
          "blockTimestamp": "0x696d4454",
          "transactionHash": "0xc1070c679352372bbff742e7de6d68615747a945f5c2af2755c7ed9adfc087d0",
          "transactionIndex": "0x25",
          "logIndex": "0x25b",
          "removed": false
        },
        {
          "address": "0x8c7c2c9993c5eaf5db3d1a926278cbe0686bfe45",
          "topics": [
            "0x9fd0bba2c594ed767890777df1ba413a19b3ba8007b41fe1abbc056e66706342",
            "0x3608ac6eabc44fd200f865334ef030a86bca96e7975fdbdd96055cec6b4add76"
          ],
          "data": "0x000000000000000000000000000000000000000000000000000000000000004000000000000000000000000000000000000000000000000000000000696d4454000000000000000000000000000000000000000000000000000000000000000e557365722063616e63656c6c6564000000000000000000000000000000000000",
          "blockHash": "0x426ca79dead0f17f6c273fbe3ff16ce7eeb745221b150eb3748bb433c239758c",
          "blockNumber": "0x99b3e7",
          "blockTimestamp": "0x696d4454",
          "transactionHash": "0xc1070c679352372bbff742e7de6d68615747a945f5c2af2755c7ed9adfc087d0",
          "transactionIndex": "0x25",
          "logIndex": "0x25c",
          "removed": false
        }
      ],
      "logsBloom": "0x00000000000000008000000004000000000000000000000000100000000000000000000000000000000000040000000000000000800000080000000000000000000000000000000000000000000000000000000000000000000000000000000000000000020000000000000000000800000000000000000000000000000000000000000000000000000000000000000000000000000000000000000000000020000000000008000020000000000000000020000000000000040000000240000000000000000000000200000000000000000000000000000000000000000020000020000000000000000000000000000000000000000000000000000000000000",
      "type": "0x0",
      "transactionHash": "0xc1070c679352372bbff742e7de6d68615747a945f5c2af2755c7ed9adfc087d0",
      "transactionIndex": "0x25",
      "blockHash": "0x426ca79dead0f17f6c273fbe3ff16ce7eeb745221b150eb3748bb433c239758c",
      "blockNumber": "0x99b3e7",
      "gasUsed": "0x1e38c",
      "effectiveGasPrice": "0x3ccf6f7a",
      "from": "0xb133a194893434107925682789f16662fb9db062",
      "to": "0x7693845a6bbdc17be0b2952b89f6e6e0ed60b6ff",
      "contractAddress": null
    }
  ],
  "libraries": [],
  "pending": [],
  "returns": {},
  "timestamp": 1768772432600,
  "chain": 11155111,
  "commit": null
}