{
  "transactions": [
    {
      "hash": "0x19cb6992523ae35f789426bbd17f1e4317f8ecf299fe4448b68ab370e86567a7",
      "transactionType": "CALL",
      "contractName": null,
      "contractAddress": "0x42b965ac6f70196d5fb9df8513e28ef4fe728ebd",
      "function": "mint(address)",
      "arguments": [
        "0xB133a194893434107925682789F16662FB9DB062"
      ],
      "transaction": {
        "from": "0xb133a194893434107925682789f16662fb9db062",
        "to": "0x42b965ac6f70196d5fb9df8513e28ef4fe728ebd",
        "gas": "0x1313d",
        "value": "0x0",
        "input": "0x6a627842000000000000000000000000b133a194893434107925682789f16662fb9db062",
        "nonce": "0x10f",
        "chainId": "0xaa36a7"
      },
      "additionalContracts": [],
      "isFixedGasLimit": false
    },
    {
      "hash": "0xb1421a05f0a2bc517b4accf637947fb4c555aeb873026d40e6fc9f8872284cbf",
      "transactionType": "CALL",
      "contractName": null,
      "contractAddress": "0x42b965ac6f70196d5fb9df8513e28ef4fe728ebd",
      "function": "approve(address,uint256)",
      "arguments": [
        "0x0000000000000000000000000000000000001234",
        "1"
      ],
      "transaction": {
        "from": "0xb133a194893434107925682789f16662fb9db062",
        "to": "0x42b965ac6f70196d5fb9df8513e28ef4fe728ebd",
        "gas": "0x99bd",
        "value": "0x0",
        "input": "0x095ea7b300000000000000000000000000000000000000000000000000000000000012340000000000000000000000000000000000000000000000000000000000000001",
        "nonce": "0x110",
        "chainId": "0xaa36a7"
      },
      "additionalContracts": [],
      "isFixedGasLimit": false
    }
  ],
  "receipts": [
    {
      "status": "0x1",
      "cumulativeGasUsed": "0x144a80c",
      "logs": [
        {
          "address": "0x42b965ac6f70196d5fb9df8513e28ef4fe728ebd",
          "topics": [
            "0xddf252ad1be2c89b69c2b068fc378daa952ba7f163c4a11628f55a4df523b3ef",
            "0x0000000000000000000000000000000000000000000000000000000000000000",
            "0x000000000000000000000000b133a194893434107925682789f16662fb9db062",
            "0x0000000000000000000000000000000000000000000000000000000000000008"
          ],
          "data": "0x",
          "blockHash": "0x8c145b9cb20582d8fda5c8175f669a14786dc0d7724d42be8b7f2eddbfdaa539",
          "blockNumber": "0x99d41c",
          "blockTimestamp": "0x696ec784",
          "transactionHash": "0x19cb6992523ae35f789426bbd17f1e4317f8ecf299fe4448b68ab370e86567a7",
          "transactionIndex": "0x30",
          "logIndex": "0x22c",
          "removed": false
        }
      ],
      "logsBloom": "0x00000000000000000000000000000000000000000000000000000000020000000000000000000000000000000000000000000000000080000000000000000000000000000000000000000008000000004000000000000000000000000000000000000000020000010000000000000800000000000000000000000010000000000080000000000008000000000000000000000000000000000000000000000000000000000000000000000000000000000000000000000000008000000000000040000002000040000000000000000000000000000000000000000000000020000000000000000000000000000000000000000000000000000000000000000000",
      "type": "0x0",
      "transactionHash": "0x19cb6992523ae35f789426bbd17f1e4317f8ecf299fe4448b68ab370e86567a7",
      "transactionIndex": "0x30",
      "blockHash": "0x8c145b9cb20582d8fda5c8175f669a14786dc0d7724d42be8b7f2eddbfdaa539",
      "blockNumber": "0x99d41c",
      "gasUsed": "0xdcfe",
      "effectiveGasPrice": "0x3d4c6d4e",
      "from": "0xb133a194893434107925682789f16662fb9db062",
      "to": "0x42b965ac6f70196d5fb9df8513e28ef4fe728ebd",
      "contractAddress": null
    },
    {
      "status": "0x1",
      "cumulativeGasUsed": "0x145175b",
      "logs": [
        {
          "address": "0x42b965ac6f70196d5fb9df8513e28ef4fe728ebd",
          "topics": [
            "0x8c5be1e5ebec7d5bd14f71427d1e84f3dd0314c0f7b2291e5b200ac8c7c3b925",
            "0x000000000000000000000000b133a194893434107925682789f16662fb9db062",
            "0x0000000000000000000000000000000000000000000000000000000000001234",
            "0x0000000000000000000000000000000000000000000000000000000000000001"
          ],
          "data": "0x",
          "blockHash": "0x8c145b9cb20582d8fda5c8175f669a14786dc0d7724d42be8b7f2eddbfdaa539",
          "blockNumber": "0x99d41c",
          "blockTimestamp": "0x696ec784",
          "transactionHash": "0xb1421a05f0a2bc517b4accf637947fb4c555aeb873026d40e6fc9f8872284cbf",
          "transactionIndex": "0x31",
          "logIndex": "0x22d",
          "removed": false
        }
      ],
      "logsBloom": "0x00000000000000000000000000000000000000000000000000000000020000000000000000000000000000000000000000000000000000000000000000240000000000000000000000000000000000004000000000040000000000000000000000000000000000010000000000000000000000000000000000000000000000002000000000000008000000000000000000000000000000000000000200000000020000000000000000000000000000000000000000000000008000000000000000000000000040000000000000000000000000000000000000000000000040010010000000000000000000000000000000000000000000000000000000000000",
      "type": "0x0",
      "transactionHash": "0xb1421a05f0a2bc517b4accf637947fb4c555aeb873026d40e6fc9f8872284cbf",
      "transactionIndex": "0x31",
      "blockHash": "0x8c145b9cb20582d8fda5c8175f669a14786dc0d7724d42be8b7f2eddbfdaa539",
      "blockNumber": "0x99d41c",
      "gasUsed": "0x6f4f",
      "effectiveGasPrice": "0x3d4c6d4e",
      "from": "0xb133a194893434107925682789f16662fb9db062",
      "to": "0x42b965ac6f70196d5fb9df8513e28ef4fe728ebd",
      "contractAddress": null
    }
  ],
  "libraries": [],
  "pending": [],
  "returns": {},
  "timestamp": 1768871553186,
  "chain": 11155111,
  "commit": null
}