{
  "transactions": [
    {
      "hash": "0xeeca07b75eec04f99fc0e1bf7890ecc45be0f930c3b04f22341d8f3cdcafcad1",
      "transactionType": "CALL",
      "contractName": null,
      "contractAddress": "0x42b965ac6f70196d5fb9df8513e28ef4fe728ebd",
      "function": "mint(address)",
      "arguments": [
        "0xB133a194893434107925682789F16662FB9DB062"
      ],
      "transaction": {
        "from": "0xb133a194893434107925682789f16662fb9db062",
        "to": "0x42b965ac6f70196d5fb9df8513e28ef4fe728ebd",
        "gas": "0x1313d",
        "value": "0x0",
        "input": "0x6a627842000000000000000000000000b133a194893434107925682789f16662fb9db062",
        "nonce": "0x10b",
        "chainId": "0xaa36a7"
      },
      "additionalContracts": [],
      "isFixedGasLimit": false
    },
    {
      "hash": "0xc10b8131e8e838bb853994d758760cfdfdaa25cb2e501da5b610401de1ed7dff",
      "transactionType": "CALL",
      "contractName": null,
      "contractAddress": "0x42b965ac6f70196d5fb9df8513e28ef4fe728ebd",
      "function": "approve(address,uint256)",
      "arguments": [
        "0x0000000000000000000000000000000000001234",
        "1"
      ],
      "transaction": {
        "from": "0xb133a194893434107925682789f16662fb9db062",
        "to": "0x42b965ac6f70196d5fb9df8513e28ef4fe728ebd",
        "gas": "0x99bd",
        "value": "0x0",
        "input": "0x095ea7b300000000000000000000000000000000000000000000000000000000000012340000000000000000000000000000000000000000000000000000000000000001",
        "nonce": "0x10c",
        "chainId": "0xaa36a7"
      },
      "additionalContracts": [],
      "isFixedGasLimit": false
    }
  ],
  "receipts": [
    {
      "status": "0x1",
      "cumulativeGasUsed": "0x207b530",
      "logs": [
        {
          "address": "0x42b965ac6f70196d5fb9df8513e28ef4fe728ebd",
          "topics": [
            "0xddf252ad1be2c89b69c2b068fc378daa952ba7f163c4a11628f55a4df523b3ef",
            "0x0000000000000000000000000000000000000000000000000000000000000000",
            "0x000000000000000000000000b133a194893434107925682789f16662fb9db062",
            "0x0000000000000000000000000000000000000000000000000000000000000006"
          ],
          "data": "0x",
          "blockHash": "0xf7c8b9c0a60fa002a17306890a45d650f4eabf2249a9ca1c35c3e06d6a149030",
          "blockNumber": "0x99d318",
          "blockTimestamp": "0x696ebb54",
          "transactionHash": "0xeeca07b75eec04f99fc0e1bf7890ecc45be0f930c3b04f22341d8f3cdcafcad1",
          "transactionIndex": "0x40",
          "logIndex": "0x40d",
          "removed": false
        }
      ],
      "logsBloom": "0x00000000000000000000000000000000000000000000000000000000020000000000000000000000000000000000000000000000000400000000000000000000000000000000000000000008000000004000000000000000000000000000000000000000020000010000000000000800000000000000000000000010000000000000000400000008000000000000000000000000000000000000000000000000000000000000000000000000000000000000000000000000008000080000000000000002000040000000000000000000000000000000000000000000000020000000000000000000000000000000000000000000000000000000000000000000",
      "type": "0x0",
      "transactionHash": "0xeeca07b75eec04f99fc0e1bf7890ecc45be0f930c3b04f22341d8f3cdcafcad1",
      "transactionIndex": "0x40",
      "blockHash": "0xf7c8b9c0a60fa002a17306890a45d650f4eabf2249a9ca1c35c3e06d6a149030",
      "blockNumber": "0x99d318",
      "gasUsed": "0xdcfe",
      "effectiveGasPrice": "0xfeb88e52",
      "from": "0xb133a194893434107925682789f16662fb9db062",
      "to": "0x42b965ac6f70196d5fb9df8513e28ef4fe728ebd",
      "contractAddress": null
    },
    {
      "status": "0x1",
      "cumulativeGasUsed": "0x208247f",
      "logs": [
        {
          "address": "0x42b965ac6f70196d5fb9df8513e28ef4fe728ebd",
          "topics": [
            "0x8c5be1e5ebec7d5bd14f71427d1e84f3dd0314c0f7b2291e5b200ac8c7c3b925",
            "0x000000000000000000000000b133a194893434107925682789f16662fb9db062",
            "0x0000000000000000000000000000000000000000000000000000000000001234",
            "0x0000000000000000000000000000000000000000000000000000000000000001"
          ],
          "data": "0x",
          "blockHash": "0xf7c8b9c0a60fa002a17306890a45d650f4eabf2249a9ca1c35c3e06d6a149030",
          "blockNumber": "0x99d318",
          "blockTimestamp": "0x696ebb54",
          "transactionHash": "0xc10b8131e8e838bb853994d758760cfdfdaa25cb2e501da5b610401de1ed7dff",
          "transactionIndex": "0x41",
          "logIndex": "0x40e",
          "removed": false
        }
      ],
      "logsBloom": "0x00000000000000000000000000000000000000000000000000000000020000000000000000000000000000000000000000000000000000000000000000240000000000000000000000000000000000004000000000040000000000000000000000000000000000010000000000000000000000000000000000000000000000002000000000000008000000000000000000000000000000000000000200000000020000000000000000000000000000000000000000000000008000000000000000000000000040000000000000000000000000000000000000000000000040010010000000000000000000000000000000000000000000000000000000000000",
      "type": "0x0",
      "transactionHash": "0xc10b8131e8e838bb853994d758760cfdfdaa25cb2e501da5b610401de1ed7dff",
      "transactionIndex": "0x41",
      "blockHash": "0xf7c8b9c0a60fa002a17306890a45d650f4eabf2249a9ca1c35c3e06d6a149030",
      "blockNumber": "0x99d318",
      "gasUsed": "0x6f4f",
      "effectiveGasPrice": "0xfeb88e52",
      "from": "0xb133a194893434107925682789f16662fb9db062",
      "to": "0x42b965ac6f70196d5fb9df8513e28ef4fe728ebd",
      "contractAddress": null
    }
  ],
  "libraries": [],
  "pending": [],
  "returns": {},
  "timestamp": 1768868434865,
  "chain": 11155111,
  "commit": null
}