{
  "transactions": [
    {
      "hash": "0x503474895bbadf337244c901e7809ff4d243deaecde76cedb5f76e95a845b38f",
      "transactionType": "CALL",
      "contractName": null,
      "contractAddress": "0x42b965ac6f70196d5fb9df8513e28ef4fe728ebd",
      "function": "mint(address)",
      "arguments": [
        "0xB133a194893434107925682789F16662FB9DB062"
      ],
      "transaction": {
        "from": "0xb133a194893434107925682789f16662fb9db062",
        "to": "0x42b965ac6f70196d5fb9df8513e28ef4fe728ebd",
        "gas": "0x1313d",
        "value": "0x0",
        "input": "0x6a627842000000000000000000000000b133a194893434107925682789f16662fb9db062",
        "nonce": "0x10d",
        "chainId": "0xaa36a7"
      },
      "additionalContracts": [],
      "isFixedGasLimit": false
    },
    {
      "hash": "0xe81b05a96552da0145e3040d1f7bb3803f01f849f9ad797eb5cf24a8f609974e",
      "transactionType": "CALL",
      "contractName": null,
      "contractAddress": "0x42b965ac6f70196d5fb9df8513e28ef4fe728ebd",
      "function": "approve(address,uint256)",
      "arguments": [
        "0x0000000000000000000000000000000000001234",
        "1"
      ],
      "transaction": {
        "from": "0xb133a194893434107925682789f16662fb9db062",
        "to": "0x42b965ac6f70196d5fb9df8513e28ef4fe728ebd",
        "gas": "0x99bd",
        "value": "0x0",
        "input": "0x095ea7b300000000000000000000000000000000000000000000000000000000000012340000000000000000000000000000000000000000000000000000000000000001",
        "nonce": "0x10e",
        "chainId": "0xaa36a7"
      },
      "additionalContracts": [],
      "isFixedGasLimit": false
    }
  ],
  "receipts": [
    {
      "status": "0x1",
      "cumulativeGasUsed": "0xe03012",
      "logs": [
        {
          "address": "0x42b965ac6f70196d5fb9df8513e28ef4fe728ebd",
          "topics": [
            "0xddf252ad1be2c89b69c2b068fc378daa952ba7f163c4a11628f55a4df523b3ef",
            "0x0000000000000000000000000000000000000000000000000000000000000000",
            "0x000000000000000000000000b133a194893434107925682789f16662fb9db062",
            "0x0000000000000000000000000000000000000000000000000000000000000007"
          ],
          "data": "0x",
          "blockHash": "0xaf107c06597c7d8634ac2dc33ee148c07611614e9e4cd5c8a7367d0f3f31df9c",
          "blockNumber": "0x99d3e1",
          "blockTimestamp": "0x696ec4c0",
          "transactionHash": "0xe81b05a96552da0145e3040d1f7bb3803f01f849f9ad797eb5cf24a8f609974e",
          "transactionIndex": "0x1d",
          "logIndex": "0x1cc",
          "removed": false
        }
      ],
      "logsBloom": "0x00000000000000000000000000000000000000000000000000000000020000000000000000000000000000000000000000001000000000000000000000000000000020000000000000000008000000004000000000000000000000000000000000000000020000010000000000000800000000000000000000000010000000000000000000000008000000000000000000000000000000000000000000000000000000000000000000000000000000000000000000000000008000000000000000000002000040000000000000000000000000000000000000000100000020000000000000000000000000000000000000000000000000000000000000000000",
      "type": "0x0",
      "transactionHash": "0xe81b05a96552da0145e3040d1f7bb3803f01f849f9ad797eb5cf24a8f609974e",
      "transactionIndex": "0x1d",
      "blockHash": "0xaf107c06597c7d8634ac2dc33ee148c07611614e9e4cd5c8a7367d0f3f31df9c",
      "blockNumber": "0x99d3e1",
      "gasUsed": "0xdcfe",
      "effectiveGasPrice": "0x3f83343b",
      "from": "0xb133a194893434107925682789f16662fb9db062",
      "to": "0x42b965ac6f70196d5fb9df8513e28ef4fe728ebd",
      "contractAddress": null
    },
    {
      "status": "0x1",
      "cumulativeGasUsed": "0xe09f61",
      "logs": [
        {
          "address": "0x42b965ac6f70196d5fb9df8513e28ef4fe728ebd",
          "topics": [
            "0x8c5be1e5ebec7d5bd14f71427d1e84f3dd0314c0f7b2291e5b200ac8c7c3b925",
            "0x000000000000000000000000b133a194893434107925682789f16662fb9db062",
            "0x0000000000000000000000000000000000000000000000000000000000001234",
            "0x0000000000000000000000000000000000000000000000000000000000000001"
          ],
          "data": "0x",
          "blockHash": "0xaf107c06597c7d8634ac2dc33ee148c07611614e9e4cd5c8a7367d0f3f31df9c",
          "blockNumber": "0x99d3e1",
          "blockTimestamp": "0x696ec4c0",
          "transactionHash": "0x503474895bbadf337244c901e7809ff4d243deaecde76cedb5f76e95a845b38f",
          "transactionIndex": "0x1e",
          "logIndex": "0x1cd",
          "removed": false
        }
      ],
      "logsBloom": "0x00000000000000000000000000000000000000000000000000000000020000000000000000000000000000000000000000000000000000000000000000240000000000000000000000000000000000004000000000040000000000000000000000000000000000010000000000000000000000000000000000000000000000002000000000000008000000000000000000000000000000000000000200000000020000000000000000000000000000000000000000000000008000000000000000000000000040000000000000000000000000000000000000000000000040010010000000000000000000000000000000000000000000000000000000000000",
      "type": "0x0",
      "transactionHash": "0x503474895bbadf337244c901e7809ff4d243deaecde76cedb5f76e95a845b38f",
      "transactionIndex": "0x1e",
      "blockHash": "0xaf107c06597c7d8634ac2dc33ee148c07611614e9e4cd5c8a7367d0f3f31df9c",
      "blockNumber": "0x99d3e1",
      "gasUsed": "0x6f4f",
      "effectiveGasPrice": "0x3f83343b",
      "from": "0xb133a194893434107925682789f16662fb9db062",
      "to": "0x42b965ac6f70196d5fb9df8513e28ef4fe728ebd",
      "contractAddress": null
    }
  ],
  "libraries": [],
  "pending": [],
  "returns": {},
  "timestamp": 1768870845087,
  "chain": 11155111,
  "commit": null
}