{
  "transactions": [
    {
      "hash": "0x3397aa5e2c811f4a823a3ec3f0689dba67d7a6c893efa3b95cf1d55c75c4d2aa",
      "transactionType": "CALL",
      "contractName": null,
      "contractAddress": "0x42b965ac6f70196d5fb9df8513e28ef4fe728ebd",
      "function": "mint(address)",
      "arguments": [
        "0xB133a194893434107925682789F16662FB9DB062"
      ],
      "transaction": {
        "from": "0xb133a194893434107925682789f16662fb9db062",
        "to": "0x42b965ac6f70196d5fb9df8513e28ef4fe728ebd",
        "gas": "0x1313d",
        "value": "0x0",
        "input": "0x6a627842000000000000000000000000b133a194893434107925682789f16662fb9db062",
        "nonce": "0x113",
        "chainId": "0xaa36a7"
      },
      "additionalContracts": [],
      "isFixedGasLimit": false
    },
    {
      "hash": "0xe6b289b479632cebc3092a72dad38143fa112314286cf8c66d25a05e9228d052",
      "transactionType": "CALL",
      "contractName": null,
      "contractAddress": "0x42b965ac6f70196d5fb9df8513e28ef4fe728ebd",
      "function": "approve(address,uint256)",
      "arguments": [
        "0x0000000000000000000000000000000000001234",
        "1"
      ],
      "transaction": {
        "from": "0xb133a194893434107925682789f16662fb9db062",
        "to": "0x42b965ac6f70196d5fb9df8513e28ef4fe728ebd",
        "gas": "0x99bd",
        "value": "0x0",
        "input": "0x095ea7b300000000000000000000000000000000000000000000000000000000000012340000000000000000000000000000000000000000000000000000000000000001",
        "nonce": "0x114",
        "chainId": "0xaa36a7"
      },
      "additionalContracts": [],
      "isFixedGasLimit": false
    }
  ],
  "receipts": [
    {
      "status": "0x1",
      "cumulativeGasUsed": "0x12fa52f",
      "logs": [
        {
          "address": "0x42b965ac6f70196d5fb9df8513e28ef4fe728ebd",
          "topics": [
            "0xddf252ad1be2c89b69c2b068fc378daa952ba7f163c4a11628f55a4df523b3ef",
            "0x0000000000000000000000000000000000000000000000000000000000000000",
            "0x000000000000000000000000b133a194893434107925682789f16662fb9db062",
            "0x000000000000000000000000000000000000000000000000000000000000000a"
          ],
          "data": "0x",
          "blockHash": "0xa12f698bc4d7130481c963a1bbca4ec2e93b43cb7dfbb9e92622dd0928583615",
          "blockNumber": "0x99d4f2",
          "blockTimestamp": "0x696ed198",
          "transactionHash": "0xe6b289b479632cebc3092a72dad38143fa112314286cf8c66d25a05e9228d052",
          "transactionIndex": "0x33",
          "logIndex": "0x24b",
          "removed": false
        }
      ],
      "logsBloom": "0x00000000000000000000000000000000000000000000000000000000020000000000000000000000000000000000000000000000040000000020000000000000000000000000000000000008000000004000000000000000000000000000000000000000020000010000000000000800000000000000000000000010000000000000000000000008010000000000000000000000000000000000000000000000000000000000000000000000000000000000000000000000008000000000000000000002000040000000000000000000000000000000000000000000000020000000000000000000000000000000000000000000000000000000000000000000",
      "type": "0x0",
      "transactionHash": "0xe6b289b479632cebc3092a72dad38143fa112314286cf8c66d25a05e9228d052",
      "transactionIndex": "0x33",
      "blockHash": "0xa12f698bc4d7130481c963a1bbca4ec2e93b43cb7dfbb9e92622dd0928583615",
      "blockNumber": "0x99d4f2",
      "gasUsed": "0xdcfe",
      "effectiveGasPrice": "0x3e3aff3d",
      "from": "0xb133a194893434107925682789f16662fb9db062",
      "to": "0x42b965ac6f70196d5fb9df8513e28ef4fe728ebd",
      "contractAddress": null
    },
    {
      "status": "0x1",
      "cumulativeGasUsed": "0x130147e",
      "logs": [
        {
          "address": "0x42b965ac6f70196d5fb9df8513e28ef4fe728ebd",
          "topics": [
            "0x8c5be1e5ebec7d5bd14f71427d1e84f3dd0314c0f7b2291e5b200ac8c7c3b925",
            "0x000000000000000000000000b133a194893434107925682789f16662fb9db062",
            "0x0000000000000000000000000000000000000000000000000000000000001234",
            "0x0000000000000000000000000000000000000000000000000000000000000001"
          ],
          "data": "0x",
          "blockHash": "0xa12f698bc4d7130481c963a1bbca4ec2e93b43cb7dfbb9e92622dd0928583615",
          "blockNumber": "0x99d4f2",
          "blockTimestamp": "0x696ed198",
          "transactionHash": "0x3397aa5e2c811f4a823a3ec3f0689dba67d7a6c893efa3b95cf1d55c75c4d2aa",
          "transactionIndex": "0x34",
          "logIndex": "0x24c",
          "removed": false
        }
      ],
      "logsBloom": "0x00000000000000000000000000000000000000000000000000000000020000000000000000000000000000000000000000000000000000000000000000240000000000000000000000000000000000004000000000040000000000000000000000000000000000010000000000000000000000000000000000000000000000002000000000000008000000000000000000000000000000000000000200000000020000000000000000000000000000000000000000000000008000000000000000000000000040000000000000000000000000000000000000000000000040010010000000000000000000000000000000000000000000000000000000000000",
      "type": "0x0",
      "transactionHash": "0x3397aa5e2c811f4a823a3ec3f0689dba67d7a6c893efa3b95cf1d55c75c4d2aa",
      "transactionIndex": "0x34",
      "blockHash": "0xa12f698bc4d7130481c963a1bbca4ec2e93b43cb7dfbb9e92622dd0928583615",
      "blockNumber": "0x99d4f2",
      "gasUsed": "0x6f4f",
      "effectiveGasPrice": "0x3e3aff3d",
      "from": "0xb133a194893434107925682789f16662fb9db062",
      "to": "0x42b965ac6f70196d5fb9df8513e28ef4fe728ebd",
      "contractAddress": null
    }
  ],
  "libraries": [],
  "pending": [],
  "returns": {},
  "timestamp": 1768874133732,
  "chain": 11155111,
  "commit": null
}