{
  "transactions": [
    {
      "hash": "0xb0a77bd7ee52cf64fa98b84f2461fb7dc24661191972eefe45afa1f76e2a45ed",
      "transactionType": "CALL",
      "contractName": null,
      "contractAddress": "0x42b965ac6f70196d5fb9df8513e28ef4fe728ebd",
      "function": "mint(address)",
      "arguments": [
        "0xB133a194893434107925682789F16662FB9DB062"
      ],
      "transaction": {
        "from": "0xb133a194893434107925682789f16662fb9db062",
        "to": "0x42b965ac6f70196d5fb9df8513e28ef4fe728ebd",
        "gas": "0x1313d",
        "value": "0x0",
        "input": "0x6a627842000000000000000000000000b133a194893434107925682789f16662fb9db062",
        "nonce": "0x107",
        "chainId": "0xaa36a7"
      },
      "additionalContracts": [],
      "isFixedGasLimit": false
    },
    {
      "hash": "0xe850af8981a758039fa7090e738141803b5a74fef6cc266665b517ecb0dc2e60",
      "transactionType": "CALL",
      "contractName": null,
      "contractAddress": "0x42b965ac6f70196d5fb9df8513e28ef4fe728ebd",
      "function": "approve(address,uint256)",
      "arguments": [
        "0x0000000000000000000000000000000000001234",
        "1"
      ],
      "transaction": {
        "from": "0xb133a194893434107925682789f16662fb9db062",
        "to": "0x42b965ac6f70196d5fb9df8513e28ef4fe728ebd",
        "gas": "0x11479",
        "value": "0x0",
        "input": "0x095ea7b300000000000000000000000000000000000000000000000000000000000012340000000000000000000000000000000000000000000000000000000000000001",
        "nonce": "0x108",
        "chainId": "0xaa36a7"
      },
      "additionalContracts": [],
      "isFixedGasLimit": false
    }
  ],
  "receipts": [
    {
      "status": "0x1",
      "cumulativeGasUsed": "0x4baa0d",
      "logs": [
        {
          "address": "0x42b965ac6f70196d5fb9df8513e28ef4fe728ebd",
          "topics": [
            "0xddf252ad1be2c89b69c2b068fc378daa952ba7f163c4a11628f55a4df523b3ef",
            "0x0000000000000000000000000000000000000000000000000000000000000000",
            "0x000000000000000000000000b133a194893434107925682789f16662fb9db062",
            "0x0000000000000000000000000000000000000000000000000000000000000004"
          ],
          "data": "0x",
          "blockHash": "0x4f40d30cfb36085ae59aa294d4c574ef06206a2cec1faf1a5cdfafd8fc91eb14",
          "blockNumber": "0x99d2c4",
          "blockTimestamp": "0x696eb758",
          "transactionHash": "0xb0a77bd7ee52cf64fa98b84f2461fb7dc24661191972eefe45afa1f76e2a45ed",
          "transactionIndex": "0x27",
          "logIndex": "0x2a",
          "removed": false
        }
      ],
      "logsBloom": "0x0000000000000000000000000000000000000000000000000000000002000000000000000000000000000000000000000000000000000000000000000000000000000000000000000000000800000000400000000000000000000000000000000800000002000001000000000000080000000000000000000000001000000000000000000000000800000000000000000000000000000000000000000000000000000000000000000000000000000000000000000000000000a000000000000000000002000040000000000000000000000000008000000000000000000020000000000000000000000000000000000000000000000000000000000000000000",
      "type": "0x0",
      "transactionHash": "0xb0a77bd7ee52cf64fa98b84f2461fb7dc24661191972eefe45afa1f76e2a45ed",
      "transactionIndex": "0x27",
      "blockHash": "0x4f40d30cfb36085ae59aa294d4c574ef06206a2cec1faf1a5cdfafd8fc91eb14",
      "blockNumber": "0x99d2c4",
      "gasUsed": "0xdcfe",
      "effectiveGasPrice": "0x6c6670d5",
      "from": "0xb133a194893434107925682789f16662fb9db062",
      "to": "0x42b965ac6f70196d5fb9df8513e28ef4fe728ebd",
      "contractAddress": null
    },
    {
      "status": "0x1",
      "cumulativeGasUsed": "0x4c6718",
      "logs": [
        {
          "address": "0x42b965ac6f70196d5fb9df8513e28ef4fe728ebd",
          "topics": [
            "0x8c5be1e5ebec7d5bd14f71427d1e84f3dd0314c0f7b2291e5b200ac8c7c3b925",
            "0x000000000000000000000000b133a194893434107925682789f16662fb9db062",
            "0x0000000000000000000000000000000000000000000000000000000000001234",
            "0x0000000000000000000000000000000000000000000000000000000000000001"
          ],
          "data": "0x",
          "blockHash": "0x4f40d30cfb36085ae59aa294d4c574ef06206a2cec1faf1a5cdfafd8fc91eb14",
          "blockNumber": "0x99d2c4",
          "blockTimestamp": "0x696eb758",
          "transactionHash": "0xe850af8981a758039fa7090e738141803b5a74fef6cc266665b517ecb0dc2e60",
          "transactionIndex": "0x28",
          "logIndex": "0x2b",
          "removed": false
        }
      ],
      "logsBloom": "0x00000000000000000000000000000000000000000000000000000000020000000000000000000000000000000000000000000000000000000000000000240000000000000000000000000000000000004000000000040000000000000000000000000000000000010000000000000000000000000000000000000000000000002000000000000008000000000000000000000000000000000000000200000000020000000000000000000000000000000000000000000000008000000000000000000000000040000000000000000000000000000000000000000000000040010010000000000000000000000000000000000000000000000000000000000000",
      "type": "0x0",
      "transactionHash": "0xe850af8981a758039fa7090e738141803b5a74fef6cc266665b517ecb0dc2e60",
      "transactionIndex": "0x28",
      "blockHash": "0x4f40d30cfb36085ae59aa294d4c574ef06206a2cec1faf1a5cdfafd8fc91eb14",
      "blockNumber": "0x99d2c4",
      "gasUsed": "0xbd0b",
      "effectiveGasPrice": "0x6c6670d5",
      "from": "0xb133a194893434107925682789f16662fb9db062",
      "to": "0x42b965ac6f70196d5fb9df8513e28ef4fe728ebd",
      "contractAddress": null
    }
  ],
  "libraries": [],
  "pending": [],
  "returns": {},
  "timestamp": 1768867413081,
  "chain": 11155111,
  "commit": null
}