{
  "transactions": [
    {
      "hash": "0xb9ea874772a79f6c000cddf1fd659432d742ce6db0e7d781e54d5554b103fcfe",
      "transactionType": "CALL",
      "contractName": null,
      "contractAddress": "0x42b965ac6f70196d5fb9df8513e28ef4fe728ebd",
      "function": "mint(address)",
      "arguments": [
        "0xB133a194893434107925682789F16662FB9DB062"
      ],
      "transaction": {
        "from": "0xb133a194893434107925682789f16662fb9db062",
        "to": "0x42b965ac6f70196d5fb9df8513e28ef4fe728ebd",
        "gas": "0x1313d",
        "value": "0x0",
        "input": "0x6a627842000000000000000000000000b133a194893434107925682789f16662fb9db062",
        "nonce": "0x111",
        "chainId": "0xaa36a7"
      },
      "additionalContracts": [],
      "isFixedGasLimit": false
    },
    {
      "hash": "0x7adae16acebf2f7d097b96e989cb454eaa2eeda8aacfe898c81c21d3dba33fdd",
      "transactionType": "CALL",
      "contractName": null,
      "contractAddress": "0x42b965ac6f70196d5fb9df8513e28ef4fe728ebd",
      "function": "approve(address,uint256)",
      "arguments": [
        "0x0000000000000000000000000000000000001234",
        "1"
      ],
      "transaction": {
        "from": "0xb133a194893434107925682789f16662fb9db062",
        "to": "0x42b965ac6f70196d5fb9df8513e28ef4fe728ebd",
        "gas": "0x99bd",
        "value": "0x0",
        "input": "0x095ea7b300000000000000000000000000000000000000000000000000000000000012340000000000000000000000000000000000000000000000000000000000000001",
        "nonce": "0x112",
        "chainId": "0xaa36a7"
      },
      "additionalContracts": [],
      "isFixedGasLimit": false
    }
  ],
  "receipts": [
    {
      "status": "0x1",
      "cumulativeGasUsed": "0x1173346",
      "logs": [
        {
          "address": "0x42b965ac6f70196d5fb9df8513e28ef4fe728ebd",
          "topics": [
            "0xddf252ad1be2c89b69c2b068fc378daa952ba7f163c4a11628f55a4df523b3ef",
            "0x0000000000000000000000000000000000000000000000000000000000000000",
            "0x000000000000000000000000b133a194893434107925682789f16662fb9db062",
            "0x0000000000000000000000000000000000000000000000000000000000000009"
          ],
          "data": "0x",
          "blockHash": "0x83610e89e7bb19ac3be1b27e1addc1272387475d2b7f8d15ed691875e7d60b7d",
          "blockNumber": "0x99d498",
          "blockTimestamp": "0x696ecd60",
          "transactionHash": "0xb9ea874772a79f6c000cddf1fd659432d742ce6db0e7d781e54d5554b103fcfe",
          "transactionIndex": "0x29",
          "logIndex": "0x201",
          "removed": false
        }
      ],
      "logsBloom": "0x00000000000000000000000000000000000000000000000000000000020000000000000000000000000000000000000000000000000000000000000000200000000000000000000000000008000000004000000000000000000000000000000000000000020000010000000000000800000000000000000000000010000000000000000000000008000000000000000000001000000000000000000000000000000000000000000000000000000000000000000000000000008000000000000000000002000040000000000000000000000000000000000000000000000020000000000000000000000000000000000000000000000000000000000000800000",
      "type": "0x0",
      "transactionHash": "0xb9ea874772a79f6c000cddf1fd659432d742ce6db0e7d781e54d5554b103fcfe",
      "transactionIndex": "0x29",
      "blockHash": "0x83610e89e7bb19ac3be1b27e1addc1272387475d2b7f8d15ed691875e7d60b7d",
      "blockNumber": "0x99d498",
      "gasUsed": "0xdcfe",
      "effectiveGasPrice": "0x3dc81f8c",
      "from": "0xb133a194893434107925682789f16662fb9db062",
      "to": "0x42b965ac6f70196d5fb9df8513e28ef4fe728ebd",
      "contractAddress": null
    },
    {
      "status": "0x1",
      "cumulativeGasUsed": "0x117a295",
      "logs": [
        {
          "address": "0x42b965ac6f70196d5fb9df8513e28ef4fe728ebd",
          "topics": [
            "0x8c5be1e5ebec7d5bd14f71427d1e84f3dd0314c0f7b2291e5b200ac8c7c3b925",
            "0x000000000000000000000000b133a194893434107925682789f16662fb9db062",
            "0x0000000000000000000000000000000000000000000000000000000000001234",
            "0x0000000000000000000000000000000000000000000000000000000000000001"
          ],
          "data": "0x",
          "blockHash": "0x83610e89e7bb19ac3be1b27e1addc1272387475d2b7f8d15ed691875e7d60b7d",
          "blockNumber": "0x99d498",
          "blockTimestamp": "0x696ecd60",
          "transactionHash": "0x7adae16acebf2f7d097b96e989cb454eaa2eeda8aacfe898c81c21d3dba33fdd",
          "transactionIndex": "0x2a",
          "logIndex": "0x202",
          "removed": false
        }
      ],
      "logsBloom": "0x00000000000000000000000000000000000000000000000000000000020000000000000000000000000000000000000000000000000000000000000000240000000000000000000000000000000000004000000000040000000000000000000000000000000000010000000000000000000000000000000000000000000000002000000000000008000000000000000000000000000000000000000200000000020000000000000000000000000000000000000000000000008000000000000000000000000040000000000000000000000000000000000000000000000040010010000000000000000000000000000000000000000000000000000000000000",
      "type": "0x0",
      "transactionHash": "0x7adae16acebf2f7d097b96e989cb454eaa2eeda8aacfe898c81c21d3dba33fdd",
      "transactionIndex": "0x2a",
      "blockHash": "0x83610e89e7bb19ac3be1b27e1addc1272387475d2b7f8d15ed691875e7d60b7d",
      "blockNumber": "0x99d498",
      "gasUsed": "0x6f4f",
      "effectiveGasPrice": "0x3dc81f8c",
      "from": "0xb133a194893434107925682789f16662fb9db062",
      "to": "0x42b965ac6f70196d5fb9df8513e28ef4fe728ebd",
      "contractAddress": null
    }
  ],
  "libraries": [],
  "pending": [],
  "returns": {},
  "timestamp": 1768873054096,
  "chain": 11155111,
  "commit": null
}