{
  "transactions": [
    {
      "hash": "0xef5279949d6e44f197ba8cc3ca43996d7d6a05dcece0102f33f5eeafeab35005",
      "transactionType": "CALL",
      "contractName": null,
      "contractAddress": "0x42b965ac6f70196d5fb9df8513e28ef4fe728ebd",
      "function": "mint(address)",
      "arguments": [
        "0xB133a194893434107925682789F16662FB9DB062"
      ],
      "transaction": {
        "from": "0xb133a194893434107925682789f16662fb9db062",
        "to": "0x42b965ac6f70196d5fb9df8513e28ef4fe728ebd",
        "gas": "0x1313d",
        "value": "0x0",
        "input": "0x6a627842000000000000000000000000b133a194893434107925682789f16662fb9db062",
        "nonce": "0x109",
        "chainId": "0xaa36a7"
      },
      "additionalContracts": [],
      "isFixedGasLimit": false
    },
    {
      "hash": "0xbddf6c8729a3a23e7ab4120468407f7935065789ec5b21a58c40dd2b18f5517e",
      "transactionType": "CALL",
      "contractName": null,
      "contractAddress": "0x42b965ac6f70196d5fb9df8513e28ef4fe728ebd",
      "function": "approve(address,uint256)",
      "arguments": [
        "0x0000000000000000000000000000000000001234",
        "1"
      ],
      "transaction": {
        "from": "0xb133a194893434107925682789f16662fb9db062",
        "to": "0x42b965ac6f70196d5fb9df8513e28ef4fe728ebd",
        "gas": "0x99bd",
        "value": "0x0",
        "input": "0x095ea7b300000000000000000000000000000000000000000000000000000000000012340000000000000000000000000000000000000000000000000000000000000001",
        "nonce": "0x10a",
        "chainId": "0xaa36a7"
      },
      "additionalContracts": [],
      "isFixedGasLimit": false
    }
  ],
  "receipts": [
    {
      "status": "0x1",
      "cumulativeGasUsed": "0x134e462",
      "logs": [
        {
          "address": "0x42b965ac6f70196d5fb9df8513e28ef4fe728ebd",
          "topics": [
            "0xddf252ad1be2c89b69c2b068fc378daa952ba7f163c4a11628f55a4df523b3ef",
            "0x0000000000000000000000000000000000000000000000000000000000000000",
            "0x000000000000000000000000b133a194893434107925682789f16662fb9db062",
            "0x0000000000000000000000000000000000000000000000000000000000000005"
          ],
          "data": "0x",
          "blockHash": "0xe556f20765c39c6b21ecf5be5d26cebe2db28966a45ae825d9afa7e1f4d9f6c3",
          "blockNumber": "0x99d2e0",
          "blockTimestamp": "0x696eb8a8",
          "transactionHash": "0xef5279949d6e44f197ba8cc3ca43996d7d6a05dcece0102f33f5eeafeab35005",
          "transactionIndex": "0x33",
          "logIndex": "0x239",
          "removed": false
        }
      ],
      "logsBloom": "0x00000000000000000000000000000000000000000000000000000000020000000000000000000000000000000000000000000000000000000000000000000000000010000000000000000008000000004000000000000000000000000000000000000000020000010000000000000800000000000000000000000010000000000000000000000008000000000000001000000800000000000000000000000000000000000000000000000000000000000000000000000000008000000000000000000002000040000000000000000000000000000000000000000000000020000000000000000000000000000000000000000000000000000000000000000000",
      "type": "0x0",
      "transactionHash": "0xef5279949d6e44f197ba8cc3ca43996d7d6a05dcece0102f33f5eeafeab35005",
      "transactionIndex": "0x33",
      "blockHash": "0xe556f20765c39c6b21ecf5be5d26cebe2db28966a45ae825d9afa7e1f4d9f6c3",
      "blockNumber": "0x99d2e0",
      "gasUsed": "0xdcfe",
      "effectiveGasPrice": "0x42b7c956",
      "from": "0xb133a194893434107925682789f16662fb9db062",
      "to": "0x42b965ac6f70196d5fb9df8513e28ef4fe728ebd",
      "contractAddress": null
    },
    {
      "status": "0x1",
      "cumulativeGasUsed": "0x13553b1",
      "logs": [
        {
          "address": "0x42b965ac6f70196d5fb9df8513e28ef4fe728ebd",
          "topics": [
            "0x8c5be1e5ebec7d5bd14f71427d1e84f3dd0314c0f7b2291e5b200ac8c7c3b925",
            "0x000000000000000000000000b133a194893434107925682789f16662fb9db062",
            "0x0000000000000000000000000000000000000000000000000000000000001234",
            "0x0000000000000000000000000000000000000000000000000000000000000001"
          ],
          "data": "0x",
          "blockHash": "0xe556f20765c39c6b21ecf5be5d26cebe2db28966a45ae825d9afa7e1f4d9f6c3",
          "blockNumber": "0x99d2e0",
          "blockTimestamp": "0x696eb8a8",
          "transactionHash": "0xbddf6c8729a3a23e7ab4120468407f7935065789ec5b21a58c40dd2b18f5517e",
          "transactionIndex": "0x34",
          "logIndex": "0x23a",
          "removed": false
        }
      ],
      "logsBloom": "0x00000000000000000000000000000000000000000000000000000000020000000000000000000000000000000000000000000000000000000000000000240000000000000000000000000000000000004000000000040000000000000000000000000000000000010000000000000000000000000000000000000000000000002000000000000008000000000000000000000000000000000000000200000000020000000000000000000000000000000000000000000000008000000000000000000000000040000000000000000000000000000000000000000000000040010010000000000000000000000000000000000000000000000000000000000000",
      "type": "0x0",
      "transactionHash": "0xbddf6c8729a3a23e7ab4120468407f7935065789ec5b21a58c40dd2b18f5517e",
      "transactionIndex": "0x34",
      "blockHash": "0xe556f20765c39c6b21ecf5be5d26cebe2db28966a45ae825d9afa7e1f4d9f6c3",
      "blockNumber": "0x99d2e0",
      "gasUsed": "0x6f4f",
      "effectiveGasPrice": "0x42b7c956",
      "from": "0xb133a194893434107925682789f16662fb9db062",
      "to": "0x42b965ac6f70196d5fb9df8513e28ef4fe728ebd",
      "contractAddress": null
    }
  ],
  "libraries": [],
  "pending": [],
  "returns": {},
  "timestamp": 1768867750054,
  "chain": 11155111,
  "commit": null
}