{
  "transactions": [
    {
      "hash": "0x34063a1ffb70304c3b2595ff9094d2a074b9bb068f11c3459390904f222fbbae",
      "transactionType": "CALL",
      "contractName": null,
      "contractAddress": "0x7b14e97a1bf98f6673ea8617de430e2b8697b52c",
      "function": "setAuthorizedReactiveVM(address)",
      "arguments": [
        "0xb0d37e218c1c61Bc7f1E325A0AEe25693D77677E"
      ],
      "transaction": {
        "from": "0xb133a194893434107925682789f16662fb9db062",
        "to": "0x7b14e97a1bf98f6673ea8617de430e2b8697b52c",
        "gas": "0xf9b3",
        "value": "0x0",
        "input": "0x873d6562000000000000000000000000b0d37e218c1c61bc7f1e325a0aee25693d77677e",
        "nonce": "0x11e",
        "chainId": "0x512577"
      },
      "additionalContracts": [],
      "isFixedGasLimit": false
    },
    {
      "hash": "0xcc09052dd30235cbda1ad19779219f4ea8e6a98ce40d65e9eec6a90cb1361c27",
      "transactionType": "CALL",
      "contractName": null,
      "contractAddress": "0x7b14e97a1bf98f6673ea8617de430e2b8697b52c",
      "function": "setCallbackProxy(address)",
      "arguments": [
        "0x0000000000000000000000000000000000fffFfF"
      ],
      "transaction": {
        "from": "0xb133a194893434107925682789f16662fb9db062",
        "to": "0x7b14e97a1bf98f6673ea8617de430e2b8697b52c",
        "gas": "0x105d7",
        "value": "0x0",
        "input": "0x37559f1e0000000000000000000000000000000000000000000000000000000000ffffff",
        "nonce": "0x11f",
        "chainId": "0x512577"
      },
      "additionalContracts": [],
      "isFixedGasLimit": false
    }
  ],
  "receipts": [
    {
      "status": "0x1",
      "cumulativeGasUsed": "0x13042",
      "logs": [],
      "logsBloom": "0x00000000000000000000000000000000000000000000000000000000000000000000000000000000000000000000000000000000000000000000000000000000000000000000000000000000000000000000000000000000000000000000000000000000000000000000000000000000000000000000000000000000000000000000000000000000000000000000000000000000000000000000000000000000000000000000000000000000000000000000000000000000000000000000000000000000000000000000000000000000000000000000000000000000000000000000000000000000000000000000000000000000000000000000000000000000",
      "type": "0x0",
      "transactionHash": "0x34063a1ffb70304c3b2595ff9094d2a074b9bb068f11c3459390904f222fbbae",
      "transactionIndex": "0x1",
      "blockHash": "0xb21171cf22151bbdbcac87def278233191c64c7f52789c957cc45d5f5c4d1def",
      "blockNumber": "0x200cc4",
      "gasUsed": "0xb4c8",
      "effectiveGasPrice": "0x1a13b86000",
      "from": "0xb133a194893434107925682789f16662fb9db062",
      "to": "0x7b14e97a1bf98f6673ea8617de430e2b8697b52c",
      "contractAddress": null
    },
    {
      "status": "0x1",
      "cumulativeGasUsed": "0x1e34c",
      "logs": [],
      "logsBloom": "0x00000000000000000000000000000000000000000000000000000000000000000000000000000000000000000000000000000000000000000000000000000000000000000000000000000000000000000000000000000000000000000000000000000000000000000000000000000000000000000000000000000000000000000000000000000000000000000000000000000000000000000000000000000000000000000000000000000000000000000000000000000000000000000000000000000000000000000000000000000000000000000000000000000000000000000000000000000000000000000000000000000000000000000000000000000000",
      "type": "0x0",
      "transactionHash": "0xcc09052dd30235cbda1ad19779219f4ea8e6a98ce40d65e9eec6a90cb1361c27",
      "transactionIndex": "0x2",
      "blockHash": "0xb21171cf22151bbdbcac87def278233191c64c7f52789c957cc45d5f5c4d1def",
      "blockNumber": "0x200cc4",
      "gasUsed": "0xb30a",
      "effectiveGasPrice": "0x1a13b86000",
      "from": "0xb133a194893434107925682789f16662fb9db062",
      "to": "0x7b14e97a1bf98f6673ea8617de430e2b8697b52c",
      "contractAddress": null
    }
  ],
  "libraries": [],
  "pending": [],
  "returns": {},
  "timestamp": 1769047148923,
  "chain": 5318007,
  "commit": null
}