{
  "transactions": [
    {
      "hash": "0x6daa80e836e9ddf17193414e4c0e3c574270ed5836ea6175a48646932f326246",
      "transactionType": "CALL",
      "contractName": null,
      "contractAddress": "0x7addb28ab0e9acbdcc49122d87c056dd2ecd4e45",
      "function": "executeCallback(address,bytes32)",
      "arguments": [
        "0x0000000000000000000000000000000000000000",
        "0x1798a293302b1ee1260d8103aa2c46c1ed5954a07b601d67c50a0b29ba15eb97"
      ],
      "transaction": {
        "from": "0xb133a194893434107925682789f16662fb9db062",
        "to": "0x7addb28ab0e9acbdcc49122d87c056dd2ecd4e45",
        "gas": "0x1b0e9",
        "value": "0x0",
        "input": "0xa1c6437100000000000000000000000000000000000000000000000000000000000000001798a293302b1ee1260d8103aa2c46c1ed5954a07b601d67c50a0b29ba15eb97",
        "nonce": "0x59",
        "chainId": "0xaa36a7"
      },
      "additionalContracts": [],
      "isFixedGasLimit": false
    }
  ],
  "receipts": [
    {
      "status": "0x1",
      "cumulativeGasUsed": "0x1066222",
      "logs": [
        {
          "address": "0x0569c08917cdd73934399fc5270b4610210cd936",
          "topics": [
            "0xddf252ad1be2c89b69c2b068fc378daa952ba7f163c4a11628f55a4df523b3ef",
            "0x0000000000000000000000007addb28ab0e9acbdcc49122d87c056dd2ecd4e45",
            "0x000000000000000000000000b133a194893434107925682789f16662fb9db062",
            "0x0000000000000000000000000000000000000000000000000000000000000004"
          ],
          "data": "0x",
          "blockHash": "0xde87488b972a31e9bf549e127d8217a733441641a3f2adad4e666cc9967ffecb",
          "blockNumber": "0x98ee65",
          "blockTimestamp": "0x6963bebc",
          "transactionHash": "0x6daa80e836e9ddf17193414e4c0e3c574270ed5836ea6175a48646932f326246",
          "transactionIndex": "0x3d",
          "logIndex": "0x204",
          "removed": false
        },
        {
          "address": "0x7addb28ab0e9acbdcc49122d87c056dd2ecd4e45",
          "topics": [
            "0x41dedfc3454095f35a0fc398fc1523d99d7f51cbbc62e2b1eaf09a0a93a73317",
            "0x1798a293302b1ee1260d8103aa2c46c1ed5954a07b601d67c50a0b29ba15eb97",
            "0xebf75fac542aec27807c7dd2356378098892c1ebda54811b4cbcfaaa5bfbc00c"
          ],
          "data": "0x0000000000000000000000000000000000000000000000000000000000000004000000000000000000000000000000000000000000000000000000006963bebc",
          "blockHash": "0xde87488b972a31e9bf549e127d8217a733441641a3f2adad4e666cc9967ffecb",
          "blockNumber": "0x98ee65",
          "blockTimestamp": "0x6963bebc",
          "transactionHash": "0x6daa80e836e9ddf17193414e4c0e3c574270ed5836ea6175a48646932f326246",
          "transactionIndex": "0x3d",
          "logIndex": "0x205",
          "removed": false
        }
      ],
      "logsBloom": "0x0000000000000000000040000000000000000000000000008000000000000000400080000000000000000004008000000000000000000000000000100000000000000000000000000000000800000000000000400000000000000800000000000800000000000001000000200000000000000000000000000000001000000000000000010000000802000000002000000000000000000000000000000000000000000000000000000000000000000000000000000000000000a200000000000000400002000000000000000000000000000000008000000000000000000040008000000000000000000000000000000000000000100000000000000000000000",
      "type": "0x2",
      "transactionHash": "0x6daa80e836e9ddf17193414e4c0e3c574270ed5836ea6175a48646932f326246",
      "transactionIndex": "0x3d",
      "blockHash": "0xde87488b972a31e9bf549e127d8217a733441641a3f2adad4e666cc9967ffecb",
      "blockNumber": "0x98ee65",
      "gasUsed": "0x1396c",
      "effectiveGasPrice": "0x1327a1",
      "from": "0xb133a194893434107925682789f16662fb9db062",
      "to": "0x7addb28ab0e9acbdcc49122d87c056dd2ecd4e45",
      "contractAddress": null
    }
  ],
  "libraries": [],
  "pending": [],
  "returns": {},
  "timestamp": 1768148412520,
  "chain": 11155111,
  "commit": null
}