{
  "transactions": [
    {
      "hash": "0x5842bc2c3a58c9dcca4a114ad1ae69315479fe1f8a8cacd06d1396dc4add6ab5",
      "transactionType": "CALL",
      "contractName": null,
      "contractAddress": "0xdeb11c994a2660a3b187eb43dd816bc7b1cbed72",
      "function": "mint(address)",
      "arguments": [
        "0xB133a194893434107925682789F16662FB9DB062"
      ],
      "transaction": {
        "from": "0xb133a194893434107925682789f16662fb9db062",
        "to": "0xdeb11c994a2660a3b187eb43dd816bc7b1cbed72",
        "gas": "0x1313d",
        "value": "0x0",
        "input": "0x6a627842000000000000000000000000b133a194893434107925682789f16662fb9db062",
        "nonce": "0x49",
        "chainId": "0xaa36a7"
      },
      "additionalContracts": [],
      "isFixedGasLimit": false
    },
    {
      "hash": "0xc4031b8c109714973a860dd5d5994c884e7f3e7c22823df040a923fbb44854e1",
      "transactionType": "CALL",
      "contractName": null,
      "contractAddress": "0x06a9c92f52b0e55ed907d8dcbc265fe7276f3249",
      "function": "createOrder(address,address,uint8,uint8,uint256,uint256,uint256,uint256,uint256,uint256,bool,uint256)",
      "arguments": [
        "0x0000000000000000000000000000000000000000",
        "0xdeb11c994A2660a3B187eB43dD816bc7B1CbeD72",
        "0",
        "1",
        "100000000000000",
        "4",
        "100000000000000",
        "4",
        "100",
        "86400",
        "false",
        "5318007"
      ],
      "transaction": {
        "from": "0xb133a194893434107925682789f16662fb9db062",
        "to": "0x06a9c92f52b0e55ed907d8dcbc265fe7276f3249",
        "gas": "0x114fb3",
        "value": "0x640b5eece000",
        "input": "0x4077b1fd0000000000000000000000000000000000000000000000000000000000000000000000000000000000000000deb11c994a2660a3b187eb43dd816bc7b1cbed720000000000000000000000000000000000000000000000000000000000000000000000000000000000000000000000000000000000000000000000000000000100000000000000000000000000000000000000000000000000005af3107a4000000000000000000000000000000000000000000000000000000000000000000400000000000000000000000000000000000000000000000000005af3107a400000000000000000000000000000000000000000000000000000000000000000040000000000000000000000000000000000000000000000000000000000000064000000000000000000000000000000000000000000000000000000000001518000000000000000000000000000000000000000000000000000000000000000000000000000000000000000000000000000000000000000000000000000512577",
        "nonce": "0x4a",
        "chainId": "0xaa36a7"
      },
      "additionalContracts": [],
      "isFixedGasLimit": false
    },
    {
      "hash": "0x50944e711cfeb70751545a081d360b113ea4b63178273fff3914c0d7bdb10cee",
      "transactionType": "CALL",
      "contractName": null,
      "contractAddress": "0xdeb11c994a2660a3b187eb43dd816bc7b1cbed72",
      "function": "transferFrom(address,address,uint256)",
      "arguments": [
        "0xB133a194893434107925682789F16662FB9DB062",
        "0x06a9C92f52b0e55Ed907D8DCbC265FE7276f3249",
        "4"
      ],
      "transaction": {
        "from": "0xb133a194893434107925682789f16662fb9db062",
        "to": "0xdeb11c994a2660a3b187eb43dd816bc7b1cbed72",
        "gas": "0x143ca",
        "value": "0x0",
        "input": "0x23b872dd000000000000000000000000b133a194893434107925682789f16662fb9db06200000000000000000000000006a9c92f52b0e55ed907d8dcbc265fe7276f32490000000000000000000000000000000000000000000000000000000000000004",
        "nonce": "0x4b",
        "chainId": "0xaa36a7"
      },
      "additionalContracts": [],
      "isFixedGasLimit": false
    },
    {
      "hash": "0x33fabf4727c5abf620129a22bfdee220e78d6e4aa36a3d227d65614271f648dd",
      "transactionType": "CALL",
      "contractName": null,
      "contractAddress": "0x06a9c92f52b0e55ed907d8dcbc265fe7276f3249",
      "function": "executeCallback(bytes32)",
      "arguments": [
        "0x796066f0705d152b509e89952805cbd0f4e0d9c46f234f04daeca3832ae6f2ee"
      ],
      "transaction": {
        "from": "0xb133a194893434107925682789f16662fb9db062",
        "to": "0x06a9c92f52b0e55ed907d8dcbc265fe7276f3249",
        "gas": "0x1c938",
        "value": "0x0",
        "input": "0xb1dae618796066f0705d152b509e89952805cbd0f4e0d9c46f234f04daeca3832ae6f2ee",
        "nonce": "0x4c",
        "chainId": "0xaa36a7"
      },
      "additionalContracts": [],
      "isFixedGasLimit": false
    }
  ],
  "receipts": [
    {
      "status": "0x1",
      "cumulativeGasUsed": "0x2abdb2b",
      "logs": [
        {
          "address": "0xdeb11c994a2660a3b187eb43dd816bc7b1cbed72",
          "topics": [
            "0xddf252ad1be2c89b69c2b068fc378daa952ba7f163c4a11628f55a4df523b3ef",
            "0x0000000000000000000000000000000000000000000000000000000000000000",
            "0x000000000000000000000000b133a194893434107925682789f16662fb9db062",
            "0x0000000000000000000000000000000000000000000000000000000000000004"
          ],
          "data": "0x",
          "blockHash": "0xddc1afadd845b0744d3f0bc46c038fa4ab205115bbe1718097a10f50250eed7b",
          "blockNumber": "0x98ee2f",
          "blockTimestamp": "0x6963bbbc",
          "transactionHash": "0x5842bc2c3a58c9dcca4a114ad1ae69315479fe1f8a8cacd06d1396dc4add6ab5",
          "transactionIndex": "0xf4",
          "logIndex": "0x632",
          "removed": false
        }
      ],
      "logsBloom": "0x0000000000000000000000000000000000000000000000000000000000000000000000000000000100000000000000000000000000000000000000000000000000000000000000000000000800000001000000000000000000000000000000000800000002000001000000000000080000000000000000000000001000000000000000000000000800000000000000000000000000000000000000000000000000000000000000000000000000000000000000000000000000a000000000000000000002000000000000000000000000000000008000000000000000000020000000000000000000000000000000000000000000000000000000000400000000",
      "type": "0x2",
      "transactionHash": "0x5842bc2c3a58c9dcca4a114ad1ae69315479fe1f8a8cacd06d1396dc4add6ab5",
      "transactionIndex": "0xf4",
      "blockHash": "0xddc1afadd845b0744d3f0bc46c038fa4ab205115bbe1718097a10f50250eed7b",
      "blockNumber": "0x98ee2f",
      "gasUsed": "0xdcfe",
      "effectiveGasPrice": "0xfff75",
      "from": "0xb133a194893434107925682789f16662fb9db062",
      "to": "0xdeb11c994a2660a3b187eb43dd816bc7b1cbed72",
      "contractAddress": null
    },
    {
      "status": "0x1",
      "cumulativeGasUsed": "0x2b7b164",
      "logs": [
        {
          "address": "0x9da6febd5a4e419429ee4130cea2ad1fbc10517f",
          "topics": [
            "0x1e1e59ba994a6c1733c7b48707becd3c9ed68e7c24edb9d0e52aa049690f8033",
            "0x0000000000000000000000000000000000000000000000000000000000000000",
            "0x0000000000000000000000009da6febd5a4e419429ee4130cea2ad1fbc10517f",
            "0xa233221b38e2429e2809e07a80915d29bad9403439c323edcf426b58740a1a86"
          ],
          "data": "0x000000000000000000000000000000000000000000000000000000e8d4a51000000000000000000000000000000000000000000000000000000000006963bbbc",
          "blockHash": "0xddc1afadd845b0744d3f0bc46c038fa4ab205115bbe1718097a10f50250eed7b",
          "blockNumber": "0x98ee2f",
          "blockTimestamp": "0x6963bbbc",
          "transactionHash": "0xc4031b8c109714973a860dd5d5994c884e7f3e7c22823df040a923fbb44854e1",
          "transactionIndex": "0xf5",
          "logIndex": "0x633",
          "removed": false
        },
        {
          "address": "0xb1644862639343d78db9bf68a86400d4aae7005c",
          "topics": [
            "0x9bf2168d383c9f4e4f2477bcc00eb29f933d24976d3b7208d85a5941d93bd842",
            "0x0000000000000000000000000000000000000000000000000000000000000000",
            "0x000000000000000000000000deb11c994a2660a3b187eb43dd816bc7b1cbed72"
          ],
          "data": "0x00000000000000000000000000000000000000000000000000005af3107a4000000000000000000000000000000000000000000000000000000000006963bbbc",
          "blockHash": "0xddc1afadd845b0744d3f0bc46c038fa4ab205115bbe1718097a10f50250eed7b",
          "blockNumber": "0x98ee2f",
          "blockTimestamp": "0x6963bbbc",
          "transactionHash": "0xc4031b8c109714973a860dd5d5994c884e7f3e7c22823df040a923fbb44854e1",
          "transactionIndex": "0xf5",
          "logIndex": "0x634",
          "removed": false
        },
        {
          "address": "0x548d41642f1d73834be9ef4fb33bbca8d8b7f07f",
          "topics": [
            "0xff3b90bd96f52c8b55369feccd230679a844f1ef26a3c3d8e47269f9aaf492f0",
            "0x689b5ddd04638335cbbfa59d1846591ac505b155727d27e10f0cb6bface1c6b6",
            "0x000000000000000000000000b133a194893434107925682789f16662fb9db062",
            "0x0000000000000000000000000000000000000000000000000000000000000000"
          ],
          "data": "0x000000000000000000000000deb11c994a2660a3b187eb43dd816bc7b1cbed720000000000000000000000000000000000000000000000000000000000000000000000000000000000000000000000000000000000000000000000000000000100000000000000000000000000000000000000000000000000005af3107a400000000000000000000000000000000000000000000000000000005af3107a4000000000000000000000000000000000000000000000000000000000006963bbbc",
          "blockHash": "0xddc1afadd845b0744d3f0bc46c038fa4ab205115bbe1718097a10f50250eed7b",
          "blockNumber": "0x98ee2f",
          "blockTimestamp": "0x6963bbbc",
          "transactionHash": "0xc4031b8c109714973a860dd5d5994c884e7f3e7c22823df040a923fbb44854e1",
          "transactionIndex": "0xf5",
          "logIndex": "0x635",
          "removed": false
        },
        {
          "address": "0x548d41642f1d73834be9ef4fb33bbca8d8b7f07f",
          "topics": [
            "0xb92fdedb2eafbdfb4c63efe5e12ad5465c5696045bf8ef323c9bd6624e4f5db2",
            "0x689b5ddd04638335cbbfa59d1846591ac505b155727d27e10f0cb6bface1c6b6"
          ],
          "data": "0x0000000000000000000000000000000000000000000000000000000000512577000000000000000000000000000000000000000000000000000000006963bbbc",
          "blockHash": "0xddc1afadd845b0744d3f0bc46c038fa4ab205115bbe1718097a10f50250eed7b",
          "blockNumber": "0x98ee2f",
          "blockTimestamp": "0x6963bbbc",
          "transactionHash": "0xc4031b8c109714973a860dd5d5994c884e7f3e7c22823df040a923fbb44854e1",
          "transactionIndex": "0xf5",
          "logIndex": "0x636",
          "removed": false
        },
        {
          "address": "0x06a9c92f52b0e55ed907d8dcbc265fe7276f3249",
          "topics": [
            "0xe9dbf214fbca4dcf24d246154a363e5fb1f2adde8f1f7cce7bd19f220adcafd4",
            "0x689b5ddd04638335cbbfa59d1846591ac505b155727d27e10f0cb6bface1c6b6",
            "0x000000000000000000000000b133a194893434107925682789f16662fb9db062"
          ],
          "data": "0x0000000000000000000000000000000000000000000000000000000000000000000000000000000000000000deb11c994a2660a3b187eb43dd816bc7b1cbed720000000000000000000000000000000000000000000000000000000000000000000000000000000000000000000000000000000000000000000000000000000100000000000000000000000000000000000000000000000000005af3107a4000000000000000000000000000000000000000000000000000000000006963bbbc",
          "blockHash": "0xddc1afadd845b0744d3f0bc46c038fa4ab205115bbe1718097a10f50250eed7b",
          "blockNumber": "0x98ee2f",
          "blockTimestamp": "0x6963bbbc",
          "transactionHash": "0xc4031b8c109714973a860dd5d5994c884e7f3e7c22823df040a923fbb44854e1",
          "transactionIndex": "0xf5",
          "logIndex": "0x637",
          "removed": false
        },
        {
          "address": "0x06a9c92f52b0e55ed907d8dcbc265fe7276f3249",
          "topics": [
            "0xd211963fea1489ee6124d5c4d7f6a322eeda56f756974008287e7a2f96c91d7b",
            "0xc18e261d6fc702632d80df4a400c9b3398e9642d803349fb142947b29f855a48",
            "0x689b5ddd04638335cbbfa59d1846591ac505b155727d27e10f0cb6bface1c6b6"
          ],
          "data": "0x0000000000000000000000000000000000000000000000000000000000512577000000000000000000000000000000000000000000000000000000006963bbbc",
          "blockHash": "0xddc1afadd845b0744d3f0bc46c038fa4ab205115bbe1718097a10f50250eed7b",
          "blockNumber": "0x98ee2f",
          "blockTimestamp": "0x6963bbbc",
          "transactionHash": "0xc4031b8c109714973a860dd5d5994c884e7f3e7c22823df040a923fbb44854e1",
          "transactionIndex": "0xf5",
          "logIndex": "0x638",
          "removed": false
        }
      ],
      "logsBloom": "0x00000010000000008000008000000002081000000000000000000000000000000000000000000000000000000000081000000000800100020000000000000000000000100004000200000000000400000000008004000000000000000200000000000000020000010200000000000800000000000000000000000000000000000400000000000028000000000000000000000000000040000000000000000000000000000000000020000020000080200000000000000000008000200060000000000000004000000000080000000000000000000000010000001040000060000000400000000000000008000000000000010400000040000000000002022002",
      "type": "0x2",
      "transactionHash": "0xc4031b8c109714973a860dd5d5994c884e7f3e7c22823df040a923fbb44854e1",
      "transactionIndex": "0xf5",
      "blockHash": "0xddc1afadd845b0744d3f0bc46c038fa4ab205115bbe1718097a10f50250eed7b",
      "blockNumber": "0x98ee2f",
      "gasUsed": "0xbd639",
      "effectiveGasPrice": "0xfff75",
      "from": "0xb133a194893434107925682789f16662fb9db062",
      "to": "0x06a9c92f52b0e55ed907d8dcbc265fe7276f3249",
      "contractAddress": null
    },
    {
      "status": "0x1",
      "cumulativeGasUsed": "0x2b89bd0",
      "logs": [
        {
          "address": "0xdeb11c994a2660a3b187eb43dd816bc7b1cbed72",
          "topics": [
            "0xddf252ad1be2c89b69c2b068fc378daa952ba7f163c4a11628f55a4df523b3ef",
            "0x000000000000000000000000b133a194893434107925682789f16662fb9db062",
            "0x00000000000000000000000006a9c92f52b0e55ed907d8dcbc265fe7276f3249",
            "0x0000000000000000000000000000000000000000000000000000000000000004"
          ],
          "data": "0x",
          "blockHash": "0xddc1afadd845b0744d3f0bc46c038fa4ab205115bbe1718097a10f50250eed7b",
          "blockNumber": "0x98ee2f",
          "blockTimestamp": "0x6963bbbc",
          "transactionHash": "0x33fabf4727c5abf620129a22bfdee220e78d6e4aa36a3d227d65614271f648dd",
          "transactionIndex": "0xf6",
          "logIndex": "0x639",
          "removed": false
        }
      ],
      "logsBloom": "0x0000000000000000000000000000000000000000000000000000000000000000000000000000000100000000000000000000200000000000000000000000000000000000000000000000000800000001000000000000000000000000000000000800000000000001000000000000000000000000000000000000001000000000000000000000000800000008000000000000000000000000000200000000000000000000000000000000000000000000000000000000000000a000000000000000000002000000000000000000000000000000008000000000000000000000000000000000000000000000000000000000000000000000000000000400000000",
      "type": "0x2",
      "transactionHash": "0x33fabf4727c5abf620129a22bfdee220e78d6e4aa36a3d227d65614271f648dd",
      "transactionIndex": "0xf6",
      "blockHash": "0xddc1afadd845b0744d3f0bc46c038fa4ab205115bbe1718097a10f50250eed7b",
      "blockNumber": "0x98ee2f",
      "gasUsed": "0xea6c",
      "effectiveGasPrice": "0xfff75",
      "from": "0xb133a194893434107925682789f16662fb9db062",
      "to": "0xdeb11c994a2660a3b187eb43dd816bc7b1cbed72",
      "contractAddress": null
    }
  ],
  "libraries": [],
  "pending": [],
  "returns": {},
  "timestamp": 1768147643573,
  "chain": 11155111,
  "commit": null
}