{
  "transactions": [
    {
      "hash": "0x743fffdb8b30c7eec6c0426123de2b402faa239a99248873731120ffef899f6d",
      "transactionType": "CALL",
      "contractName": null,
      "contractAddress": "0x0569c08917cdd73934399fc5270b4610210cd936",
      "function": "mint(address)",
      "arguments": [
        "0xB133a194893434107925682789F16662FB9DB062"
      ],
      "transaction": {
        "from": "0xb133a194893434107925682789f16662fb9db062",
        "to": "0x0569c08917cdd73934399fc5270b4610210cd936",
        "gas": "0x1313d",
        "value": "0x0",
        "input": "0x6a627842000000000000000000000000b133a194893434107925682789f16662fb9db062",
        "nonce": "0x56",
        "chainId": "0xaa36a7"
      },
      "additionalContracts": [],
      "isFixedGasLimit": false
    },
    {
      "hash": "0x68783ec8785e12dc757c763ea5a1c1b190bae39b38091a1200f3ff2aa35d2e9d",
      "transactionType": "CALL",
      "contractName": null,
      "contractAddress": "0x0569c08917cdd73934399fc5270b4610210cd936",
      "function": "transferFrom(address,address,uint256)",
      "arguments": [
        "0xB133a194893434107925682789F16662FB9DB062",
        "0x7aDDB28ab0e9AcBDcC49122D87c056Dd2ecD4E45",
        "4"
      ],
      "transaction": {
        "from": "0xb133a194893434107925682789f16662fb9db062",
        "to": "0x0569c08917cdd73934399fc5270b4610210cd936",
        "gas": "0x143ca",
        "value": "0x0",
        "input": "0x23b872dd000000000000000000000000b133a194893434107925682789f16662fb9db0620000000000000000000000007addb28ab0e9acbdcc49122d87c056dd2ecd4e450000000000000000000000000000000000000000000000000000000000000004",
        "nonce": "0x57",
        "chainId": "0xaa36a7"
      },
      "additionalContracts": [],
      "isFixedGasLimit": false
    },
    {
      "hash": "0xbf9f67e3b591c95a73ac175de9b7f906187b12bd6cc857e516642f189038ac15",
      "transactionType": "CALL",
      "contractName": null,
      "contractAddress": "0x7addb28ab0e9acbdcc49122d87c056dd2ecd4e45",
      "function": "createOrder(address,address,uint8,uint8,uint256,uint256,uint256,uint256,uint256,uint256,bool,uint256)",
      "arguments": [
        "0x0000000000000000000000000000000000000000",
        "0x0569C08917cDd73934399fC5270B4610210Cd936",
        "0",
        "1",
        "100000000000000",
        "4",
        "100000000000000",
        "4",
        "100",
        "86400",
        "false",
        "5318007"
      ],
      "transaction": {
        "from": "0xb133a194893434107925682789f16662fb9db062",
        "to": "0x7addb28ab0e9acbdcc49122d87c056dd2ecd4e45",
        "gas": "0x13d72f",
        "value": "0x640b5eece000",
        "input": "0x4077b1fd00000000000000000000000000000000000000000000000000000000000000000000000000000000000000000569c08917cdd73934399fc5270b4610210cd9360000000000000000000000000000000000000000000000000000000000000000000000000000000000000000000000000000000000000000000000000000000100000000000000000000000000000000000000000000000000005af3107a4000000000000000000000000000000000000000000000000000000000000000000400000000000000000000000000000000000000000000000000005af3107a400000000000000000000000000000000000000000000000000000000000000000040000000000000000000000000000000000000000000000000000000000000064000000000000000000000000000000000000000000000000000000000001518000000000000000000000000000000000000000000000000000000000000000000000000000000000000000000000000000000000000000000000000000512577",
        "nonce": "0x58",
        "chainId": "0xaa36a7"
      },
      "additionalContracts": [],
      "isFixedGasLimit": false
    }
  ],
  "receipts": [
    {
      "status": "0x1",
      "cumulativeGasUsed": "0xc6873f",
      "logs": [
        {
          "address": "0x0569c08917cdd73934399fc5270b4610210cd936",
          "topics": [
            "0xddf252ad1be2c89b69c2b068fc378daa952ba7f163c4a11628f55a4df523b3ef",
            "0x0000000000000000000000000000000000000000000000000000000000000000",
            "0x000000000000000000000000b133a194893434107925682789f16662fb9db062",
            "0x0000000000000000000000000000000000000000000000000000000000000004"
          ],
          "data": "0x",
          "blockHash": "0x391b53494be613be2489e53a513cf487d1ce8a958d2c5f18199222ed406fb9ef",
          "blockNumber": "0x98ee63",
          "blockTimestamp": "0x6963bea4",
          "transactionHash": "0x743fffdb8b30c7eec6c0426123de2b402faa239a99248873731120ffef899f6d",
          "transactionIndex": "0x46",
          "logIndex": "0x190",
          "removed": false
        }
      ],
      "logsBloom": "0x0000000000000000000000000000000000000000000000000000000000000000000080000000000000000004000000000000000000000000000000000000000000000000000000000000000800000000000000000000000000000000000000000800000002000001000000000000080000000000000000000000001000000000000000000000000800000000000000000000000000000000000000000000000000000000000000000000000000000000000000000000000000a200000000000000000002000000000000000000000000000000008000000000000000000020000000000000000000000000000000000000000000000000000000000000000000",
      "type": "0x2",
      "transactionHash": "0x743fffdb8b30c7eec6c0426123de2b402faa239a99248873731120ffef899f6d",
      "transactionIndex": "0x46",
      "blockHash": "0x391b53494be613be2489e53a513cf487d1ce8a958d2c5f18199222ed406fb9ef",
      "blockNumber": "0x98ee63",
      "gasUsed": "0xdcfe",
      "effectiveGasPrice": "0x131a4d",
      "from": "0xb133a194893434107925682789f16662fb9db062",
      "to": "0x0569c08917cdd73934399fc5270b4610210cd936",
      "contractAddress": null
    },
    {
      "status": "0x1",
      "cumulativeGasUsed": "0xc771ab",
      "logs": [
        {
          "address": "0x0569c08917cdd73934399fc5270b4610210cd936",
          "topics": [
            "0xddf252ad1be2c89b69c2b068fc378daa952ba7f163c4a11628f55a4df523b3ef",
            "0x000000000000000000000000b133a194893434107925682789f16662fb9db062",
            "0x0000000000000000000000007addb28ab0e9acbdcc49122d87c056dd2ecd4e45",
            "0x0000000000000000000000000000000000000000000000000000000000000004"
          ],
          "data": "0x",
          "blockHash": "0x391b53494be613be2489e53a513cf487d1ce8a958d2c5f18199222ed406fb9ef",
          "blockNumber": "0x98ee63",
          "blockTimestamp": "0x6963bea4",
          "transactionHash": "0xbf9f67e3b591c95a73ac175de9b7f906187b12bd6cc857e516642f189038ac15",
          "transactionIndex": "0x47",
          "logIndex": "0x191",
          "removed": false
        }
      ],
      "logsBloom": "0x0000000000000000000000000000000000000000000000000000000000000000000080000000000000000004008000000000000000000000000000000000000000000000000000000000000800000000000000000000000000000000000000000800000000000001000000000000000000000000000000000000001000000000000000000000000802000000000000000000000000000000000000000000000000000000000000000000000000000000000000000000000000a200000000000000400002000000000000000000000000000000008000000000000000000000000000000000000000000000000000000000000000000000000000000000000000",
      "type": "0x2",
      "transactionHash": "0xbf9f67e3b591c95a73ac175de9b7f906187b12bd6cc857e516642f189038ac15",
      "transactionIndex": "0x47",
      "blockHash": "0x391b53494be613be2489e53a513cf487d1ce8a958d2c5f18199222ed406fb9ef",
      "blockNumber": "0x98ee63",
      "gasUsed": "0xea6c",
      "effectiveGasPrice": "0x131a4d",
      "from": "0xb133a194893434107925682789f16662fb9db062",
      "to": "0x0569c08917cdd73934399fc5270b4610210cd936",
      "contractAddress": null
    },
    {
      "status": "0x1",
      "cumulativeGasUsed": "0xd5029e",
      "logs": [
        {
          "address": "0x46ec4527620eda8b826a42d30c0df4f536cae063",
          "topics": [
            "0x1e1e59ba994a6c1733c7b48707becd3c9ed68e7c24edb9d0e52aa049690f8033",
            "0x0000000000000000000000000000000000000000000000000000000000000000",
            "0x00000000000000000000000046ec4527620eda8b826a42d30c0df4f536cae063",
            "0xd9848fe3aeadcae14899f02a63509a0a9481c3cb1ce175c649eb73ea15c134a7"
          ],
          "data": "0x000000000000000000000000000000000000000000000000000000e8d4a51000000000000000000000000000000000000000000000000000000000006963bea4",
          "blockHash": "0x391b53494be613be2489e53a513cf487d1ce8a958d2c5f18199222ed406fb9ef",
          "blockNumber": "0x98ee63",
          "blockTimestamp": "0x6963bea4",
          "transactionHash": "0x68783ec8785e12dc757c763ea5a1c1b190bae39b38091a1200f3ff2aa35d2e9d",
          "transactionIndex": "0x48",
          "logIndex": "0x192",
          "removed": false
        },
        {
          "address": "0xb851437f508f2b37f840aefc2bff945c6f453f33",
          "topics": [
            "0x9bf2168d383c9f4e4f2477bcc00eb29f933d24976d3b7208d85a5941d93bd842",
            "0x0000000000000000000000000000000000000000000000000000000000000000",
            "0x0000000000000000000000000569c08917cdd73934399fc5270b4610210cd936"
          ],
          "data": "0x00000000000000000000000000000000000000000000000000005af3107a4000000000000000000000000000000000000000000000000000000000006963bea4",
          "blockHash": "0x391b53494be613be2489e53a513cf487d1ce8a958d2c5f18199222ed406fb9ef",
          "blockNumber": "0x98ee63",
          "blockTimestamp": "0x6963bea4",
          "transactionHash": "0x68783ec8785e12dc757c763ea5a1c1b190bae39b38091a1200f3ff2aa35d2e9d",
          "transactionIndex": "0x48",
          "logIndex": "0x193",
          "removed": false
        },
        {
          "address": "0xfffefa713ff3ebbefe39237e9347b56e700b62ec",
          "topics": [
            "0xff3b90bd96f52c8b55369feccd230679a844f1ef26a3c3d8e47269f9aaf492f0",
            "0xebf75fac542aec27807c7dd2356378098892c1ebda54811b4cbcfaaa5bfbc00c",
            "0x000000000000000000000000b133a194893434107925682789f16662fb9db062",
            "0x0000000000000000000000000000000000000000000000000000000000000000"
          ],
          "data": "0x0000000000000000000000000569c08917cdd73934399fc5270b4610210cd9360000000000000000000000000000000000000000000000000000000000000000000000000000000000000000000000000000000000000000000000000000000100000000000000000000000000000000000000000000000000005af3107a400000000000000000000000000000000000000000000000000000005af3107a4000000000000000000000000000000000000000000000000000000000006963bea4",
          "blockHash": "0x391b53494be613be2489e53a513cf487d1ce8a958d2c5f18199222ed406fb9ef",
          "blockNumber": "0x98ee63",
          "blockTimestamp": "0x6963bea4",
          "transactionHash": "0x68783ec8785e12dc757c763ea5a1c1b190bae39b38091a1200f3ff2aa35d2e9d",
          "transactionIndex": "0x48",
          "logIndex": "0x194",
          "removed": false
        },
        {
          "address": "0xfffefa713ff3ebbefe39237e9347b56e700b62ec",
          "topics": [
            "0xb92fdedb2eafbdfb4c63efe5e12ad5465c5696045bf8ef323c9bd6624e4f5db2",
            "0xebf75fac542aec27807c7dd2356378098892c1ebda54811b4cbcfaaa5bfbc00c"
          ],
          "data": "0x0000000000000000000000000000000000000000000000000000000000512577000000000000000000000000000000000000000000000000000000006963bea4",
          "blockHash": "0x391b53494be613be2489e53a513cf487d1ce8a958d2c5f18199222ed406fb9ef",
          "blockNumber": "0x98ee63",
          "blockTimestamp": "0x6963bea4",
          "transactionHash": "0x68783ec8785e12dc757c763ea5a1c1b190bae39b38091a1200f3ff2aa35d2e9d",
          "transactionIndex": "0x48",
          "logIndex": "0x195",
          "removed": false
        },
        {
          "address": "0x7addb28ab0e9acbdcc49122d87c056dd2ecd4e45",
          "topics": [
            "0xe9dbf214fbca4dcf24d246154a363e5fb1f2adde8f1f7cce7bd19f220adcafd4",
            "0xebf75fac542aec27807c7dd2356378098892c1ebda54811b4cbcfaaa5bfbc00c",
            "0x000000000000000000000000b133a194893434107925682789f16662fb9db062"
          ],
          "data": "0x00000000000000000000000000000000000000000000000000000000000000000000000000000000000000000569c08917cdd73934399fc5270b4610210cd9360000000000000000000000000000000000000000000000000000000000000000000000000000000000000000000000000000000000000000000000000000000100000000000000000000000000000000000000000000000000005af3107a4000000000000000000000000000000000000000000000000000000000006963bea4",
          "blockHash": "0x391b53494be613be2489e53a513cf487d1ce8a958d2c5f18199222ed406fb9ef",
          "blockNumber": "0x98ee63",
          "blockTimestamp": "0x6963bea4",
          "transactionHash": "0x68783ec8785e12dc757c763ea5a1c1b190bae39b38091a1200f3ff2aa35d2e9d",
          "transactionIndex": "0x48",
          "logIndex": "0x196",
          "removed": false
        },
        {
          "address": "0x7addb28ab0e9acbdcc49122d87c056dd2ecd4e45",
          "topics": [
            "0xd211963fea1489ee6124d5c4d7f6a322eeda56f756974008287e7a2f96c91d7b",
            "0x1798a293302b1ee1260d8103aa2c46c1ed5954a07b601d67c50a0b29ba15eb97",
            "0xebf75fac542aec27807c7dd2356378098892c1ebda54811b4cbcfaaa5bfbc00c"
          ],
          "data": "0x0000000000000000000000000000000000000000000000000000000000512577000000000000000000000000000000000000000000000000000000006963bea4",
          "blockHash": "0x391b53494be613be2489e53a513cf487d1ce8a958d2c5f18199222ed406fb9ef",
          "blockNumber": "0x98ee63",
          "blockTimestamp": "0x6963bea4",
          "transactionHash": "0x68783ec8785e12dc757c763ea5a1c1b190bae39b38091a1200f3ff2aa35d2e9d",
          "transactionIndex": "0x48",
          "logIndex": "0x197",
          "removed": false
        }
      ],
      "logsBloom": "0x00000000000000008000408000000000000008000000000080000000200000004000000000000000020000002000080000000000808100000000000000000000000000100004000202000000000000000000004004000000000008000001000080000000020000010200002000000800000000800000004000000000000000000000000100000008000000000000000000000000000000000000000000000000000000000000000000000000000000204000000100000000008000000040000000000000004000800010080000000000000000000000000000001000000060088000000000000000000000000000000000000000000000800000000000002802",
      "type": "0x2",
      "transactionHash": "0x68783ec8785e12dc757c763ea5a1c1b190bae39b38091a1200f3ff2aa35d2e9d",
      "transactionIndex": "0x48",
      "blockHash": "0x391b53494be613be2489e53a513cf487d1ce8a958d2c5f18199222ed406fb9ef",
      "blockNumber": "0x98ee63",
      "gasUsed": "0xd90f3",
      "effectiveGasPrice": "0x131a4d",
      "from": "0xb133a194893434107925682789f16662fb9db062",
      "to": "0x7addb28ab0e9acbdcc49122d87c056dd2ecd4e45",
      "contractAddress": null
    }
  ],
  "libraries": [],
  "pending": [],
  "returns": {},
  "timestamp": 1768148387445,
  "chain": 11155111,
  "commit": null
}